{
	"data": {
		"bytecode": {
			"linkReferences": {},
			"object": "6101c060405260015f556005805460ff1916905534801561001e575f80fd5b50604051613e35380380613e3583398101604081905261003d91610338565b604080518082018252601781527f506f6c796d61726b6574204354462045786368616e6765000000000000000000602080830191909152825180840184526001808252603160f81b82840152335f90815281845285812082905560029093529390912092909255839183918391839190898983836100bc826003610216565b610120526100cb816004610216565b61014052815160208084019190912060e052815190820120610100524660a05261014460e05161010051604080515f80516020613e1583398151915260208201529081019290925260608201524660808201523060a08201525f9060c00160405160208183030381529060405280519060200120905090565b60805250503060c0526001600160a01b0382811661016081905290821661018081905260405163095ea7b360e01b815260048101919091525f19602482015263095ea7b3906044016020604051808303815f875af11580156101a8573d5f803e3d5ffd5b505050506040513d601f19601f820116820180604052508101906101cc9190610389565b506101d8915050610248565b6101a0525050600880546001600160a01b039384166001600160a01b0319918216179091556009805492909316911617905550610559945050505050565b5f6020835110156102315761022a836102d7565b9050610242565b8161023c8482610447565b5060ff90505b92915050565b5f60c0516001600160a01b0316306001600160a01b031614801561026d575060a05146145b15610279575060805190565b6102d260e05161010051604080515f80516020613e1583398151915260208201529081019290925260608201524660808201523060a08201525f9060c00160405160208183030381529060405280519060200120905090565b905090565b5f80829050601f8151111561030a578260405163305a27a960e01b81526004016103019190610501565b60405180910390fd5b805161031582610536565b179392505050565b80516001600160a01b0381168114610333575f80fd5b919050565b5f805f806080858703121561034b575f80fd5b6103548561031d565b93506103626020860161031d565b92506103706040860161031d565b915061037e6060860161031d565b905092959194509250565b5f60208284031215610399575f80fd5b815180151581146103a8575f80fd5b9392505050565b634e487b7160e01b5f52604160045260245ffd5b600181811c908216806103d757607f821691505b6020821081036103f557634e487b7160e01b5f52602260045260245ffd5b50919050565b601f82111561044257805f5260205f20601f840160051c810160208510156104205750805b601f840160051c820191505b8181101561043f575f815560010161042c565b50505b505050565b81516001600160401b03811115610460576104606103af565b6104748161046e84546103c3565b846103fb565b6020601f8211600181146104a6575f831561048f5750848201515b5f19600385901b1c1916600184901b17845561043f565b5f84815260208120601f198516915b828110156104d557878501518255602094850194600190920191016104b5565b50848210156104f257868401515f19600387901b60f8161c191681555b50505050600190811b01905550565b602081525f82518060208401528060208501604085015e5f604082850101526040601f19601f83011684010191505092915050565b805160208083015191908110156103f5575f1960209190910360031b1b16919050565b60805160a05160c05160e05161010051610120516101405161016051610180516101a0516138156106005f395f6107bb01525f818161043e01528181611f6c0152818161217501528181612b1a0152612c1d01525f818161055c01528181611edf0152818161212a01528181612b490152612c4c01525f6113f401525f6113c701525f611bfa01525f611bd201525f611b2d01525f611b5701525f611b8101526138155ff3fe608060405234801561000f575f80fd5b50600436106102e5575f3560e01c80637048027511610195578063d798eff6116100e4578063e60f0c051161009e578063f698da2511610079578063f698da25146107b6578063fa950b48146107dd578063fbddd751146107f0578063fe729aaf14610803575f80fd5b8063e60f0c0514610771578063edef7d8e14610784578063f23a6e6114610797575f80fd5b8063d798eff6146106fb578063d7fb272f1461070e578063d82da83814610730578063e03ac3d014610743578063e2eec4051461074b578063e50e4f971461075e575f80fd5b8063a10f3dce1161014f578063ac8a584a1161012a578063ac8a584a14610698578063b28c51c0146106ab578063bc197c81146106bc578063c10f1a75146106e8575f80fd5b8063a10f3dce1461065f578063a287bdf114610672578063a6dfcf8614610685575f80fd5b806370480275146105e657806375d7370a146105f95780637ecebe001461060a57806383b8a5ae1461062957806384b0196e146106315780639870d7fe1461064c575f80fd5b8063429b62e5116102515780635893253c1161020b578063627cdcb9116101e6578063627cdcb91461058d578063654f0ce41461059557806368c7450f146105a85780636d70f7ae146105bb575f80fd5b80635893253c1461051f5780635c1548fb1461055a5780635c975abb14610580575f80fd5b8063429b62e51461046a57806344bea37e146104895780634544f05514610490578063456068d2146104a357806346423aa7146104ab5780634a2a11f514610517575f80fd5b80631785f53c116102a25780631785f53c146103a757806324d7806c146103ba5780632dff692d146103e657806334600901146104295780633b521d781461043c5780633d6d359814610462575f80fd5b806301ffc9a7146102e95780630647ee201461031157806306b9d6911461033d5780631031e36e1461035d578063131e7e1c1461036757806313e7c9d81461037a575b5f80fd5b6102fc6102f7366004612c70565b610816565b60405190151581526020015b60405180910390f35b6102fc61031f366004612cbb565b6001600160a01b03919091165f908152600660205260409020541490565b61034561084c565b6040516001600160a01b039091168152602001610308565b6103656108bc565b005b600954610345906001600160a01b031681565b610399610388366004612ce5565b60026020525f908152604090205481565b604051908152602001610308565b6103656103b5366004612ce5565b6108f6565b6102fc6103c8366004612ce5565b6001600160a01b03165f908152600160208190526040909120541490565b6104126103f4366004612d00565b600a6020525f90815260409020805460019091015460ff9091169082565b604080519215158352602083019190915201610308565b610365610437366004612d00565b61096b565b7f0000000000000000000000000000000000000000000000000000000000000000610345565b61036561099b565b610399610478366004612ce5565b60016020525f908152604090205481565b6103995f81565b61036561049e366004612ce5565b610a04565b610365610a3d565b6104fa6104b9366004612d00565b604080518082019091525f8082526020820152505f908152600a60209081526040918290208251808401909352805460ff1615158352600101549082015290565b604080518251151581526020928301519281019290925201610308565b6103e8610399565b61054561052d366004612d00565b60076020525f90815260409020805460019091015482565b60408051928352602083019190915201610308565b7f0000000000000000000000000000000000000000000000000000000000000000610345565b6005546102fc9060ff1681565b610365610a75565b6103656105a3366004612ef3565b610a7f565b6103656105b6366004612f24565b610a99565b6102fc6105c9366004612ce5565b6001600160a01b03165f9081526002602052604090205460011490565b6103656105f4366004612ce5565b610ad9565b6009546001600160a01b0316610345565b610399610618366004612ce5565b60066020525f908152604090205481565b610365610b51565b610639610bbb565b6040516103089796959493929190612fb5565b61036561065a366004612ce5565b610bfd565b61039961066d366004612d00565b610c73565b610345610680366004612ce5565b610c8f565b610365610693366004612ef3565b610cad565b6103656106a6366004612ce5565b610cb6565b6008546001600160a01b0316610345565b6106cf6106ca3660046130a6565b610d2b565b6040516001600160e01b03199091168152602001610308565b600854610345906001600160a01b031681565b6103656107093660046131d4565b610d3d565b61039961071c366004612d00565b5f9081526007602052604090206001015490565b61036561073e366004613237565b610dd2565b610345610dfa565b610365610759366004613257565b610e41565b61039961076c366004612ef3565b610e7d565b61036561077f366004613290565b610f18565b610345610792366004612ce5565b610fa7565b6106cf6107a5366004613325565b63f23a6e6160e01b95945050505050565b6103997f000000000000000000000000000000000000000000000000000000000000000081565b6103656107eb36600461337c565b610fc5565b6103656107fe366004612ce5565b610ffb565b6103656108113660046133ad565b611034565b5f6001600160e01b03198216630271189760e51b148061084657506301ffc9a760e01b6001600160e01b03198316145b92915050565b6008546040805163557887a160e11b815290515f926001600160a01b03169163aaf10f429160048083019260209291908290030181865afa158015610893573d5f803e3d5ffd5b505050506040513d601f19601f820116820180604052508101906108b791906133ee565b905090565b335f90815260016020819052604090912054146108ec57604051637bfa4b9f60e01b815260040160405180910390fd5b6108f46110b8565b565b335f908152600160208190526040909120541461092657604051637bfa4b9f60e01b815260040160405180910390fd5b6001600160a01b0381165f81815260016020526040808220829055513392917f787a2e12f4a55b658b8f573c32432ee11a5e8b51677d1e1e937aaf6a0bb5776e91a350565b5f818152600760205260408120549003610998576040516307ed98ed60e31b815260040160405180910390fd5b50565b335f908152600260205260409020546001146109ca57604051631f0853c160e21b815260040160405180910390fd5b335f818152600260205260408082208290555182917ff7262ed0443cc211121ceb1a80d69004f319245615a7488f951f1437fd91642c91a3565b335f9081526001602081905260409091205414610a3457604051637bfa4b9f60e01b815260040160405180910390fd5b610998816110f1565b335f9081526001602081905260409091205414610a6d57604051637bfa4b9f60e01b815260040160405180910390fd5b6108f461114c565b6108f46001611182565b5f610a8982610e7d565b9050610a9581836111ae565b5050565b335f9081526001602081905260409091205414610ac957604051637bfa4b9f60e01b815260040160405180910390fd5b610ad4838383611299565b505050565b335f9081526001602081905260409091205414610b0957604051637bfa4b9f60e01b815260040160405180910390fd5b6001600160a01b0381165f81815260016020819052604080832091909155513392917ff9ffabca9c8276e99321725bcb43fb076a6c66a54b7f21c4e8146d8519b417dc91a350565b335f9081526001602081905260409091205414610b8157604051637bfa4b9f60e01b815260040160405180910390fd5b335f818152600160205260408082208290555182917f787a2e12f4a55b658b8f573c32432ee11a5e8b51677d1e1e937aaf6a0bb5776e91a3565b5f6060805f805f6060610bcc6113c0565b610bd46113ed565b604080515f80825260208201909252600f60f81b9b939a50919850469750309650945092509050565b335f9081526001602081905260409091205414610c2d57604051637bfa4b9f60e01b815260040160405180910390fd5b6001600160a01b0381165f8181526002602052604080822060019055513392917ff1e04d73c4304b5ff164f9d10c7473e2a1593b740674a6107975e2a7001c1e5c91a350565b5f610c7d8261096b565b505f9081526007602052604090205490565b5f61084682610c9c610dfa565b6009546001600160a01b031661141a565b6109988161147c565b335f9081526001602081905260409091205414610ce657604051637bfa4b9f60e01b815260040160405180910390fd5b6001600160a01b0381165f81815260026020526040808220829055513392917ff7262ed0443cc211121ceb1a80d69004f319245615a7488f951f1437fd91642c91a350565b63bc197c8160e01b5b95945050505050565b5f54600203610d675760405162461bcd60e51b8152600401610d5e90613409565b60405180910390fd5b60025f8181553381526020919091526040902054600114610d9b57604051631f0853c160e21b815260040160405180910390fd5b60055460ff1615610dbf576040516313d0ff5960e31b815260040160405180910390fd5b610dca828233611521565b505060015f55565b80610ddc83610c73565b14610a955760405163337c310560e11b815260040160405180910390fd5b6009546040805163530ca43760e11b815290515f926001600160a01b03169163a619486e9160048083019260209291908290030181865afa158015610893573d5f803e3d5ffd5b610e608160400151826020015184846101800151856101600151611579565b610a9557604051638baa579f60e01b815260040160405180910390fd5b5f6108467fa852566c4e14d00869b6db0220888a9090a13eccdaea03713ff0a3d27bf9767c835f015184602001518560400151866060015187608001518860a001518960c001518a60e001518b61010001518c61012001518d61014001518e6101600151604051602001610efd9d9c9b9a99989796959493929190613455565b604051602081830303815290604052805190602001206115d6565b5f54600203610f395760405162461bcd60e51b8152600401610d5e90613409565b60025f8181553381526020919091526040902054600114610f6d57604051631f0853c160e21b815260040160405180910390fd5b60055460ff1615610f91576040516313d0ff5960e31b815260040160405180910390fd5b610f9d84848484611602565b505060015f555050565b5f61084682610fb461084c565b6008546001600160a01b031661179b565b80515f5b81811015610ad457610ff3838281518110610fe657610fe66134e7565b602002602001015161147c565b600101610fc9565b335f908152600160208190526040909120541461102b57604051637bfa4b9f60e01b815260040160405180910390fd5b610998816117e9565b5f546002036110555760405162461bcd60e51b8152600401610d5e90613409565b60025f818155338152602091909152604090205460011461108957604051631f0853c160e21b815260040160405180910390fd5b60055460ff16156110ad576040516313d0ff5960e31b815260040160405180910390fd5b610dca828233611844565b6005805460ff1916600117905560405133907f203c4bd3e526634f661575359ff30de3b0edaba6c2cb1eac60f730b6d2d9d536905f90a2565b6009546040516001600160a01b038084169216907f9726d7faf7429d6b059560dc858ed769377ccdf8b7541eabe12b22548719831f905f90a3600980546001600160a01b0319166001600160a01b0392909216919091179055565b6005805460ff1916905560405133907fa1e8a54850dbd7f520bcc09f47bff152294b77b2081da545a7adf531b7ea283b905f90a2565b335f9081526006602052604090205461119c90829061350f565b335f9081526006602052604090205550565b5f8160e001511180156111c45750428160e00151105b156111e2576040516362b439dd60e11b815260040160405180910390fd5b6111ec8282610e41565b6103e881610120015111156112145760405163cd4e616760e01b815260040160405180910390fd5b611221816080015161096b565b5f828152600a602052604090205460ff161561125057604051633d9c5bb760e11b815260040160405180910390fd5b61127c81602001518261010001516001600160a01b03919091165f908152600660205260409020541490565b610a9557604051633ab3447f60e11b815260040160405180910390fd5b818314806112ad57508215806112ad575081155b156112cb576040516307ed98ed60e31b815260040160405180910390fd5b5f838152600760205260409020541515806112f257505f8281526007602052604090205415155b1561131057604051630ea075bf60e21b815260040160405180910390fd5b60408051808201825283815260208082018481525f87815260078084528582209451855591516001948501558451808601865288815280840187815288835292909352848120925183559051919092015590518291849186917fbc9a2432e8aeb48327246cddd6e872ef452812b4243c04e6bfb786a2cd8faf0d91a48083837fbc9a2432e8aeb48327246cddd6e872ef452812b4243c04e6bfb786a2cd8faf0d60405160405180910390a4505050565b60606108b77f00000000000000000000000000000000000000000000000000000000000000006003611942565b60606108b77f00000000000000000000000000000000000000000000000000000000000000006004611942565b5f80611425846119eb565b8051906020012090505f8560405160200161144f91906001600160a01b0391909116815260200190565b604051602081830303815290604052805190602001209050611472848383611a51565b9695505050505050565b60208101516001600160a01b031633146114a9576040516330cd747160e01b815260040160405180910390fd5b5f6114b382610e7d565b5f818152600a6020526040902080549192509060ff16156114e757604051633d9c5bb760e11b815260040160405180910390fd5b805460ff1916600117815560405182907f5152abf959f6564662358c2e52b702259b78bac5ee7842a0f01937e670efcc7d905f90a2505050565b82515f5b818110156115725761156a858281518110611542576115426134e7565b602002602001015185838151811061155c5761155c6134e7565b602002602001015185611844565b600101611525565b5050505050565b5f8082600281111561158d5761158d61342d565b036115a55761159e86868686611a8f565b9050610d34565b60028260028111156115b9576115b961342d565b036115ca5761159e86868686611ac2565b61159e86868686611afb565b5f6108466115e2611b21565b8360405161190160f01b8152600281019290925260228201526042902090565b815f8061160f8784611c4a565b915091505f8061161e89611c96565b915091506116328960200151308488611cca565b61163d898988611cf3565b6116478482611d44565b6101208a01519094505f9061168890828c6101400151600181111561166e5761166e61342d565b14611679578761167b565b865b88888e6101400151611d72565b90506116a5308b602001518484896116a09190613522565b611cca565b6116b130338484611e5e565b5f6116bb84611eba565b905080156116d3576116d3308c602001518684611cca565b60208b810151604080518781529283018690528201899052606082018890526080820184905230916001600160a01b039091169087907fd0a08e8c493f9c94f29311604c9de1b4e8c8d4c06bd0c789af57f2d65bfec0f69060a00160405180910390a46020808c0151604080518781529283018690528201899052606082018890526001600160a01b03169086907f63bf4d16b7fa898ef4c4b2b6d90fd201e9c56313b65638af6088d149d2ce956c9060800160405180910390a35050505050505050505050565b6040516bffffffffffffffffffffffff19606085901b1660208201525f906117df908390859060340160405160208183030381529060405280519060200120611f9a565b90505b9392505050565b6008546040516001600160a01b038084169216907f3053c6252a932554235c173caffc1913604dba3a41cee89516f631c4a1a50a37905f90a3600880546001600160a01b0319166001600160a01b0392909216919091179055565b815f806118518684611c4a565b61012088015191935091505f9061189d90825b896101400151600181111561187b5761187b61342d565b146118865785611888565b845b8960a001518a60c001518b6101400151611d72565b90505f806118aa89611c96565b915091506118c4338a602001518386896116a09190613522565b6118d48960200151888489611cca565b602089810151604080518581529283018490528201889052606082018790526080820185905233916001600160a01b039091169086907fd0a08e8c493f9c94f29311604c9de1b4e8c8d4c06bd0c789af57f2d65bfec0f69060a00160405180910390a4505050505050505050565b606060ff831461195c5761195583611fed565b9050610846565b81805461196890613535565b80601f016020809104026020016040519081016040528092919081815260200182805461199490613535565b80156119df5780601f106119b6576101008083540402835291602001916119df565b820191905f5260205f20905b8154815290600101906020018083116119c257829003601f168201915b50505050509050610846565b6060604051806101a00160405280610171815260200161366f6101719139604080516001600160a01b03851660208201520160408051601f1981840301815290829052611a3b9291602001613584565b6040516020818303038152906040529050919050565b5f8060ff60f81b858486604051602001611a6e9493929190613598565b60408051808303601f19018152919052805160209091012095945050505050565b5f836001600160a01b0316856001600160a01b0316148015611ab75750611ab785848461202a565b90505b949350505050565b5f611ace85848461202a565b8015611ab75750836001600160a01b0316611ae886610c8f565b6001600160a01b03161495945050505050565b5f611b0785848461202a565b8015611ab75750836001600160a01b0316611ae886610fa7565b5f306001600160a01b037f000000000000000000000000000000000000000000000000000000000000000016148015611b7957507f000000000000000000000000000000000000000000000000000000000000000046145b15611ba357507f000000000000000000000000000000000000000000000000000000000000000090565b6108b7604080517f8b73c3c69bb8fe3d512ecc4cf759cc79239f7b179b0ffacaa9a75d522b39400f60208201527f0000000000000000000000000000000000000000000000000000000000000000918101919091527f000000000000000000000000000000000000000000000000000000000000000060608201524660808201523060a08201525f9060c00160405160208183030381529060405280519060200120905090565b5f80611c598460600151612051565b611c6284610e7d565b9050611c6e81856111ae565b611c81838560a001518660c00151612090565b9150611c8e8185856120b4565b509250929050565b5f80808361014001516001811115611cb057611cb061342d565b03611cbf575050608001515f91565b505060800151905f90565b815f03611ce157611cdc848483612128565b611ced565b611ced84848484612170565b50505050565b81515f5b8181101561157257611d3c85858381518110611d1557611d156134e7565b6020026020010151858481518110611d2f57611d2f6134e7565b602002602001015161219d565b600101611cf7565b5f80611d4f83611eba565b9050838110156117e2576040516301be9b0160e71b815260040160405180910390fd5b5f8515610d34575f611d85858585612271565b90505f81118015611d9e5750670de0b6b3a76400008111155b15611e54575f836001811115611db657611db661342d565b03611e0857611dc7612710826135d1565b86611de383611dde81670de0b6b3a7640000613522565b6122db565b611ded908a6135d1565b611df791906135d1565b611e0191906135e8565b9150611e54565b611e1c670de0b6b3a76400006127106135d1565b86611e3383611dde81670de0b6b3a7640000613522565b611e3d908a6135d1565b611e4791906135d1565b611e5191906135e8565b91505b5095945050505050565b8015611ced57611e7084848484611cca565b60408051838152602081018390526001600160a01b038516917facffcc86834d0f1a64b0d5a675798deed6ff0bcfc2231edd3480e7288dba7ff4910160405180910390a250505050565b5f815f03611f49576040516370a0823160e01b81523060048201526001600160a01b037f000000000000000000000000000000000000000000000000000000000000000016906370a08231906024015b602060405180830381865afa158015611f25573d5f803e3d5ffd5b505050506040513d601f19601f820116820180604052508101906108469190613607565b604051627eeac760e11b8152306004820152602481018390526001600160a01b037f0000000000000000000000000000000000000000000000000000000000000000169062fdd58e90604401611f0a565b5f80611fa685856122f0565b8051906020012090505f60ff60f81b868584604051602001611fcb9493929190613598565b60408051808303601f1901815291905280516020909101209695505050505050565b60605f611ff983612405565b6040805160208082528183019092529192505f91906020820181803683375050509182525060208101929092525090565b5f836001600160a01b031661203f848461242c565b6001600160a01b031614949350505050565b6001600160a01b0381161580159061207257506001600160a01b0381163314155b1561099857604051635211a07960e01b815260040160405180910390fd5b5f825f0361209f57505f6117e2565b826120aa83866135d1565b6117df91906135e8565b5f838152600a6020526040902060018101549081156120d357816120d9565b8360a001515b9150818311156120fc57604051637166356b60e11b815260040160405180910390fd5b6121068383613522565b9150815f0361211b57805460ff191660011781555b6001018190559392505050565b7f0000000000000000000000000000000000000000000000000000000000000000306001600160a01b0385160361216457611cdc818484612454565b611ced8185858561245f565b611ced7f00000000000000000000000000000000000000000000000000000000000000008585858561246b565b5f6121a884846124eb565b90506121b5848483612584565b815f806121c28684611c4a565b61012088015191935091505f906121d99082611864565b90505f806121e689611c96565b915091506121fd86868b6020015185858c896125fd565b6020808b01518a82015160408051868152938401859052830189905260608301889052608083018690526001600160a01b039182169291169086907fd0a08e8c493f9c94f29311604c9de1b4e8c8d4c06bd0c789af57f2d65bfec0f69060a00160405180910390a450505050505050505050565b5f808260018111156122855761228561342d565b036122bb57825f03612297575f6122b4565b826122aa670de0b6b3a7640000866135d1565b6122b491906135e8565b90506117e2565b835f036122c8575f6117df565b836120aa670de0b6b3a7640000856135d1565b5f8183106122e957816117e2565b5090919050565b604080515f8082526020820190925260609190612310906044810161361e565b60408051601f19818403018152918152602080830180516001600160e01b03166352e831dd60e01b1790528151606380825260a082019093529293505f929190820181803683370190505090507f3d3d606380380380913d393d73bebebebebebebebebebebebebebebebebebebe6020820152600160601b8502602d8201527f5af4602a57600080fd5b602d8060366000396000f3363d3d373d3d3d363d73be6041820152600160601b840260608201526e5af43d82803e903d91602b57fd5bf360881b607482015280826040516020016123ec929190613584565b6040516020818303038152906040529250505092915050565b5f60ff8216601f81111561084657604051632cd44ac360e21b815260040160405180910390fd5b5f805f8061243a8686612664565b92509250925061244a82826126ad565b5090949350505050565b610ad4838383612765565b611ced848484846127e2565b604051637921219560e11b81526001600160a01b0385811660048301528481166024830152604482018490526064820183905260a060848301525f60a483015286169063f242432a9060c4015f604051808303815f87803b1580156124ce575f80fd5b505af11580156124e0573d5f803e3d5ffd5b505050505050505050565b5f8083610140015160018111156125045761250461342d565b14801561252657505f82610140015160018111156125245761252461342d565b145b1561253357506001610846565b6001836101400151600181111561254c5761254c61342d565b14801561256f57506001826101400151600181111561256d5761256d61342d565b145b1561257c57506002610846565b505f92915050565b61258e8383612873565b6125ab57604051633fcd37a360e11b815260040160405180910390fd5b5f8160028111156125be576125be61342d565b036125eb578160800151836080015114610ad45760405163a0b9446560e01b815260040160405180910390fd5b610ad483608001518360800151610dd2565b6126098530868a611cca565b61261687878686866128bb565b8561262084611eba565b101561263f576040516301be9b0160e71b815260040160405180910390fd5b61264f3086856116a0858b613522565b61265b30338584611e5e565b50505050505050565b5f805f835160410361269b576020840151604085015160608601515f1a61268d88828585612940565b9550955095505050506126a6565b505081515f91506002905b9250925092565b5f8260038111156126c0576126c061342d565b036126c9575050565b60018260038111156126dd576126dd61342d565b036126fb5760405163f645eedf60e01b815260040160405180910390fd5b600282600381111561270f5761270f61342d565b036127305760405163fce698f760e01b815260048101829052602401610d5e565b60038260038111156127445761274461342d565b03610a95576040516335e2f38360e21b815260048101829052602401610d5e565b5f60405163a9059cbb60e01b81526001600160a01b038416600482015282602482015260205f6044835f895af13d15601f3d1160015f511416171691505080611ced5760405162461bcd60e51b815260206004820152600f60248201526e1514905394d1915497d19052531151608a1b6044820152606401610d5e565b5f6040516323b872dd60e01b81526001600160a01b03851660048201526001600160a01b038416602482015282604482015260205f6064835f8a5af13d15601f3d1160015f5114161716915050806115725760405162461bcd60e51b81526020600482015260146024820152731514905394d1915497d19493d357d1905253115160621b6044820152606401610d5e565b5f8260c001515f1480612888575060c0820151155b1561289557506001610846565b6117e26128a184612a08565b6128aa84612a08565b856101400151856101400151612a21565b5f8160028111156128ce576128ce61342d565b146115725760018160028111156128e7576128e761342d565b0361290c575f828152600760205260409020600101546129079085612ab8565b611572565b60028160028111156129205761292061342d565b03611572575f838152600760205260409020600101546129079086612bbb565b5f80807f7fffffffffffffffffffffffffffffff5d576e7357a4501ddfe92f46681b20a084111561297957505f915060039050826129fe565b604080515f808252602082018084528a905260ff891692820192909252606081018790526080810186905260019060a0016020604051602081039080840390855afa1580156129ca573d5f803e3d5ffd5b5050604051601f1901519150506001600160a01b0381166129f557505f9250600191508290506129fe565b92505f91508190505b9450945094915050565b5f6108468260a001518360c00151846101400151612271565b5f80836001811115612a3557612a3561342d565b03612a78575f826001811115612a4d57612a4d61342d565b03612a6e57670de0b6b3a7640000612a65858761350f565b10159050611aba565b5082841015611aba565b5f826001811115612a8b57612a8b61342d565b03612a9a575083831015611aba565b670de0b6b3a7640000612aad858761350f565b111595945050505050565b6040805160028082526060820183525f926020830190803683370190505090506001815f81518110612aec57612aec6134e7565b602002602001018181525050600281600181518110612b0d57612b0d6134e7565b60209081029190910101527f00000000000000000000000000000000000000000000000000000000000000006001600160a01b03166372ce42757f00000000000000000000000000000000000000000000000000000000000000005b6040516001600160e01b031960e084901b168152612b9291905f90889087908990600401613630565b5f604051808303815f87803b158015612ba9575f80fd5b505af115801561265b573d5f803e3d5ffd5b6040805160028082526060820183525f926020830190803683370190505090506001815f81518110612bef57612bef6134e7565b602002602001018181525050600281600181518110612c1057612c106134e7565b60209081029190910101527f00000000000000000000000000000000000000000000000000000000000000006001600160a01b0316639e7212ad7f0000000000000000000000000000000000000000000000000000000000000000612b69565b5f60208284031215612c80575f80fd5b81356001600160e01b0319811681146117e2575f80fd5b6001600160a01b0381168114610998575f80fd5b8035612cb681612c97565b919050565b5f8060408385031215612ccc575f80fd5b8235612cd781612c97565b946020939093013593505050565b5f60208284031215612cf5575f80fd5b81356117e281612c97565b5f60208284031215612d10575f80fd5b5035919050565b634e487b7160e01b5f52604160045260245ffd5b6040516101a081016001600160401b0381118282101715612d4e57612d4e612d17565b60405290565b604051601f8201601f191681016001600160401b0381118282101715612d7c57612d7c612d17565b604052919050565b803560028110612cb6575f80fd5b803560038110612cb6575f80fd5b5f82601f830112612daf575f80fd5b81356001600160401b03811115612dc857612dc8612d17565b612ddb601f8201601f1916602001612d54565b818152846020838601011115612def575f80fd5b816020850160208301375f918101602001919091529392505050565b5f6101a08284031215612e1c575f80fd5b612e24612d2b565b823581529050612e3660208301612cab565b6020820152612e4760408301612cab565b6040820152612e5860608301612cab565b60608201526080828101359082015260a0808301359082015260c0808301359082015260e0808301359082015261010080830135908201526101208083013590820152612ea86101408301612d84565b610140820152612ebb6101608301612d92565b6101608201526101808201356001600160401b03811115612eda575f80fd5b612ee684828501612da0565b6101808301525092915050565b5f60208284031215612f03575f80fd5b81356001600160401b03811115612f18575f80fd5b611aba84828501612e0b565b5f805f60608486031215612f36575f80fd5b505081359360208301359350604090920135919050565b5f81518084528060208401602086015e5f602082860101526020601f19601f83011685010191505092915050565b5f8151808452602084019350602083015f5b82811015612fab578151865260209586019590910190600101612f8d565b5093949350505050565b60ff60f81b8816815260e060208201525f612fd360e0830189612f4d565b8281036040840152612fe58189612f4d565b606084018890526001600160a01b038716608085015260a0840186905283810360c085015290506130168185612f7b565b9a9950505050505050505050565b5f6001600160401b0382111561303c5761303c612d17565b5060051b60200190565b5f82601f830112613055575f80fd5b813561306861306382613024565b612d54565b8082825260208201915060208360051b860101925085831115613089575f80fd5b602085015b83811015611e5457803583526020928301920161308e565b5f805f805f60a086880312156130ba575f80fd5b85356130c581612c97565b945060208601356130d581612c97565b935060408601356001600160401b038111156130ef575f80fd5b6130fb88828901613046565b93505060608601356001600160401b03811115613116575f80fd5b61312288828901613046565b92505060808601356001600160401b0381111561313d575f80fd5b61314988828901612da0565b9150509295509295909350565b5f82601f830112613165575f80fd5b813561317361306382613024565b8082825260208201915060208360051b860101925085831115613194575f80fd5b602085015b83811015611e545780356001600160401b038111156131b6575f80fd5b6131c5886020838a0101612e0b565b84525060209283019201613199565b5f80604083850312156131e5575f80fd5b82356001600160401b038111156131fa575f80fd5b61320685828601613156565b92505060208301356001600160401b03811115613221575f80fd5b61322d85828601613046565b9150509250929050565b5f8060408385031215613248575f80fd5b50508035926020909101359150565b5f8060408385031215613268575f80fd5b8235915060208301356001600160401b03811115613284575f80fd5b61322d85828601612e0b565b5f805f80608085870312156132a3575f80fd5b84356001600160401b038111156132b8575f80fd5b6132c487828801612e0b565b94505060208501356001600160401b038111156132df575f80fd5b6132eb87828801613156565b9350506040850135915060608501356001600160401b0381111561330d575f80fd5b61331987828801613046565b91505092959194509250565b5f805f805f60a08688031215613339575f80fd5b853561334481612c97565b9450602086013561335481612c97565b9350604086013592506060860135915060808601356001600160401b0381111561313d575f80fd5b5f6020828403121561338c575f80fd5b81356001600160401b038111156133a1575f80fd5b611aba84828501613156565b5f80604083850312156133be575f80fd5b82356001600160401b038111156133d3575f80fd5b6133df85828601612e0b565b95602094909401359450505050565b5f602082840312156133fe575f80fd5b81516117e281612c97565b6020808252600a90820152695245454e5452414e435960b01b604082015260600190565b634e487b7160e01b5f52602160045260245ffd5b600381106134515761345161342d565b9052565b8d8152602081018d90526001600160a01b038c811660408301528b811660608301528a16608082015260a0810189905260c0810188905260e081018790526101008101869052610120810185905261014081018490526101a08101600284106134c0576134c061342d565b836101608301526134d5610180830184613441565b9e9d5050505050505050505050505050565b634e487b7160e01b5f52603260045260245ffd5b634e487b7160e01b5f52601160045260245ffd5b80820180821115610846576108466134fb565b81810381811115610846576108466134fb565b600181811c9082168061354957607f821691505b60208210810361356757634e487b7160e01b5f52602260045260245ffd5b50919050565b5f81518060208401855e5f93019283525090919050565b5f6117df613592838661356d565b8461356d565b6001600160f81b031994909416845260609290921b6bffffffffffffffffffffffff191660018401526015830152603582015260550190565b8082028115828204841417610846576108466134fb565b5f8261360257634e487b7160e01b5f52601260045260245ffd5b500490565b5f60208284031215613617575f80fd5b5051919050565b602081525f6117e26020830184612f4d565b60018060a01b038616815284602082015283604082015260a060608201525f61365c60a0830185612f7b565b9050826080830152969550505050505056fe608060405234801561001057600080fd5b5060405161017138038061017183398101604081905261002f916100b9565b6001600160a01b0381166100945760405162461bcd60e51b815260206004820152602260248201527f496e76616c69642073696e676c65746f6e20616464726573732070726f766964604482015261195960f21b606482015260840160405180910390fd5b600080546001600160a01b0319166001600160a01b03929092169190911790556100e7565b6000602082840312156100ca578081fd5b81516001600160a01b03811681146100e0578182fd5b9392505050565b607c806100f56000396000f3fe6080604052600080546001600160a01b0316813563530ca43760e11b1415602857808252602082f35b3682833781823684845af490503d82833e806041573d82fd5b503d81f3fea264697066735822122015938e3bf2c49f5df5c1b7f9569fa85cc5d6f3074bb258a2dc0c7e299bc9e33664736f6c63430008040033a2646970667358221220d401396792b515bc17c2728a1a88c0b8f067bc9544b8856400dc68a671c59cbb64736f6c634300081a00338b73c3c69bb8fe3d512ecc4cf759cc79239f7b179b0ffacaa9a75d522b39400f",
			"opcodes": "PUSH2 0x1C0 PUSH1 0x40 MSTORE PUSH1 0x1 PUSH0 SSTORE PUSH1 0x5 DUP1 SLOAD PUSH1 0xFF NOT AND SWAP1 SSTORE CALLVALUE DUP1 ISZERO PUSH2 0x1E JUMPI PUSH0 DUP1 REVERT JUMPDEST POP PUSH1 0x40 MLOAD PUSH2 0x3E35 CODESIZE SUB DUP1 PUSH2 0x3E35 DUP4 CODECOPY DUP2 ADD PUSH1 0x40 DUP2 SWAP1 MSTORE PUSH2 0x3D SWAP2 PUSH2 0x338 JUMP JUMPDEST PUSH1 0x40 DUP1 MLOAD DUP1 DUP3 ADD DUP3 MSTORE PUSH1 0x17 DUP2 MSTORE PUSH32 0x506F6C796D61726B6574204354462045786368616E6765000000000000000000 PUSH1 0x20 DUP1 DUP4 ADD SWAP2 SWAP1 SWAP2 MSTORE DUP3 MLOAD DUP1 DUP5 ADD DUP5 MSTORE PUSH1 0x1 DUP1 DUP3 MSTORE PUSH1 0x31 PUSH1 0xF8 SHL DUP3 DUP5 ADD MSTORE CALLER PUSH0 SWAP1 DUP2 MSTORE DUP2 DUP5 MSTORE DUP6 DUP2 KECCAK256 DUP3 SWAP1 SSTORE PUSH1 0x2 SWAP1 SWAP4 MSTORE SWAP4 SWAP1 SWAP2 KECCAK256 SWAP3 SWAP1 SWAP3 SSTORE DUP4 SWAP2 DUP4 SWAP2 DUP4 SWAP2 DUP4 SWAP2 SWAP1 DUP10 DUP10 DUP4 DUP4 PUSH2 0xBC DUP3 PUSH1 0x3 PUSH2 0x216 JUMP JUMPDEST PUSH2 0x120 MSTORE PUSH2 0xCB DUP2 PUSH1 0x4 PUSH2 0x216 JUMP JUMPDEST PUSH2 0x140 MSTORE DUP2 MLOAD PUSH1 0x20 DUP1 DUP5 ADD SWAP2 SWAP1 SWAP2 KECCAK256 PUSH1 0xE0 MSTORE DUP2 MLOAD SWAP1 DUP3 ADD KECCAK256 PUSH2 0x100 MSTORE CHAINID PUSH1 0xA0 MSTORE PUSH2 0x144 PUSH1 0xE0 MLOAD PUSH2 0x100 MLOAD PUSH1 0x40 DUP1 MLOAD PUSH0 DUP1 MLOAD PUSH1 0x20 PUSH2 0x3E15 DUP4 CODECOPY DUP2 MLOAD SWAP2 MSTORE PUSH1 0x20 DUP3 ADD MSTORE SWAP1 DUP2 ADD SWAP3 SWAP1 SWAP3 MSTORE PUSH1 0x60 DUP3 ADD MSTORE CHAINID PUSH1 0x80 DUP3 ADD MSTORE ADDRESS PUSH1 0xA0 DUP3 ADD MSTORE PUSH0 SWAP1 PUSH1 0xC0 ADD PUSH1 0x40 MLOAD PUSH1 0x20 DUP2 DUP4 SUB SUB DUP2 MSTORE SWAP1 PUSH1 0x40 MSTORE DUP1 MLOAD SWAP1 PUSH1 0x20 ADD KECCAK256 SWAP1 POP SWAP1 JUMP JUMPDEST PUSH1 0x80 MSTORE POP POP ADDRESS PUSH1 0xC0 MSTORE PUSH1 0x1 PUSH1 0x1 PUSH1 0xA0 SHL SUB DUP3 DUP2 AND PUSH2 0x160 DUP2 SWAP1 MSTORE SWAP1 DUP3 AND PUSH2 0x180 DUP2 SWAP1 MSTORE PUSH1 0x40 MLOAD PUSH4 0x95EA7B3 PUSH1 0xE0 SHL DUP2 MSTORE PUSH1 0x4 DUP2 ADD SWAP2 SWAP1 SWAP2 MSTORE PUSH0 NOT PUSH1 0x24 DUP3 ADD MSTORE PUSH4 0x95EA7B3 SWAP1 PUSH1 0x44 ADD PUSH1 0x20 PUSH1 0x40 MLOAD DUP1 DUP4 SUB DUP2 PUSH0 DUP8 GAS CALL ISZERO DUP1 ISZERO PUSH2 0x1A8 JUMPI RETURNDATASIZE PUSH0 DUP1 RETURNDATACOPY RETURNDATASIZE PUSH0 REVERT JUMPDEST POP POP POP POP PUSH1 0x40 MLOAD RETURNDATASIZE PUSH1 0x1F NOT PUSH1 0x1F DUP3 ADD AND DUP3 ADD DUP1 PUSH1 0x40 MSTORE POP DUP2 ADD SWAP1 PUSH2 0x1CC SWAP2 SWAP1 PUSH2 0x389 JUMP JUMPDEST POP PUSH2 0x1D8 SWAP2 POP POP PUSH2 0x248 JUMP JUMPDEST PUSH2 0x1A0 MSTORE POP POP PUSH1 0x8 DUP1 SLOAD PUSH1 0x1 PUSH1 0x1 PUSH1 0xA0 SHL SUB SWAP4 DUP5 AND PUSH1 0x1 PUSH1 0x1 PUSH1 0xA0 SHL SUB NOT SWAP2 DUP3 AND OR SWAP1 SWAP2 SSTORE PUSH1 0x9 DUP1 SLOAD SWAP3 SWAP1 SWAP4 AND SWAP2 AND OR SWAP1 SSTORE POP PUSH2 0x559 SWAP5 POP POP POP POP POP JUMP JUMPDEST PUSH0 PUSH1 0x20 DUP4 MLOAD LT ISZERO PUSH2 0x231 JUMPI PUSH2 0x22A DUP4 PUSH2 0x2D7 JUMP JUMPDEST SWAP1 POP PUSH2 0x242 JUMP JUMPDEST DUP2 PUSH2 0x23C DUP5 DUP3 PUSH2 0x447 JUMP JUMPDEST POP PUSH1 0xFF SWAP1 POP JUMPDEST SWAP3 SWAP2 POP POP JUMP JUMPDEST PUSH0 PUSH1 0xC0 MLOAD PUSH1 0x1 PUSH1 0x1 PUSH1 0xA0 SHL SUB AND ADDRESS PUSH1 0x1 PUSH1 0x1 PUSH1 0xA0 SHL SUB AND EQ DUP1 ISZERO PUSH2 0x26D JUMPI POP PUSH1 0xA0 MLOAD CHAINID EQ JUMPDEST ISZERO PUSH2 0x279 JUMPI POP PUSH1 0x80 MLOAD SWAP1 JUMP JUMPDEST PUSH2 0x2D2 PUSH1 0xE0 MLOAD PUSH2 0x100 MLOAD PUSH1 0x40 DUP1 MLOAD PUSH0 DUP1 MLOAD PUSH1 0x20 PUSH2 0x3E15 DUP4 CODECOPY DUP2 MLOAD SWAP2 MSTORE PUSH1 0x20 DUP3 ADD MSTORE SWAP1 DUP2 ADD SWAP3 SWAP1 SWAP3 MSTORE PUSH1 0x60 DUP3 ADD MSTORE CHAINID PUSH1 0x80 DUP3 ADD MSTORE ADDRESS PUSH1 0xA0 DUP3 ADD MSTORE PUSH0 SWAP1 PUSH1 0xC0 ADD PUSH1 0x40 MLOAD PUSH1 0x20 DUP2 DUP4 SUB SUB DUP2 MSTORE SWAP1 PUSH1 0x40 MSTORE DUP1 MLOAD SWAP1 PUSH1 0x20 ADD KECCAK256 SWAP1 POP SWAP1 JUMP JUMPDEST SWAP1 POP SWAP1 JUMP JUMPDEST PUSH0 DUP1 DUP3 SWAP1 POP PUSH1 0x1F DUP2 MLOAD GT ISZERO PUSH2 0x30A JUMPI DUP3 PUSH1 0x40 MLOAD PUSH4 0x305A27A9 PUSH1 0xE0 SHL DUP2 MSTORE PUSH1 0x4 ADD PUSH2 0x301 SWAP2 SWAP1 PUSH2 0x501 JUMP JUMPDEST PUSH1 0x40 MLOAD DUP1 SWAP2 SUB SWAP1 REVERT JUMPDEST DUP1 MLOAD PUSH2 0x315 DUP3 PUSH2 0x536 JUMP JUMPDEST OR SWAP4 SWAP3 POP POP POP JUMP JUMPDEST DUP1 MLOAD PUSH1 0x1 PUSH1 0x1 PUSH1 0xA0 SHL SUB DUP2 AND DUP2 EQ PUSH2 0x333 JUMPI PUSH0 DUP1 REVERT JUMPDEST SWAP2 SWAP1 POP JUMP JUMPDEST PUSH0 DUP1 PUSH0 DUP1 PUSH1 0x80 DUP6 DUP8 SUB SLT ISZERO PUSH2 0x34B JUMPI PUSH0 DUP1 REVERT JUMPDEST PUSH2 0x354 DUP6 PUSH2 0x31D JUMP JUMPDEST SWAP4 POP PUSH2 0x362 PUSH1 0x20 DUP7 ADD PUSH2 0x31D JUMP JUMPDEST SWAP3 POP PUSH2 0x370 PUSH1 0x40 DUP7 ADD PUSH2 0x31D JUMP JUMPDEST SWAP2 POP PUSH2 0x37E PUSH1 0x60 DUP7 ADD PUSH2 0x31D JUMP JUMPDEST SWAP1 POP SWAP3 SWAP6 SWAP2 SWAP5 POP SWAP3 POP JUMP JUMPDEST PUSH0 PUSH1 0x20 DUP3 DUP5 SUB SLT ISZERO PUSH2 0x399 JUMPI PUSH0 DUP1 REVERT JUMPDEST DUP2 MLOAD DUP1 ISZERO ISZERO DUP2 EQ PUSH2 0x3A8 JUMPI PUSH0 DUP1 REVERT JUMPDEST SWAP4 SWAP3 POP POP POP JUMP JUMPDEST PUSH4 0x4E487B71 PUSH1 0xE0 SHL PUSH0 MSTORE PUSH1 0x41 PUSH1 0x4 MSTORE PUSH1 0x24 PUSH0 REVERT JUMPDEST PUSH1 0x1 DUP2 DUP2 SHR SWAP1 DUP3 AND DUP1 PUSH2 0x3D7 JUMPI PUSH1 0x7F DUP3 AND SWAP2 POP JUMPDEST PUSH1 0x20 DUP3 LT DUP2 SUB PUSH2 0x3F5 JUMPI PUSH4 0x4E487B71 PUSH1 0xE0 SHL PUSH0 MSTORE PUSH1 0x22 PUSH1 0x4 MSTORE PUSH1 0x24 PUSH0 REVERT JUMPDEST POP SWAP2 SWAP1 POP JUMP JUMPDEST PUSH1 0x1F DUP3 GT ISZERO PUSH2 0x442 JUMPI DUP1 PUSH0 MSTORE PUSH1 0x20 PUSH0 KECCAK256 PUSH1 0x1F DUP5 ADD PUSH1 0x5 SHR DUP2 ADD PUSH1 0x20 DUP6 LT ISZERO PUSH2 0x420 JUMPI POP DUP1 JUMPDEST PUSH1 0x1F DUP5 ADD PUSH1 0x5 SHR DUP3 ADD SWAP2 POP JUMPDEST DUP2 DUP2 LT ISZERO PUSH2 0x43F JUMPI PUSH0 DUP2 SSTORE PUSH1 0x1 ADD PUSH2 0x42C JUMP JUMPDEST POP POP JUMPDEST POP POP POP JUMP JUMPDEST DUP2 MLOAD PUSH1 0x1 PUSH1 0x1 PUSH1 0x40 SHL SUB DUP2 GT ISZERO PUSH2 0x460 JUMPI PUSH2 0x460 PUSH2 0x3AF JUMP JUMPDEST PUSH2 0x474 DUP2 PUSH2 0x46E DUP5 SLOAD PUSH2 0x3C3 JUMP JUMPDEST DUP5 PUSH2 0x3FB JUMP JUMPDEST PUSH1 0x20 PUSH1 0x1F DUP3 GT PUSH1 0x1 DUP2 EQ PUSH2 0x4A6 JUMPI PUSH0 DUP4 ISZERO PUSH2 0x48F JUMPI POP DUP5 DUP3 ADD MLOAD JUMPDEST PUSH0 NOT PUSH1 0x3 DUP6 SWAP1 SHL SHR NOT AND PUSH1 0x1 DUP5 SWAP1 SHL OR DUP5 SSTORE PUSH2 0x43F JUMP JUMPDEST PUSH0 DUP5 DUP2 MSTORE PUSH1 0x20 DUP2 KECCAK256 PUSH1 0x1F NOT DUP6 AND SWAP2 JUMPDEST DUP3 DUP2 LT ISZERO PUSH2 0x4D5 JUMPI DUP8 DUP6 ADD MLOAD DUP3 SSTORE PUSH1 0x20 SWAP5 DUP6 ADD SWAP5 PUSH1 0x1 SWAP1 SWAP3 ADD SWAP2 ADD PUSH2 0x4B5 JUMP JUMPDEST POP DUP5 DUP3 LT ISZERO PUSH2 0x4F2 JUMPI DUP7 DUP5 ADD MLOAD PUSH0 NOT PUSH1 0x3 DUP8 SWAP1 SHL PUSH1 0xF8 AND SHR NOT AND DUP2 SSTORE JUMPDEST POP POP POP POP PUSH1 0x1 SWAP1 DUP2 SHL ADD SWAP1 SSTORE POP JUMP JUMPDEST PUSH1 0x20 DUP2 MSTORE PUSH0 DUP3 MLOAD DUP1 PUSH1 0x20 DUP5 ADD MSTORE DUP1 PUSH1 0x20 DUP6 ADD PUSH1 0x40 DUP6 ADD MCOPY PUSH0 PUSH1 0x40 DUP3 DUP6 ADD ADD MSTORE PUSH1 0x40 PUSH1 0x1F NOT PUSH1 0x1F DUP4 ADD AND DUP5 ADD ADD SWAP2 POP POP SWAP3 SWAP2 POP POP JUMP JUMPDEST DUP1 MLOAD PUSH1 0x20 DUP1 DUP4 ADD MLOAD SWAP2 SWAP1 DUP2 LT ISZERO PUSH2 0x3F5 JUMPI PUSH0 NOT PUSH1 0x20 SWAP2 SWAP1 SWAP2 SUB PUSH1 0x3 SHL SHL AND SWAP2 SWAP1 POP JUMP JUMPDEST PUSH1 0x80 MLOAD PUSH1 0xA0 MLOAD PUSH1 0xC0 MLOAD PUSH1 0xE0 MLOAD PUSH2 0x100 MLOAD PUSH2 0x120 MLOAD PUSH2 0x140 MLOAD PUSH2 0x160 MLOAD PUSH2 0x180 MLOAD PUSH2 0x1A0 MLOAD PUSH2 0x3815 PUSH2 0x600 PUSH0 CODECOPY PUSH0 PUSH2 0x7BB ADD MSTORE PUSH0 DUP2 DUP2 PUSH2 0x43E ADD MSTORE DUP2 DUP2 PUSH2 0x1F6C ADD MSTORE DUP2 DUP2 PUSH2 0x2175 ADD MSTORE DUP2 DUP2 PUSH2 0x2B1A ADD MSTORE PUSH2 0x2C1D ADD MSTORE PUSH0 DUP2 DUP2 PUSH2 0x55C ADD MSTORE DUP2 DUP2 PUSH2 0x1EDF ADD MSTORE DUP2 DUP2 PUSH2 0x212A ADD MSTORE DUP2 DUP2 PUSH2 0x2B49 ADD MSTORE PUSH2 0x2C4C ADD MSTORE PUSH0 PUSH2 0x13F4 ADD MSTORE PUSH0 PUSH2 0x13C7 ADD MSTORE PUSH0 PUSH2 0x1BFA ADD MSTORE PUSH0 PUSH2 0x1BD2 ADD MSTORE PUSH0 PUSH2 0x1B2D ADD MSTORE PUSH0 PUSH2 0x1B57 ADD MSTORE PUSH0 PUSH2 0x1B81 ADD MSTORE PUSH2 0x3815 PUSH0 RETURN INVALID PUSH1 0x80 PUSH1 0x40 MSTORE CALLVALUE DUP1 ISZERO PUSH2 0xF JUMPI PUSH0 DUP1 REVERT JUMPDEST POP PUSH1 0x4 CALLDATASIZE LT PUSH2 0x2E5 JUMPI PUSH0 CALLDATALOAD PUSH1 0xE0 SHR DUP1 PUSH4 0x70480275 GT PUSH2 0x195 JUMPI DUP1 PUSH4 0xD798EFF6 GT PUSH2 0xE4 JUMPI DUP1 PUSH4 0xE60F0C05 GT PUSH2 0x9E JUMPI DUP1 PUSH4 0xF698DA25 GT PUSH2 0x79 JUMPI DUP1 PUSH4 0xF698DA25 EQ PUSH2 0x7B6 JUMPI DUP1 PUSH4 0xFA950B48 EQ PUSH2 0x7DD JUMPI DUP1 PUSH4 0xFBDDD751 EQ PUSH2 0x7F0 JUMPI DUP1 PUSH4 0xFE729AAF EQ PUSH2 0x803 JUMPI PUSH0 DUP1 REVERT JUMPDEST DUP1 PUSH4 0xE60F0C05 EQ PUSH2 0x771 JUMPI DUP1 PUSH4 0xEDEF7D8E EQ PUSH2 0x784 JUMPI DUP1 PUSH4 0xF23A6E61 EQ PUSH2 0x797 JUMPI PUSH0 DUP1 REVERT JUMPDEST DUP1 PUSH4 0xD798EFF6 EQ PUSH2 0x6FB JUMPI DUP1 PUSH4 0xD7FB272F EQ PUSH2 0x70E JUMPI DUP1 PUSH4 0xD82DA838 EQ PUSH2 0x730 JUMPI DUP1 PUSH4 0xE03AC3D0 EQ PUSH2 0x743 JUMPI DUP1 PUSH4 0xE2EEC405 EQ PUSH2 0x74B JUMPI DUP1 PUSH4 0xE50E4F97 EQ PUSH2 0x75E JUMPI PUSH0 DUP1 REVERT JUMPDEST DUP1 PUSH4 0xA10F3DCE GT PUSH2 0x14F JUMPI DUP1 PUSH4 0xAC8A584A GT PUSH2 0x12A JUMPI DUP1 PUSH4 0xAC8A584A EQ PUSH2 0x698 JUMPI DUP1 PUSH4 0xB28C51C0 EQ PUSH2 0x6AB JUMPI DUP1 PUSH4 0xBC197C81 EQ PUSH2 0x6BC JUMPI DUP1 PUSH4 0xC10F1A75 EQ PUSH2 0x6E8 JUMPI PUSH0 DUP1 REVERT JUMPDEST DUP1 PUSH4 0xA10F3DCE EQ PUSH2 0x65F JUMPI DUP1 PUSH4 0xA287BDF1 EQ PUSH2 0x672 JUMPI DUP1 PUSH4 0xA6DFCF86 EQ PUSH2 0x685 JUMPI PUSH0 DUP1 REVERT JUMPDEST DUP1 PUSH4 0x70480275 EQ PUSH2 0x5E6 JUMPI DUP1 PUSH4 0x75D7370A EQ PUSH2 0x5F9 JUMPI DUP1 PUSH4 0x7ECEBE00 EQ PUSH2 0x60A JUMPI DUP1 PUSH4 0x83B8A5AE EQ PUSH2 0x629 JUMPI DUP1 PUSH4 0x84B0196E EQ PUSH2 0x631 JUMPI DUP1 PUSH4 0x9870D7FE EQ PUSH2 0x64C JUMPI PUSH0 DUP1 REVERT JUMPDEST DUP1 PUSH4 0x429B62E5 GT PUSH2 0x251 JUMPI DUP1 PUSH4 0x5893253C GT PUSH2 0x20B JUMPI DUP1 PUSH4 0x627CDCB9 GT PUSH2 0x1E6 JUMPI DUP1 PUSH4 0x627CDCB9 EQ PUSH2 0x58D JUMPI DUP1 PUSH4 0x654F0CE4 EQ PUSH2 0x595 JUMPI DUP1 PUSH4 0x68C7450F EQ PUSH2 0x5A8 JUMPI DUP1 PUSH4 0x6D70F7AE EQ PUSH2 0x5BB JUMPI PUSH0 DUP1 REVERT JUMPDEST DUP1 PUSH4 0x5893253C EQ PUSH2 0x51F JUMPI DUP1 PUSH4 0x5C1548FB EQ PUSH2 0x55A JUMPI DUP1 PUSH4 0x5C975ABB EQ PUSH2 0x580 JUMPI PUSH0 DUP1 REVERT JUMPDEST DUP1 PUSH4 0x429B62E5 EQ PUSH2 0x46A JUMPI DUP1 PUSH4 0x44BEA37E EQ PUSH2 0x489 JUMPI DUP1 PUSH4 0x4544F055 EQ PUSH2 0x490 JUMPI DUP1 PUSH4 0x456068D2 EQ PUSH2 0x4A3 JUMPI DUP1 PUSH4 0x46423AA7 EQ PUSH2 0x4AB JUMPI DUP1 PUSH4 0x4A2A11F5 EQ PUSH2 0x517 JUMPI PUSH0 DUP1 REVERT JUMPDEST DUP1 PUSH4 0x1785F53C GT PUSH2 0x2A2 JUMPI DUP1 PUSH4 0x1785F53C EQ PUSH2 0x3A7 JUMPI DUP1 PUSH4 0x24D7806C EQ PUSH2 0x3BA JUMPI DUP1 PUSH4 0x2DFF692D EQ PUSH2 0x3E6 JUMPI DUP1 PUSH4 0x34600901 EQ PUSH2 0x429 JUMPI DUP1 PUSH4 0x3B521D78 EQ PUSH2 0x43C JUMPI DUP1 PUSH4 0x3D6D3598 EQ PUSH2 0x462 JUMPI PUSH0 DUP1 REVERT JUMPDEST DUP1 PUSH4 0x1FFC9A7 EQ PUSH2 0x2E9 JUMPI DUP1 PUSH4 0x647EE20 EQ PUSH2 0x311 JUMPI DUP1 PUSH4 0x6B9D691 EQ PUSH2 0x33D JUMPI DUP1 PUSH4 0x1031E36E EQ PUSH2 0x35D JUMPI DUP1 PUSH4 0x131E7E1C EQ PUSH2 0x367 JUMPI DUP1 PUSH4 0x13E7C9D8 EQ PUSH2 0x37A JUMPI JUMPDEST PUSH0 DUP1 REVERT JUMPDEST PUSH2 0x2FC PUSH2 0x2F7 CALLDATASIZE PUSH1 0x4 PUSH2 0x2C70 JUMP JUMPDEST PUSH2 0x816 JUMP JUMPDEST PUSH1 0x40 MLOAD SWAP1 ISZERO ISZERO DUP2 MSTORE PUSH1 0x20 ADD JUMPDEST PUSH1 0x40 MLOAD DUP1 SWAP2 SUB SWAP1 RETURN JUMPDEST PUSH2 0x2FC PUSH2 0x31F CALLDATASIZE PUSH1 0x4 PUSH2 0x2CBB JUMP JUMPDEST PUSH1 0x1 PUSH1 0x1 PUSH1 0xA0 SHL SUB SWAP2 SWAP1 SWAP2 AND PUSH0 SWAP1 DUP2 MSTORE PUSH1 0x6 PUSH1 0x20 MSTORE PUSH1 0x40 SWAP1 KECCAK256 SLOAD EQ SWAP1 JUMP JUMPDEST PUSH2 0x345 PUSH2 0x84C JUMP JUMPDEST PUSH1 0x40 MLOAD PUSH1 0x1 PUSH1 0x1 PUSH1 0xA0 SHL SUB SWAP1 SWAP2 AND DUP2 MSTORE PUSH1 0x20 ADD PUSH2 0x308 JUMP JUMPDEST PUSH2 0x365 PUSH2 0x8BC JUMP JUMPDEST STOP JUMPDEST PUSH1 0x9 SLOAD PUSH2 0x345 SWAP1 PUSH1 0x1 PUSH1 0x1 PUSH1 0xA0 SHL SUB AND DUP2 JUMP JUMPDEST PUSH2 0x399 PUSH2 0x388 CALLDATASIZE PUSH1 0x4 PUSH2 0x2CE5 JUMP JUMPDEST PUSH1 0x2 PUSH1 0x20 MSTORE PUSH0 SWAP1 DUP2 MSTORE PUSH1 0x40 SWAP1 KECCAK256 SLOAD DUP2 JUMP JUMPDEST PUSH1 0x40 MLOAD SWAP1 DUP2 MSTORE PUSH1 0x20 ADD PUSH2 0x308 JUMP JUMPDEST PUSH2 0x365 PUSH2 0x3B5 CALLDATASIZE PUSH1 0x4 PUSH2 0x2CE5 JUMP JUMPDEST PUSH2 0x8F6 JUMP JUMPDEST PUSH2 0x2FC PUSH2 0x3C8 CALLDATASIZE PUSH1 0x4 PUSH2 0x2CE5 JUMP JUMPDEST PUSH1 0x1 PUSH1 0x1 PUSH1 0xA0 SHL SUB AND PUSH0 SWAP1 DUP2 MSTORE PUSH1 0x1 PUSH1 0x20 DUP2 SWAP1 MSTORE PUSH1 0x40 SWAP1 SWAP2 KECCAK256 SLOAD EQ SWAP1 JUMP JUMPDEST PUSH2 0x412 PUSH2 0x3F4 CALLDATASIZE PUSH1 0x4 PUSH2 0x2D00 JUMP JUMPDEST PUSH1 0xA PUSH1 0x20 MSTORE PUSH0 SWAP1 DUP2 MSTORE PUSH1 0x40 SWAP1 KECCAK256 DUP1 SLOAD PUSH1 0x1 SWAP1 SWAP2 ADD SLOAD PUSH1 0xFF SWAP1 SWAP2 AND SWAP1 DUP3 JUMP JUMPDEST PUSH1 0x40 DUP1 MLOAD SWAP3 ISZERO ISZERO DUP4 MSTORE PUSH1 0x20 DUP4 ADD SWAP2 SWAP1 SWAP2 MSTORE ADD PUSH2 0x308 JUMP JUMPDEST PUSH2 0x365 PUSH2 0x437 CALLDATASIZE PUSH1 0x4 PUSH2 0x2D00 JUMP JUMPDEST PUSH2 0x96B JUMP JUMPDEST PUSH32 0x0 PUSH2 0x345 JUMP JUMPDEST PUSH2 0x365 PUSH2 0x99B JUMP JUMPDEST PUSH2 0x399 PUSH2 0x478 CALLDATASIZE PUSH1 0x4 PUSH2 0x2CE5 JUMP JUMPDEST PUSH1 0x1 PUSH1 0x20 MSTORE PUSH0 SWAP1 DUP2 MSTORE PUSH1 0x40 SWAP1 KECCAK256 SLOAD DUP2 JUMP JUMPDEST PUSH2 0x399 PUSH0 DUP2 JUMP JUMPDEST PUSH2 0x365 PUSH2 0x49E CALLDATASIZE PUSH1 0x4 PUSH2 0x2CE5 JUMP JUMPDEST PUSH2 0xA04 JUMP JUMPDEST PUSH2 0x365 PUSH2 0xA3D JUMP JUMPDEST PUSH2 0x4FA PUSH2 0x4B9 CALLDATASIZE PUSH1 0x4 PUSH2 0x2D00 JUMP JUMPDEST PUSH1 0x40 DUP1 MLOAD DUP1 DUP3 ADD SWAP1 SWAP2 MSTORE PUSH0 DUP1 DUP3 MSTORE PUSH1 0x20 DUP3 ADD MSTORE POP PUSH0 SWAP1 DUP2 MSTORE PUSH1 0xA PUSH1 0x20 SWAP1 DUP2 MSTORE PUSH1 0x40 SWAP2 DUP3 SWAP1 KECCAK256 DUP3 MLOAD DUP1 DUP5 ADD SWAP1 SWAP4 MSTORE DUP1 SLOAD PUSH1 0xFF AND ISZERO ISZERO DUP4 MSTORE PUSH1 0x1 ADD SLOAD SWAP1 DUP3 ADD MSTORE SWAP1 JUMP JUMPDEST PUSH1 0x40 DUP1 MLOAD DUP3 MLOAD ISZERO ISZERO DUP2 MSTORE PUSH1 0x20 SWAP3 DUP4 ADD MLOAD SWAP3 DUP2 ADD SWAP3 SWAP1 SWAP3 MSTORE ADD PUSH2 0x308 JUMP JUMPDEST PUSH2 0x3E8 PUSH2 0x399 JUMP JUMPDEST PUSH2 0x545 PUSH2 0x52D CALLDATASIZE PUSH1 0x4 PUSH2 0x2D00 JUMP JUMPDEST PUSH1 0x7 PUSH1 0x20 MSTORE PUSH0 SWAP1 DUP2 MSTORE PUSH1 0x40 SWAP1 KECCAK256 DUP1 SLOAD PUSH1 0x1 SWAP1 SWAP2 ADD SLOAD DUP3 JUMP JUMPDEST PUSH1 0x40 DUP1 MLOAD SWAP3 DUP4 MSTORE PUSH1 0x20 DUP4 ADD SWAP2 SWAP1 SWAP2 MSTORE ADD PUSH2 0x308 JUMP JUMPDEST PUSH32 0x0 PUSH2 0x345 JUMP JUMPDEST PUSH1 0x5 SLOAD PUSH2 0x2FC SWAP1 PUSH1 0xFF AND DUP2 JUMP JUMPDEST PUSH2 0x365 PUSH2 0xA75 JUMP JUMPDEST PUSH2 0x365 PUSH2 0x5A3 CALLDATASIZE PUSH1 0x4 PUSH2 0x2EF3 JUMP JUMPDEST PUSH2 0xA7F JUMP JUMPDEST PUSH2 0x365 PUSH2 0x5B6 CALLDATASIZE PUSH1 0x4 PUSH2 0x2F24 JUMP JUMPDEST PUSH2 0xA99 JUMP JUMPDEST PUSH2 0x2FC PUSH2 0x5C9 CALLDATASIZE PUSH1 0x4 PUSH2 0x2CE5 JUMP JUMPDEST PUSH1 0x1 PUSH1 0x1 PUSH1 0xA0 SHL SUB AND PUSH0 SWAP1 DUP2 MSTORE PUSH1 0x2 PUSH1 0x20 MSTORE PUSH1 0x40 SWAP1 KECCAK256 SLOAD PUSH1 0x1 EQ SWAP1 JUMP JUMPDEST PUSH2 0x365 PUSH2 0x5F4 CALLDATASIZE PUSH1 0x4 PUSH2 0x2CE5 JUMP JUMPDEST PUSH2 0xAD9 JUMP JUMPDEST PUSH1 0x9 SLOAD PUSH1 0x1 PUSH1 0x1 PUSH1 0xA0 SHL SUB AND PUSH2 0x345 JUMP JUMPDEST PUSH2 0x399 PUSH2 0x618 CALLDATASIZE PUSH1 0x4 PUSH2 0x2CE5 JUMP JUMPDEST PUSH1 0x6 PUSH1 0x20 MSTORE PUSH0 SWAP1 DUP2 MSTORE PUSH1 0x40 SWAP1 KECCAK256 SLOAD DUP2 JUMP JUMPDEST PUSH2 0x365 PUSH2 0xB51 JUMP JUMPDEST PUSH2 0x639 PUSH2 0xBBB JUMP JUMPDEST PUSH1 0x40 MLOAD PUSH2 0x308 SWAP8 SWAP7 SWAP6 SWAP5 SWAP4 SWAP3 SWAP2 SWAP1 PUSH2 0x2FB5 JUMP JUMPDEST PUSH2 0x365 PUSH2 0x65A CALLDATASIZE PUSH1 0x4 PUSH2 0x2CE5 JUMP JUMPDEST PUSH2 0xBFD JUMP JUMPDEST PUSH2 0x399 PUSH2 0x66D CALLDATASIZE PUSH1 0x4 PUSH2 0x2D00 JUMP JUMPDEST PUSH2 0xC73 JUMP JUMPDEST PUSH2 0x345 PUSH2 0x680 CALLDATASIZE PUSH1 0x4 PUSH2 0x2CE5 JUMP JUMPDEST PUSH2 0xC8F JUMP JUMPDEST PUSH2 0x365 PUSH2 0x693 CALLDATASIZE PUSH1 0x4 PUSH2 0x2EF3 JUMP JUMPDEST PUSH2 0xCAD JUMP JUMPDEST PUSH2 0x365 PUSH2 0x6A6 CALLDATASIZE PUSH1 0x4 PUSH2 0x2CE5 JUMP JUMPDEST PUSH2 0xCB6 JUMP JUMPDEST PUSH1 0x8 SLOAD PUSH1 0x1 PUSH1 0x1 PUSH1 0xA0 SHL SUB AND PUSH2 0x345 JUMP JUMPDEST PUSH2 0x6CF PUSH2 0x6CA CALLDATASIZE PUSH1 0x4 PUSH2 0x30A6 JUMP JUMPDEST PUSH2 0xD2B JUMP JUMPDEST PUSH1 0x40 MLOAD PUSH1 0x1 PUSH1 0x1 PUSH1 0xE0 SHL SUB NOT SWAP1 SWAP2 AND DUP2 MSTORE PUSH1 0x20 ADD PUSH2 0x308 JUMP JUMPDEST PUSH1 0x8 SLOAD PUSH2 0x345 SWAP1 PUSH1 0x1 PUSH1 0x1 PUSH1 0xA0 SHL SUB AND DUP2 JUMP JUMPDEST PUSH2 0x365 PUSH2 0x709 CALLDATASIZE PUSH1 0x4 PUSH2 0x31D4 JUMP JUMPDEST PUSH2 0xD3D JUMP JUMPDEST PUSH2 0x399 PUSH2 0x71C CALLDATASIZE PUSH1 0x4 PUSH2 0x2D00 JUMP JUMPDEST PUSH0 SWAP1 DUP2 MSTORE PUSH1 0x7 PUSH1 0x20 MSTORE PUSH1 0x40 SWAP1 KECCAK256 PUSH1 0x1 ADD SLOAD SWAP1 JUMP JUMPDEST PUSH2 0x365 PUSH2 0x73E CALLDATASIZE PUSH1 0x4 PUSH2 0x3237 JUMP JUMPDEST PUSH2 0xDD2 JUMP JUMPDEST PUSH2 0x345 PUSH2 0xDFA JUMP JUMPDEST PUSH2 0x365 PUSH2 0x759 CALLDATASIZE PUSH1 0x4 PUSH2 0x3257 JUMP JUMPDEST PUSH2 0xE41 JUMP JUMPDEST PUSH2 0x399 PUSH2 0x76C CALLDATASIZE PUSH1 0x4 PUSH2 0x2EF3 JUMP JUMPDEST PUSH2 0xE7D JUMP JUMPDEST PUSH2 0x365 PUSH2 0x77F CALLDATASIZE PUSH1 0x4 PUSH2 0x3290 JUMP JUMPDEST PUSH2 0xF18 JUMP JUMPDEST PUSH2 0x345 PUSH2 0x792 CALLDATASIZE PUSH1 0x4 PUSH2 0x2CE5 JUMP JUMPDEST PUSH2 0xFA7 JUMP JUMPDEST PUSH2 0x6CF PUSH2 0x7A5 CALLDATASIZE PUSH1 0x4 PUSH2 0x3325 JUMP JUMPDEST PUSH4 0xF23A6E61 PUSH1 0xE0 SHL SWAP6 SWAP5 POP POP POP POP POP JUMP JUMPDEST PUSH2 0x399 PUSH32 0x0 DUP2 JUMP JUMPDEST PUSH2 0x365 PUSH2 0x7EB CALLDATASIZE PUSH1 0x4 PUSH2 0x337C JUMP JUMPDEST PUSH2 0xFC5 JUMP JUMPDEST PUSH2 0x365 PUSH2 0x7FE CALLDATASIZE PUSH1 0x4 PUSH2 0x2CE5 JUMP JUMPDEST PUSH2 0xFFB JUMP JUMPDEST PUSH2 0x365 PUSH2 0x811 CALLDATASIZE PUSH1 0x4 PUSH2 0x33AD JUMP JUMPDEST PUSH2 0x1034 JUMP JUMPDEST PUSH0 PUSH1 0x1 PUSH1 0x1 PUSH1 0xE0 SHL SUB NOT DUP3 AND PUSH4 0x2711897 PUSH1 0xE5 SHL EQ DUP1 PUSH2 0x846 JUMPI POP PUSH4 0x1FFC9A7 PUSH1 0xE0 SHL PUSH1 0x1 PUSH1 0x1 PUSH1 0xE0 SHL SUB NOT DUP4 AND EQ JUMPDEST SWAP3 SWAP2 POP POP JUMP JUMPDEST PUSH1 0x8 SLOAD PUSH1 0x40 DUP1 MLOAD PUSH4 0x557887A1 PUSH1 0xE1 SHL DUP2 MSTORE SWAP1 MLOAD PUSH0 SWAP3 PUSH1 0x1 PUSH1 0x1 PUSH1 0xA0 SHL SUB AND SWAP2 PUSH4 0xAAF10F42 SWAP2 PUSH1 0x4 DUP1 DUP4 ADD SWAP3 PUSH1 0x20 SWAP3 SWAP2 SWAP1 DUP3 SWAP1 SUB ADD DUP2 DUP7 GAS STATICCALL ISZERO DUP1 ISZERO PUSH2 0x893 JUMPI RETURNDATASIZE PUSH0 DUP1 RETURNDATACOPY RETURNDATASIZE PUSH0 REVERT JUMPDEST POP POP POP POP PUSH1 0x40 MLOAD RETURNDATASIZE PUSH1 0x1F NOT PUSH1 0x1F DUP3 ADD AND DUP3 ADD DUP1 PUSH1 0x40 MSTORE POP DUP2 ADD SWAP1 PUSH2 0x8B7 SWAP2 SWAP1 PUSH2 0x33EE JUMP JUMPDEST SWAP1 POP SWAP1 JUMP JUMPDEST CALLER PUSH0 SWAP1 DUP2 MSTORE PUSH1 0x1 PUSH1 0x20 DUP2 SWAP1 MSTORE PUSH1 0x40 SWAP1 SWAP2 KECCAK256 SLOAD EQ PUSH2 0x8EC JUMPI PUSH1 0x40 MLOAD PUSH4 0x7BFA4B9F PUSH1 0xE0 SHL DUP2 MSTORE PUSH1 0x4 ADD PUSH1 0x40 MLOAD DUP1 SWAP2 SUB SWAP1 REVERT JUMPDEST PUSH2 0x8F4 PUSH2 0x10B8 JUMP JUMPDEST JUMP JUMPDEST CALLER PUSH0 SWAP1 DUP2 MSTORE PUSH1 0x1 PUSH1 0x20 DUP2 SWAP1 MSTORE PUSH1 0x40 SWAP1 SWAP2 KECCAK256 SLOAD EQ PUSH2 0x926 JUMPI PUSH1 0x40 MLOAD PUSH4 0x7BFA4B9F PUSH1 0xE0 SHL DUP2 MSTORE PUSH1 0x4 ADD PUSH1 0x40 MLOAD DUP1 SWAP2 SUB SWAP1 REVERT JUMPDEST PUSH1 0x1 PUSH1 0x1 PUSH1 0xA0 SHL SUB DUP2 AND PUSH0 DUP2 DUP2 MSTORE PUSH1 0x1 PUSH1 0x20 MSTORE PUSH1 0x40 DUP1 DUP3 KECCAK256 DUP3 SWAP1 SSTORE MLOAD CALLER SWAP3 SWAP2 PUSH32 0x787A2E12F4A55B658B8F573C32432EE11A5E8B51677D1E1E937AAF6A0BB5776E SWAP2 LOG3 POP JUMP JUMPDEST PUSH0 DUP2 DUP2 MSTORE PUSH1 0x7 PUSH1 0x20 MSTORE PUSH1 0x40 DUP2 KECCAK256 SLOAD SWAP1 SUB PUSH2 0x998 JUMPI PUSH1 0x40 MLOAD PUSH4 0x7ED98ED PUSH1 0xE3 SHL DUP2 MSTORE PUSH1 0x4 ADD PUSH1 0x40 MLOAD DUP1 SWAP2 SUB SWAP1 REVERT JUMPDEST POP JUMP JUMPDEST CALLER PUSH0 SWAP1 DUP2 MSTORE PUSH1 0x2 PUSH1 0x20 MSTORE PUSH1 0x40 SWAP1 KECCAK256 SLOAD PUSH1 0x1 EQ PUSH2 0x9CA JUMPI PUSH1 0x40 MLOAD PUSH4 0x1F0853C1 PUSH1 0xE2 SHL DUP2 MSTORE PUSH1 0x4 ADD PUSH1 0x40 MLOAD DUP1 SWAP2 SUB SWAP1 REVERT JUMPDEST CALLER PUSH0 DUP2 DUP2 MSTORE PUSH1 0x2 PUSH1 0x20 MSTORE PUSH1 0x40 DUP1 DUP3 KECCAK256 DUP3 SWAP1 SSTORE MLOAD DUP3 SWAP2 PUSH32 0xF7262ED0443CC211121CEB1A80D69004F319245615A7488F951F1437FD91642C SWAP2 LOG3 JUMP JUMPDEST CALLER PUSH0 SWAP1 DUP2 MSTORE PUSH1 0x1 PUSH1 0x20 DUP2 SWAP1 MSTORE PUSH1 0x40 SWAP1 SWAP2 KECCAK256 SLOAD EQ PUSH2 0xA34 JUMPI PUSH1 0x40 MLOAD PUSH4 0x7BFA4B9F PUSH1 0xE0 SHL DUP2 MSTORE PUSH1 0x4 ADD PUSH1 0x40 MLOAD DUP1 SWAP2 SUB SWAP1 REVERT JUMPDEST PUSH2 0x998 DUP2 PUSH2 0x10F1 JUMP JUMPDEST CALLER PUSH0 SWAP1 DUP2 MSTORE PUSH1 0x1 PUSH1 0x20 DUP2 SWAP1 MSTORE PUSH1 0x40 SWAP1 SWAP2 KECCAK256 SLOAD EQ PUSH2 0xA6D JUMPI PUSH1 0x40 MLOAD PUSH4 0x7BFA4B9F PUSH1 0xE0 SHL DUP2 MSTORE PUSH1 0x4 ADD PUSH1 0x40 MLOAD DUP1 SWAP2 SUB SWAP1 REVERT JUMPDEST PUSH2 0x8F4 PUSH2 0x114C JUMP JUMPDEST PUSH2 0x8F4 PUSH1 0x1 PUSH2 0x1182 JUMP JUMPDEST PUSH0 PUSH2 0xA89 DUP3 PUSH2 0xE7D JUMP JUMPDEST SWAP1 POP PUSH2 0xA95 DUP2 DUP4 PUSH2 0x11AE JUMP JUMPDEST POP POP JUMP JUMPDEST CALLER PUSH0 SWAP1 DUP2 MSTORE PUSH1 0x1 PUSH1 0x20 DUP2 SWAP1 MSTORE PUSH1 0x40 SWAP1 SWAP2 KECCAK256 SLOAD EQ PUSH2 0xAC9 JUMPI PUSH1 0x40 MLOAD PUSH4 0x7BFA4B9F PUSH1 0xE0 SHL DUP2 MSTORE PUSH1 0x4 ADD PUSH1 0x40 MLOAD DUP1 SWAP2 SUB SWAP1 REVERT JUMPDEST PUSH2 0xAD4 DUP4 DUP4 DUP4 PUSH2 0x1299 JUMP JUMPDEST POP POP POP JUMP JUMPDEST CALLER PUSH0 SWAP1 DUP2 MSTORE PUSH1 0x1 PUSH1 0x20 DUP2 SWAP1 MSTORE PUSH1 0x40 SWAP1 SWAP2 KECCAK256 SLOAD EQ PUSH2 0xB09 JUMPI PUSH1 0x40 MLOAD PUSH4 0x7BFA4B9F PUSH1 0xE0 SHL DUP2 MSTORE PUSH1 0x4 ADD PUSH1 0x40 MLOAD DUP1 SWAP2 SUB SWAP1 REVERT JUMPDEST PUSH1 0x1 PUSH1 0x1 PUSH1 0xA0 SHL SUB DUP2 AND PUSH0 DUP2 DUP2 MSTORE PUSH1 0x1 PUSH1 0x20 DUP2 SWAP1 MSTORE PUSH1 0x40 DUP1 DUP4 KECCAK256 SWAP2 SWAP1 SWAP2 SSTORE MLOAD CALLER SWAP3 SWAP2 PUSH32 0xF9FFABCA9C8276E99321725BCB43FB076A6C66A54B7F21C4E8146D8519B417DC SWAP2 LOG3 POP JUMP JUMPDEST CALLER PUSH0 SWAP1 DUP2 MSTORE PUSH1 0x1 PUSH1 0x20 DUP2 SWAP1 MSTORE PUSH1 0x40 SWAP1 SWAP2 KECCAK256 SLOAD EQ PUSH2 0xB81 JUMPI PUSH1 0x40 MLOAD PUSH4 0x7BFA4B9F PUSH1 0xE0 SHL DUP2 MSTORE PUSH1 0x4 ADD PUSH1 0x40 MLOAD DUP1 SWAP2 SUB SWAP1 REVERT JUMPDEST CALLER PUSH0 DUP2 DUP2 MSTORE PUSH1 0x1 PUSH1 0x20 MSTORE PUSH1 0x40 DUP1 DUP3 KECCAK256 DUP3 SWAP1 SSTORE MLOAD DUP3 SWAP2 PUSH32 0x787A2E12F4A55B658B8F573C32432EE11A5E8B51677D1E1E937AAF6A0BB5776E SWAP2 LOG3 JUMP JUMPDEST PUSH0 PUSH1 0x60 DUP1 PUSH0 DUP1 PUSH0 PUSH1 0x60 PUSH2 0xBCC PUSH2 0x13C0 JUMP JUMPDEST PUSH2 0xBD4 PUSH2 0x13ED JUMP JUMPDEST PUSH1 0x40 DUP1 MLOAD PUSH0 DUP1 DUP3 MSTORE PUSH1 0x20 DUP3 ADD SWAP1 SWAP3 MSTORE PUSH1 0xF PUSH1 0xF8 SHL SWAP12 SWAP4 SWAP11 POP SWAP2 SWAP9 POP CHAINID SWAP8 POP ADDRESS SWAP7 POP SWAP5 POP SWAP3 POP SWAP1 POP JUMP JUMPDEST CALLER PUSH0 SWAP1 DUP2 MSTORE PUSH1 0x1 PUSH1 0x20 DUP2 SWAP1 MSTORE PUSH1 0x40 SWAP1 SWAP2 KECCAK256 SLOAD EQ PUSH2 0xC2D JUMPI PUSH1 0x40 MLOAD PUSH4 0x7BFA4B9F PUSH1 0xE0 SHL DUP2 MSTORE PUSH1 0x4 ADD PUSH1 0x40 MLOAD DUP1 SWAP2 SUB SWAP1 REVERT JUMPDEST PUSH1 0x1 PUSH1 0x1 PUSH1 0xA0 SHL SUB DUP2 AND PUSH0 DUP2 DUP2 MSTORE PUSH1 0x2 PUSH1 0x20 MSTORE PUSH1 0x40 DUP1 DUP3 KECCAK256 PUSH1 0x1 SWAP1 SSTORE MLOAD CALLER SWAP3 SWAP2 PUSH32 0xF1E04D73C4304B5FF164F9D10C7473E2A1593B740674A6107975E2A7001C1E5C SWAP2 LOG3 POP JUMP JUMPDEST PUSH0 PUSH2 0xC7D DUP3 PUSH2 0x96B JUMP JUMPDEST POP PUSH0 SWAP1 DUP2 MSTORE PUSH1 0x7 PUSH1 0x20 MSTORE PUSH1 0x40 SWAP1 KECCAK256 SLOAD SWAP1 JUMP JUMPDEST PUSH0 PUSH2 0x846 DUP3 PUSH2 0xC9C PUSH2 0xDFA JUMP JUMPDEST PUSH1 0x9 SLOAD PUSH1 0x1 PUSH1 0x1 PUSH1 0xA0 SHL SUB AND PUSH2 0x141A JUMP JUMPDEST PUSH2 0x998 DUP2 PUSH2 0x147C JUMP JUMPDEST CALLER PUSH0 SWAP1 DUP2 MSTORE PUSH1 0x1 PUSH1 0x20 DUP2 SWAP1 MSTORE PUSH1 0x40 SWAP1 SWAP2 KECCAK256 SLOAD EQ PUSH2 0xCE6 JUMPI PUSH1 0x40 MLOAD PUSH4 0x7BFA4B9F PUSH1 0xE0 SHL DUP2 MSTORE PUSH1 0x4 ADD PUSH1 0x40 MLOAD DUP1 SWAP2 SUB SWAP1 REVERT JUMPDEST PUSH1 0x1 PUSH1 0x1 PUSH1 0xA0 SHL SUB DUP2 AND PUSH0 DUP2 DUP2 MSTORE PUSH1 0x2 PUSH1 0x20 MSTORE PUSH1 0x40 DUP1 DUP3 KECCAK256 DUP3 SWAP1 SSTORE MLOAD CALLER SWAP3 SWAP2 PUSH32 0xF7262ED0443CC211121CEB1A80D69004F319245615A7488F951F1437FD91642C SWAP2 LOG3 POP JUMP JUMPDEST PUSH4 0xBC197C81 PUSH1 0xE0 SHL JUMPDEST SWAP6 SWAP5 POP POP POP POP POP JUMP JUMPDEST PUSH0 SLOAD PUSH1 0x2 SUB PUSH2 0xD67 JUMPI PUSH1 0x40 MLOAD PUSH3 0x461BCD PUSH1 0xE5 SHL DUP2 MSTORE PUSH1 0x4 ADD PUSH2 0xD5E SWAP1 PUSH2 0x3409 JUMP JUMPDEST PUSH1 0x40 MLOAD DUP1 SWAP2 SUB SWAP1 REVERT JUMPDEST PUSH1 0x2 PUSH0 DUP2 DUP2 SSTORE CALLER DUP2 MSTORE PUSH1 0x20 SWAP2 SWAP1 SWAP2 MSTORE PUSH1 0x40 SWAP1 KECCAK256 SLOAD PUSH1 0x1 EQ PUSH2 0xD9B JUMPI PUSH1 0x40 MLOAD PUSH4 0x1F0853C1 PUSH1 0xE2 SHL DUP2 MSTORE PUSH1 0x4 ADD PUSH1 0x40 MLOAD DUP1 SWAP2 SUB SWAP1 REVERT JUMPDEST PUSH1 0x5 SLOAD PUSH1 0xFF AND ISZERO PUSH2 0xDBF JUMPI PUSH1 0x40 MLOAD PUSH4 0x13D0FF59 PUSH1 0xE3 SHL DUP2 MSTORE PUSH1 0x4 ADD PUSH1 0x40 MLOAD DUP1 SWAP2 SUB SWAP1 REVERT JUMPDEST PUSH2 0xDCA DUP3 DUP3 CALLER PUSH2 0x1521 JUMP JUMPDEST POP POP PUSH1 0x1 PUSH0 SSTORE JUMP JUMPDEST DUP1 PUSH2 0xDDC DUP4 PUSH2 0xC73 JUMP JUMPDEST EQ PUSH2 0xA95 JUMPI PUSH1 0x40 MLOAD PUSH4 0x337C3105 PUSH1 0xE1 SHL DUP2 MSTORE PUSH1 0x4 ADD PUSH1 0x40 MLOAD DUP1 SWAP2 SUB SWAP1 REVERT JUMPDEST PUSH1 0x9 SLOAD PUSH1 0x40 DUP1 MLOAD PUSH4 0x530CA437 PUSH1 0xE1 SHL DUP2 MSTORE SWAP1 MLOAD PUSH0 SWAP3 PUSH1 0x1 PUSH1 0x1 PUSH1 0xA0 SHL SUB AND SWAP2 PUSH4 0xA619486E SWAP2 PUSH1 0x4 DUP1 DUP4 ADD SWAP3 PUSH1 0x20 SWAP3 SWAP2 SWAP1 DUP3 SWAP1 SUB ADD DUP2 DUP7 GAS STATICCALL ISZERO DUP1 ISZERO PUSH2 0x893 JUMPI RETURNDATASIZE PUSH0 DUP1 RETURNDATACOPY RETURNDATASIZE PUSH0 REVERT JUMPDEST PUSH2 0xE60 DUP2 PUSH1 0x40 ADD MLOAD DUP3 PUSH1 0x20 ADD MLOAD DUP5 DUP5 PUSH2 0x180 ADD MLOAD DUP6 PUSH2 0x160 ADD MLOAD PUSH2 0x1579 JUMP JUMPDEST PUSH2 0xA95 JUMPI PUSH1 0x40 MLOAD PUSH4 0x8BAA579F PUSH1 0xE0 SHL DUP2 MSTORE PUSH1 0x4 ADD PUSH1 0x40 MLOAD DUP1 SWAP2 SUB SWAP1 REVERT JUMPDEST PUSH0 PUSH2 0x846 PUSH32 0xA852566C4E14D00869B6DB0220888A9090A13ECCDAEA03713FF0A3D27BF9767C DUP4 PUSH0 ADD MLOAD DUP5 PUSH1 0x20 ADD MLOAD DUP6 PUSH1 0x40 ADD MLOAD DUP7 PUSH1 0x60 ADD MLOAD DUP8 PUSH1 0x80 ADD MLOAD DUP9 PUSH1 0xA0 ADD MLOAD DUP10 PUSH1 0xC0 ADD MLOAD DUP11 PUSH1 0xE0 ADD MLOAD DUP12 PUSH2 0x100 ADD MLOAD DUP13 PUSH2 0x120 ADD MLOAD DUP14 PUSH2 0x140 ADD MLOAD DUP15 PUSH2 0x160 ADD MLOAD PUSH1 0x40 MLOAD PUSH1 0x20 ADD PUSH2 0xEFD SWAP14 SWAP13 SWAP12 SWAP11 SWAP10 SWAP9 SWAP8 SWAP7 SWAP6 SWAP5 SWAP4 SWAP3 SWAP2 SWAP1 PUSH2 0x3455 JUMP JUMPDEST PUSH1 0x40 MLOAD PUSH1 0x20 DUP2 DUP4 SUB SUB DUP2 MSTORE SWAP1 PUSH1 0x40 MSTORE DUP1 MLOAD SWAP1 PUSH1 0x20 ADD KECCAK256 PUSH2 0x15D6 JUMP JUMPDEST PUSH0 SLOAD PUSH1 0x2 SUB PUSH2 0xF39 JUMPI PUSH1 0x40 MLOAD PUSH3 0x461BCD PUSH1 0xE5 SHL DUP2 MSTORE PUSH1 0x4 ADD PUSH2 0xD5E SWAP1 PUSH2 0x3409 JUMP JUMPDEST PUSH1 0x2 PUSH0 DUP2 DUP2 SSTORE CALLER DUP2 MSTORE PUSH1 0x20 SWAP2 SWAP1 SWAP2 MSTORE PUSH1 0x40 SWAP1 KECCAK256 SLOAD PUSH1 0x1 EQ PUSH2 0xF6D JUMPI PUSH1 0x40 MLOAD PUSH4 0x1F0853C1 PUSH1 0xE2 SHL DUP2 MSTORE PUSH1 0x4 ADD PUSH1 0x40 MLOAD DUP1 SWAP2 SUB SWAP1 REVERT JUMPDEST PUSH1 0x5 SLOAD PUSH1 0xFF AND ISZERO PUSH2 0xF91 JUMPI PUSH1 0x40 MLOAD PUSH4 0x13D0FF59 PUSH1 0xE3 SHL DUP2 MSTORE PUSH1 0x4 ADD PUSH1 0x40 MLOAD DUP1 SWAP2 SUB SWAP1 REVERT JUMPDEST PUSH2 0xF9D DUP5 DUP5 DUP5 DUP5 PUSH2 0x1602 JUMP JUMPDEST POP POP PUSH1 0x1 PUSH0 SSTORE POP POP JUMP JUMPDEST PUSH0 PUSH2 0x846 DUP3 PUSH2 0xFB4 PUSH2 0x84C JUMP JUMPDEST PUSH1 0x8 SLOAD PUSH1 0x1 PUSH1 0x1 PUSH1 0xA0 SHL SUB AND PUSH2 0x179B JUMP JUMPDEST DUP1 MLOAD PUSH0 JUMPDEST DUP2 DUP2 LT ISZERO PUSH2 0xAD4 JUMPI PUSH2 0xFF3 DUP4 DUP3 DUP2 MLOAD DUP2 LT PUSH2 0xFE6 JUMPI PUSH2 0xFE6 PUSH2 0x34E7 JUMP JUMPDEST PUSH1 0x20 MUL PUSH1 0x20 ADD ADD MLOAD PUSH2 0x147C JUMP JUMPDEST PUSH1 0x1 ADD PUSH2 0xFC9 JUMP JUMPDEST CALLER PUSH0 SWAP1 DUP2 MSTORE PUSH1 0x1 PUSH1 0x20 DUP2 SWAP1 MSTORE PUSH1 0x40 SWAP1 SWAP2 KECCAK256 SLOAD EQ PUSH2 0x102B JUMPI PUSH1 0x40 MLOAD PUSH4 0x7BFA4B9F PUSH1 0xE0 SHL DUP2 MSTORE PUSH1 0x4 ADD PUSH1 0x40 MLOAD DUP1 SWAP2 SUB SWAP1 REVERT JUMPDEST PUSH2 0x998 DUP2 PUSH2 0x17E9 JUMP JUMPDEST PUSH0 SLOAD PUSH1 0x2 SUB PUSH2 0x1055 JUMPI PUSH1 0x40 MLOAD PUSH3 0x461BCD PUSH1 0xE5 SHL DUP2 MSTORE PUSH1 0x4 ADD PUSH2 0xD5E SWAP1 PUSH2 0x3409 JUMP JUMPDEST PUSH1 0x2 PUSH0 DUP2 DUP2 SSTORE CALLER DUP2 MSTORE PUSH1 0x20 SWAP2 SWAP1 SWAP2 MSTORE PUSH1 0x40 SWAP1 KECCAK256 SLOAD PUSH1 0x1 EQ PUSH2 0x1089 JUMPI PUSH1 0x40 MLOAD PUSH4 0x1F0853C1 PUSH1 0xE2 SHL DUP2 MSTORE PUSH1 0x4 ADD PUSH1 0x40 MLOAD DUP1 SWAP2 SUB SWAP1 REVERT JUMPDEST PUSH1 0x5 SLOAD PUSH1 0xFF AND ISZERO PUSH2 0x10AD JUMPI PUSH1 0x40 MLOAD PUSH4 0x13D0FF59 PUSH1 0xE3 SHL DUP2 MSTORE PUSH1 0x4 ADD PUSH1 0x40 MLOAD DUP1 SWAP2 SUB SWAP1 REVERT JUMPDEST PUSH2 0xDCA DUP3 DUP3 CALLER PUSH2 0x1844 JUMP JUMPDEST PUSH1 0x5 DUP1 SLOAD PUSH1 0xFF NOT AND PUSH1 0x1 OR SWAP1 SSTORE PUSH1 0x40 MLOAD CALLER SWAP1 PUSH32 0x203C4BD3E526634F661575359FF30DE3B0EDABA6C2CB1EAC60F730B6D2D9D536 SWAP1 PUSH0 SWAP1 LOG2 JUMP JUMPDEST PUSH1 0x9 SLOAD PUSH1 0x40 MLOAD PUSH1 0x1 PUSH1 0x1 PUSH1 0xA0 SHL SUB DUP1 DUP5 AND SWAP3 AND SWAP1 PUSH32 0x9726D7FAF7429D6B059560DC858ED769377CCDF8B7541EABE12B22548719831F SWAP1 PUSH0 SWAP1 LOG3 PUSH1 0x9 DUP1 SLOAD PUSH1 0x1 PUSH1 0x1 PUSH1 0xA0 SHL SUB NOT AND PUSH1 0x1 PUSH1 0x1 PUSH1 0xA0 SHL SUB SWAP3 SWAP1 SWAP3 AND SWAP2 SWAP1 SWAP2 OR SWAP1 SSTORE JUMP JUMPDEST PUSH1 0x5 DUP1 SLOAD PUSH1 0xFF NOT AND SWAP1 SSTORE PUSH1 0x40 MLOAD CALLER SWAP1 PUSH32 0xA1E8A54850DBD7F520BCC09F47BFF152294B77B2081DA545A7ADF531B7EA283B SWAP1 PUSH0 SWAP1 LOG2 JUMP JUMPDEST CALLER PUSH0 SWAP1 DUP2 MSTORE PUSH1 0x6 PUSH1 0x20 MSTORE PUSH1 0x40 SWAP1 KECCAK256 SLOAD PUSH2 0x119C SWAP1 DUP3 SWAP1 PUSH2 0x350F JUMP JUMPDEST CALLER PUSH0 SWAP1 DUP2 MSTORE PUSH1 0x6 PUSH1 0x20 MSTORE PUSH1 0x40 SWAP1 KECCAK256 SSTORE POP JUMP JUMPDEST PUSH0 DUP2 PUSH1 0xE0 ADD MLOAD GT DUP1 ISZERO PUSH2 0x11C4 JUMPI POP TIMESTAMP DUP2 PUSH1 0xE0 ADD MLOAD LT JUMPDEST ISZERO PUSH2 0x11E2 JUMPI PUSH1 0x40 MLOAD PUSH4 0x62B439DD PUSH1 0xE1 SHL DUP2 MSTORE PUSH1 0x4 ADD PUSH1 0x40 MLOAD DUP1 SWAP2 SUB SWAP1 REVERT JUMPDEST PUSH2 0x11EC DUP3 DUP3 PUSH2 0xE41 JUMP JUMPDEST PUSH2 0x3E8 DUP2 PUSH2 0x120 ADD MLOAD GT ISZERO PUSH2 0x1214 JUMPI PUSH1 0x40 MLOAD PUSH4 0xCD4E6167 PUSH1 0xE0 SHL DUP2 MSTORE PUSH1 0x4 ADD PUSH1 0x40 MLOAD DUP1 SWAP2 SUB SWAP1 REVERT JUMPDEST PUSH2 0x1221 DUP2 PUSH1 0x80 ADD MLOAD PUSH2 0x96B JUMP JUMPDEST PUSH0 DUP3 DUP2 MSTORE PUSH1 0xA PUSH1 0x20 MSTORE PUSH1 0x40 SWAP1 KECCAK256 SLOAD PUSH1 0xFF AND ISZERO PUSH2 0x1250 JUMPI PUSH1 0x40 MLOAD PUSH4 0x3D9C5BB7 PUSH1 0xE1 SHL DUP2 MSTORE PUSH1 0x4 ADD PUSH1 0x40 MLOAD DUP1 SWAP2 SUB SWAP1 REVERT JUMPDEST PUSH2 0x127C DUP2 PUSH1 0x20 ADD MLOAD DUP3 PUSH2 0x100 ADD MLOAD PUSH1 0x1 PUSH1 0x1 PUSH1 0xA0 SHL SUB SWAP2 SWAP1 SWAP2 AND PUSH0 SWAP1 DUP2 MSTORE PUSH1 0x6 PUSH1 0x20 MSTORE PUSH1 0x40 SWAP1 KECCAK256 SLOAD EQ SWAP1 JUMP JUMPDEST PUSH2 0xA95 JUMPI PUSH1 0x40 MLOAD PUSH4 0x3AB3447F PUSH1 0xE1 SHL DUP2 MSTORE PUSH1 0x4 ADD PUSH1 0x40 MLOAD DUP1 SWAP2 SUB SWAP1 REVERT JUMPDEST DUP2 DUP4 EQ DUP1 PUSH2 0x12AD JUMPI POP DUP3 ISZERO DUP1 PUSH2 0x12AD JUMPI POP DUP2 ISZERO JUMPDEST ISZERO PUSH2 0x12CB JUMPI PUSH1 0x40 MLOAD PUSH4 0x7ED98ED PUSH1 0xE3 SHL DUP2 MSTORE PUSH1 0x4 ADD PUSH1 0x40 MLOAD DUP1 SWAP2 SUB SWAP1 REVERT JUMPDEST PUSH0 DUP4 DUP2 MSTORE PUSH1 0x7 PUSH1 0x20 MSTORE PUSH1 0x40 SWAP1 KECCAK256 SLOAD ISZERO ISZERO DUP1 PUSH2 0x12F2 JUMPI POP PUSH0 DUP3 DUP2 MSTORE PUSH1 0x7 PUSH1 0x20 MSTORE PUSH1 0x40 SWAP1 KECCAK256 SLOAD ISZERO ISZERO JUMPDEST ISZERO PUSH2 0x1310 JUMPI PUSH1 0x40 MLOAD PUSH4 0xEA075BF PUSH1 0xE2 SHL DUP2 MSTORE PUSH1 0x4 ADD PUSH1 0x40 MLOAD DUP1 SWAP2 SUB SWAP1 REVERT JUMPDEST PUSH1 0x40 DUP1 MLOAD DUP1 DUP3 ADD DUP3 MSTORE DUP4 DUP2 MSTORE PUSH1 0x20 DUP1 DUP3 ADD DUP5 DUP2 MSTORE PUSH0 DUP8 DUP2 MSTORE PUSH1 0x7 DUP1 DUP5 MSTORE DUP6 DUP3 KECCAK256 SWAP5 MLOAD DUP6 SSTORE SWAP2 MLOAD PUSH1 0x1 SWAP5 DUP6 ADD SSTORE DUP5 MLOAD DUP1 DUP7 ADD DUP7 MSTORE DUP9 DUP2 MSTORE DUP1 DUP5 ADD DUP8 DUP2 MSTORE DUP9 DUP4 MSTORE SWAP3 SWAP1 SWAP4 MSTORE DUP5 DUP2 KECCAK256 SWAP3 MLOAD DUP4 SSTORE SWAP1 MLOAD SWAP2 SWAP1 SWAP3 ADD SSTORE SWAP1 MLOAD DUP3 SWAP2 DUP5 SWAP2 DUP7 SWAP2 PUSH32 0xBC9A2432E8AEB48327246CDDD6E872EF452812B4243C04E6BFB786A2CD8FAF0D SWAP2 LOG4 DUP1 DUP4 DUP4 PUSH32 0xBC9A2432E8AEB48327246CDDD6E872EF452812B4243C04E6BFB786A2CD8FAF0D PUSH1 0x40 MLOAD PUSH1 0x40 MLOAD DUP1 SWAP2 SUB SWAP1 LOG4 POP POP POP JUMP JUMPDEST PUSH1 0x60 PUSH2 0x8B7 PUSH32 0x0 PUSH1 0x3 PUSH2 0x1942 JUMP JUMPDEST PUSH1 0x60 PUSH2 0x8B7 PUSH32 0x0 PUSH1 0x4 PUSH2 0x1942 JUMP JUMPDEST PUSH0 DUP1 PUSH2 0x1425 DUP5 PUSH2 0x19EB JUMP JUMPDEST DUP1 MLOAD SWAP1 PUSH1 0x20 ADD KECCAK256 SWAP1 POP PUSH0 DUP6 PUSH1 0x40 MLOAD PUSH1 0x20 ADD PUSH2 0x144F SWAP2 SWAP1 PUSH1 0x1 PUSH1 0x1 PUSH1 0xA0 SHL SUB SWAP2 SWAP1 SWAP2 AND DUP2 MSTORE PUSH1 0x20 ADD SWAP1 JUMP JUMPDEST PUSH1 0x40 MLOAD PUSH1 0x20 DUP2 DUP4 SUB SUB DUP2 MSTORE SWAP1 PUSH1 0x40 MSTORE DUP1 MLOAD SWAP1 PUSH1 0x20 ADD KECCAK256 SWAP1 POP PUSH2 0x1472 DUP5 DUP4 DUP4 PUSH2 0x1A51 JUMP JUMPDEST SWAP7 SWAP6 POP POP POP POP POP POP JUMP JUMPDEST PUSH1 0x20 DUP2 ADD MLOAD PUSH1 0x1 PUSH1 0x1 PUSH1 0xA0 SHL SUB AND CALLER EQ PUSH2 0x14A9 JUMPI PUSH1 0x40 MLOAD PUSH4 0x30CD7471 PUSH1 0xE0 SHL DUP2 MSTORE PUSH1 0x4 ADD PUSH1 0x40 MLOAD DUP1 SWAP2 SUB SWAP1 REVERT JUMPDEST PUSH0 PUSH2 0x14B3 DUP3 PUSH2 0xE7D JUMP JUMPDEST PUSH0 DUP2 DUP2 MSTORE PUSH1 0xA PUSH1 0x20 MSTORE PUSH1 0x40 SWAP1 KECCAK256 DUP1 SLOAD SWAP2 SWAP3 POP SWAP1 PUSH1 0xFF AND ISZERO PUSH2 0x14E7 JUMPI PUSH1 0x40 MLOAD PUSH4 0x3D9C5BB7 PUSH1 0xE1 SHL DUP2 MSTORE PUSH1 0x4 ADD PUSH1 0x40 MLOAD DUP1 SWAP2 SUB SWAP1 REVERT JUMPDEST DUP1 SLOAD PUSH1 0xFF NOT AND PUSH1 0x1 OR DUP2 SSTORE PUSH1 0x40 MLOAD DUP3 SWAP1 PUSH32 0x5152ABF959F6564662358C2E52B702259B78BAC5EE7842A0F01937E670EFCC7D SWAP1 PUSH0 SWAP1 LOG2 POP POP POP JUMP JUMPDEST DUP3 MLOAD PUSH0 JUMPDEST DUP2 DUP2 LT ISZERO PUSH2 0x1572 JUMPI PUSH2 0x156A DUP6 DUP3 DUP2 MLOAD DUP2 LT PUSH2 0x1542 JUMPI PUSH2 0x1542 PUSH2 0x34E7 JUMP JUMPDEST PUSH1 0x20 MUL PUSH1 0x20 ADD ADD MLOAD DUP6 DUP4 DUP2 MLOAD DUP2 LT PUSH2 0x155C JUMPI PUSH2 0x155C PUSH2 0x34E7 JUMP JUMPDEST PUSH1 0x20 MUL PUSH1 0x20 ADD ADD MLOAD DUP6 PUSH2 0x1844 JUMP JUMPDEST PUSH1 0x1 ADD PUSH2 0x1525 JUMP JUMPDEST POP POP POP POP POP JUMP JUMPDEST PUSH0 DUP1 DUP3 PUSH1 0x2 DUP2 GT ISZERO PUSH2 0x158D JUMPI PUSH2 0x158D PUSH2 0x342D JUMP JUMPDEST SUB PUSH2 0x15A5 JUMPI PUSH2 0x159E DUP7 DUP7 DUP7 DUP7 PUSH2 0x1A8F JUMP JUMPDEST SWAP1 POP PUSH2 0xD34 JUMP JUMPDEST PUSH1 0x2 DUP3 PUSH1 0x2 DUP2 GT ISZERO PUSH2 0x15B9 JUMPI PUSH2 0x15B9 PUSH2 0x342D JUMP JUMPDEST SUB PUSH2 0x15CA JUMPI PUSH2 0x159E DUP7 DUP7 DUP7 DUP7 PUSH2 0x1AC2 JUMP JUMPDEST PUSH2 0x159E DUP7 DUP7 DUP7 DUP7 PUSH2 0x1AFB JUMP JUMPDEST PUSH0 PUSH2 0x846 PUSH2 0x15E2 PUSH2 0x1B21 JUMP JUMPDEST DUP4 PUSH1 0x40 MLOAD PUSH2 0x1901 PUSH1 0xF0 SHL DUP2 MSTORE PUSH1 0x2 DUP2 ADD SWAP3 SWAP1 SWAP3 MSTORE PUSH1 0x22 DUP3 ADD MSTORE PUSH1 0x42 SWAP1 KECCAK256 SWAP1 JUMP JUMPDEST DUP2 PUSH0 DUP1 PUSH2 0x160F DUP8 DUP5 PUSH2 0x1C4A JUMP JUMPDEST SWAP2 POP SWAP2 POP PUSH0 DUP1 PUSH2 0x161E DUP10 PUSH2 0x1C96 JUMP JUMPDEST SWAP2 POP SWAP2 POP PUSH2 0x1632 DUP10 PUSH1 0x20 ADD MLOAD ADDRESS DUP5 DUP9 PUSH2 0x1CCA JUMP JUMPDEST PUSH2 0x163D DUP10 DUP10 DUP9 PUSH2 0x1CF3 JUMP JUMPDEST PUSH2 0x1647 DUP5 DUP3 PUSH2 0x1D44 JUMP JUMPDEST PUSH2 0x120 DUP11 ADD MLOAD SWAP1 SWAP5 POP PUSH0 SWAP1 PUSH2 0x1688 SWAP1 DUP3 DUP13 PUSH2 0x140 ADD MLOAD PUSH1 0x1 DUP2 GT ISZERO PUSH2 0x166E JUMPI PUSH2 0x166E PUSH2 0x342D JUMP JUMPDEST EQ PUSH2 0x1679 JUMPI DUP8 PUSH2 0x167B JUMP JUMPDEST DUP7 JUMPDEST DUP9 DUP9 DUP15 PUSH2 0x140 ADD MLOAD PUSH2 0x1D72 JUMP JUMPDEST SWAP1 POP PUSH2 0x16A5 ADDRESS DUP12 PUSH1 0x20 ADD MLOAD DUP5 DUP5 DUP10 PUSH2 0x16A0 SWAP2 SWAP1 PUSH2 0x3522 JUMP JUMPDEST PUSH2 0x1CCA JUMP JUMPDEST PUSH2 0x16B1 ADDRESS CALLER DUP5 DUP5 PUSH2 0x1E5E JUMP JUMPDEST PUSH0 PUSH2 0x16BB DUP5 PUSH2 0x1EBA JUMP JUMPDEST SWAP1 POP DUP1 ISZERO PUSH2 0x16D3 JUMPI PUSH2 0x16D3 ADDRESS DUP13 PUSH1 0x20 ADD MLOAD DUP7 DUP5 PUSH2 0x1CCA JUMP JUMPDEST PUSH1 0x20 DUP12 DUP2 ADD MLOAD PUSH1 0x40 DUP1 MLOAD DUP8 DUP2 MSTORE SWAP3 DUP4 ADD DUP7 SWAP1 MSTORE DUP3 ADD DUP10 SWAP1 MSTORE PUSH1 0x60 DUP3 ADD DUP9 SWAP1 MSTORE PUSH1 0x80 DUP3 ADD DUP5 SWAP1 MSTORE ADDRESS SWAP2 PUSH1 0x1 PUSH1 0x1 PUSH1 0xA0 SHL SUB SWAP1 SWAP2 AND SWAP1 DUP8 SWAP1 PUSH32 0xD0A08E8C493F9C94F29311604C9DE1B4E8C8D4C06BD0C789AF57F2D65BFEC0F6 SWAP1 PUSH1 0xA0 ADD PUSH1 0x40 MLOAD DUP1 SWAP2 SUB SWAP1 LOG4 PUSH1 0x20 DUP1 DUP13 ADD MLOAD PUSH1 0x40 DUP1 MLOAD DUP8 DUP2 MSTORE SWAP3 DUP4 ADD DUP7 SWAP1 MSTORE DUP3 ADD DUP10 SWAP1 MSTORE PUSH1 0x60 DUP3 ADD DUP9 SWAP1 MSTORE PUSH1 0x1 PUSH1 0x1 PUSH1 0xA0 SHL SUB AND SWAP1 DUP7 SWAP1 PUSH32 0x63BF4D16B7FA898EF4C4B2B6D90FD201E9C56313B65638AF6088D149D2CE956C SWAP1 PUSH1 0x80 ADD PUSH1 0x40 MLOAD DUP1 SWAP2 SUB SWAP1 LOG3 POP POP POP POP POP POP POP POP POP POP POP JUMP JUMPDEST PUSH1 0x40 MLOAD PUSH12 0xFFFFFFFFFFFFFFFFFFFFFFFF NOT PUSH1 0x60 DUP6 SWAP1 SHL AND PUSH1 0x20 DUP3 ADD MSTORE PUSH0 SWAP1 PUSH2 0x17DF SWAP1 DUP4 SWAP1 DUP6 SWAP1 PUSH1 0x34 ADD PUSH1 0x40 MLOAD PUSH1 0x20 DUP2 DUP4 SUB SUB DUP2 MSTORE SWAP1 PUSH1 0x40 MSTORE DUP1 MLOAD SWAP1 PUSH1 0x20 ADD KECCAK256 PUSH2 0x1F9A JUMP JUMPDEST SWAP1 POP JUMPDEST SWAP4 SWAP3 POP POP POP JUMP JUMPDEST PUSH1 0x8 SLOAD PUSH1 0x40 MLOAD PUSH1 0x1 PUSH1 0x1 PUSH1 0xA0 SHL SUB DUP1 DUP5 AND SWAP3 AND SWAP1 PUSH32 0x3053C6252A932554235C173CAFFC1913604DBA3A41CEE89516F631C4A1A50A37 SWAP1 PUSH0 SWAP1 LOG3 PUSH1 0x8 DUP1 SLOAD PUSH1 0x1 PUSH1 0x1 PUSH1 0xA0 SHL SUB NOT AND PUSH1 0x1 PUSH1 0x1 PUSH1 0xA0 SHL SUB SWAP3 SWAP1 SWAP3 AND SWAP2 SWAP1 SWAP2 OR SWAP1 SSTORE JUMP JUMPDEST DUP2 PUSH0 DUP1 PUSH2 0x1851 DUP7 DUP5 PUSH2 0x1C4A JUMP JUMPDEST PUSH2 0x120 DUP9 ADD MLOAD SWAP2 SWAP4 POP SWAP2 POP PUSH0 SWAP1 PUSH2 0x189D SWAP1 DUP3 JUMPDEST DUP10 PUSH2 0x140 ADD MLOAD PUSH1 0x1 DUP2 GT ISZERO PUSH2 0x187B JUMPI PUSH2 0x187B PUSH2 0x342D JUMP JUMPDEST EQ PUSH2 0x1886 JUMPI DUP6 PUSH2 0x1888 JUMP JUMPDEST DUP5 JUMPDEST DUP10 PUSH1 0xA0 ADD MLOAD DUP11 PUSH1 0xC0 ADD MLOAD DUP12 PUSH2 0x140 ADD MLOAD PUSH2 0x1D72 JUMP JUMPDEST SWAP1 POP PUSH0 DUP1 PUSH2 0x18AA DUP10 PUSH2 0x1C96 JUMP JUMPDEST SWAP2 POP SWAP2 POP PUSH2 0x18C4 CALLER DUP11 PUSH1 0x20 ADD MLOAD DUP4 DUP7 DUP10 PUSH2 0x16A0 SWAP2 SWAP1 PUSH2 0x3522 JUMP JUMPDEST PUSH2 0x18D4 DUP10 PUSH1 0x20 ADD MLOAD DUP9 DUP5 DUP10 PUSH2 0x1CCA JUMP JUMPDEST PUSH1 0x20 DUP10 DUP2 ADD MLOAD PUSH1 0x40 DUP1 MLOAD DUP6 DUP2 MSTORE SWAP3 DUP4 ADD DUP5 SWAP1 MSTORE DUP3 ADD DUP9 SWAP1 MSTORE PUSH1 0x60 DUP3 ADD DUP8 SWAP1 MSTORE PUSH1 0x80 DUP3 ADD DUP6 SWAP1 MSTORE CALLER SWAP2 PUSH1 0x1 PUSH1 0x1 PUSH1 0xA0 SHL SUB SWAP1 SWAP2 AND SWAP1 DUP7 SWAP1 PUSH32 0xD0A08E8C493F9C94F29311604C9DE1B4E8C8D4C06BD0C789AF57F2D65BFEC0F6 SWAP1 PUSH1 0xA0 ADD PUSH1 0x40 MLOAD DUP1 SWAP2 SUB SWAP1 LOG4 POP POP POP POP POP POP POP POP POP JUMP JUMPDEST PUSH1 0x60 PUSH1 0xFF DUP4 EQ PUSH2 0x195C JUMPI PUSH2 0x1955 DUP4 PUSH2 0x1FED JUMP JUMPDEST SWAP1 POP PUSH2 0x846 JUMP JUMPDEST DUP2 DUP1 SLOAD PUSH2 0x1968 SWAP1 PUSH2 0x3535 JUMP JUMPDEST DUP1 PUSH1 0x1F ADD PUSH1 0x20 DUP1 SWAP2 DIV MUL PUSH1 0x20 ADD PUSH1 0x40 MLOAD SWAP1 DUP2 ADD PUSH1 0x40 MSTORE DUP1 SWAP3 SWAP2 SWAP1 DUP2 DUP2 MSTORE PUSH1 0x20 ADD DUP3 DUP1 SLOAD PUSH2 0x1994 SWAP1 PUSH2 0x3535 JUMP JUMPDEST DUP1 ISZERO PUSH2 0x19DF JUMPI DUP1 PUSH1 0x1F LT PUSH2 0x19B6 JUMPI PUSH2 0x100 DUP1 DUP4 SLOAD DIV MUL DUP4 MSTORE SWAP2 PUSH1 0x20 ADD SWAP2 PUSH2 0x19DF JUMP JUMPDEST DUP3 ADD SWAP2 SWAP1 PUSH0 MSTORE PUSH1 0x20 PUSH0 KECCAK256 SWAP1 JUMPDEST DUP2 SLOAD DUP2 MSTORE SWAP1 PUSH1 0x1 ADD SWAP1 PUSH1 0x20 ADD DUP1 DUP4 GT PUSH2 0x19C2 JUMPI DUP3 SWAP1 SUB PUSH1 0x1F AND DUP3 ADD SWAP2 JUMPDEST POP POP POP POP POP SWAP1 POP PUSH2 0x846 JUMP JUMPDEST PUSH1 0x60 PUSH1 0x40 MLOAD DUP1 PUSH2 0x1A0 ADD PUSH1 0x40 MSTORE DUP1 PUSH2 0x171 DUP2 MSTORE PUSH1 0x20 ADD PUSH2 0x366F PUSH2 0x171 SWAP2 CODECOPY PUSH1 0x40 DUP1 MLOAD PUSH1 0x1 PUSH1 0x1 PUSH1 0xA0 SHL SUB DUP6 AND PUSH1 0x20 DUP3 ADD MSTORE ADD PUSH1 0x40 DUP1 MLOAD PUSH1 0x1F NOT DUP2 DUP5 SUB ADD DUP2 MSTORE SWAP1 DUP3 SWAP1 MSTORE PUSH2 0x1A3B SWAP3 SWAP2 PUSH1 0x20 ADD PUSH2 0x3584 JUMP JUMPDEST PUSH1 0x40 MLOAD PUSH1 0x20 DUP2 DUP4 SUB SUB DUP2 MSTORE SWAP1 PUSH1 0x40 MSTORE SWAP1 POP SWAP2 SWAP1 POP JUMP JUMPDEST PUSH0 DUP1 PUSH1 0xFF PUSH1 0xF8 SHL DUP6 DUP5 DUP7 PUSH1 0x40 MLOAD PUSH1 0x20 ADD PUSH2 0x1A6E SWAP5 SWAP4 SWAP3 SWAP2 SWAP1 PUSH2 0x3598 JUMP JUMPDEST PUSH1 0x40 DUP1 MLOAD DUP1 DUP4 SUB PUSH1 0x1F NOT ADD DUP2 MSTORE SWAP2 SWAP1 MSTORE DUP1 MLOAD PUSH1 0x20 SWAP1 SWAP2 ADD KECCAK256 SWAP6 SWAP5 POP POP POP POP POP JUMP JUMPDEST PUSH0 DUP4 PUSH1 0x1 PUSH1 0x1 PUSH1 0xA0 SHL SUB AND DUP6 PUSH1 0x1 PUSH1 0x1 PUSH1 0xA0 SHL SUB AND EQ DUP1 ISZERO PUSH2 0x1AB7 JUMPI POP PUSH2 0x1AB7 DUP6 DUP5 DUP5 PUSH2 0x202A JUMP JUMPDEST SWAP1 POP JUMPDEST SWAP5 SWAP4 POP POP POP POP JUMP JUMPDEST PUSH0 PUSH2 0x1ACE DUP6 DUP5 DUP5 PUSH2 0x202A JUMP JUMPDEST DUP1 ISZERO PUSH2 0x1AB7 JUMPI POP DUP4 PUSH1 0x1 PUSH1 0x1 PUSH1 0xA0 SHL SUB AND PUSH2 0x1AE8 DUP7 PUSH2 0xC8F JUMP JUMPDEST PUSH1 0x1 PUSH1 0x1 PUSH1 0xA0 SHL SUB AND EQ SWAP6 SWAP5 POP POP POP POP POP JUMP JUMPDEST PUSH0 PUSH2 0x1B07 DUP6 DUP5 DUP5 PUSH2 0x202A JUMP JUMPDEST DUP1 ISZERO PUSH2 0x1AB7 JUMPI POP DUP4 PUSH1 0x1 PUSH1 0x1 PUSH1 0xA0 SHL SUB AND PUSH2 0x1AE8 DUP7 PUSH2 0xFA7 JUMP JUMPDEST PUSH0 ADDRESS PUSH1 0x1 PUSH1 0x1 PUSH1 0xA0 SHL SUB PUSH32 0x0 AND EQ DUP1 ISZERO PUSH2 0x1B79 JUMPI POP PUSH32 0x0 CHAINID EQ JUMPDEST ISZERO PUSH2 0x1BA3 JUMPI POP PUSH32 0x0 SWAP1 JUMP JUMPDEST PUSH2 0x8B7 PUSH1 0x40 DUP1 MLOAD PUSH32 0x8B73C3C69BB8FE3D512ECC4CF759CC79239F7B179B0FFACAA9A75D522B39400F PUSH1 0x20 DUP3 ADD MSTORE PUSH32 0x0 SWAP2 DUP2 ADD SWAP2 SWAP1 SWAP2 MSTORE PUSH32 0x0 PUSH1 0x60 DUP3 ADD MSTORE CHAINID PUSH1 0x80 DUP3 ADD MSTORE ADDRESS PUSH1 0xA0 DUP3 ADD MSTORE PUSH0 SWAP1 PUSH1 0xC0 ADD PUSH1 0x40 MLOAD PUSH1 0x20 DUP2 DUP4 SUB SUB DUP2 MSTORE SWAP1 PUSH1 0x40 MSTORE DUP1 MLOAD SWAP1 PUSH1 0x20 ADD KECCAK256 SWAP1 POP SWAP1 JUMP JUMPDEST PUSH0 DUP1 PUSH2 0x1C59 DUP5 PUSH1 0x60 ADD MLOAD PUSH2 0x2051 JUMP JUMPDEST PUSH2 0x1C62 DUP5 PUSH2 0xE7D JUMP JUMPDEST SWAP1 POP PUSH2 0x1C6E DUP2 DUP6 PUSH2 0x11AE JUMP JUMPDEST PUSH2 0x1C81 DUP4 DUP6 PUSH1 0xA0 ADD MLOAD DUP7 PUSH1 0xC0 ADD MLOAD PUSH2 0x2090 JUMP JUMPDEST SWAP2 POP PUSH2 0x1C8E DUP2 DUP6 DUP6 PUSH2 0x20B4 JUMP JUMPDEST POP SWAP3 POP SWAP3 SWAP1 POP JUMP JUMPDEST PUSH0 DUP1 DUP1 DUP4 PUSH2 0x140 ADD MLOAD PUSH1 0x1 DUP2 GT ISZERO PUSH2 0x1CB0 JUMPI PUSH2 0x1CB0 PUSH2 0x342D JUMP JUMPDEST SUB PUSH2 0x1CBF JUMPI POP POP PUSH1 0x80 ADD MLOAD PUSH0 SWAP2 JUMP JUMPDEST POP POP PUSH1 0x80 ADD MLOAD SWAP1 PUSH0 SWAP1 JUMP JUMPDEST DUP2 PUSH0 SUB PUSH2 0x1CE1 JUMPI PUSH2 0x1CDC DUP5 DUP5 DUP4 PUSH2 0x2128 JUMP JUMPDEST PUSH2 0x1CED JUMP JUMPDEST PUSH2 0x1CED DUP5 DUP5 DUP5 DUP5 PUSH2 0x2170 JUMP JUMPDEST POP POP POP POP JUMP JUMPDEST DUP2 MLOAD PUSH0 JUMPDEST DUP2 DUP2 LT ISZERO PUSH2 0x1572 JUMPI PUSH2 0x1D3C DUP6 DUP6 DUP4 DUP2 MLOAD DUP2 LT PUSH2 0x1D15 JUMPI PUSH2 0x1D15 PUSH2 0x34E7 JUMP JUMPDEST PUSH1 0x20 MUL PUSH1 0x20 ADD ADD MLOAD DUP6 DUP5 DUP2 MLOAD DUP2 LT PUSH2 0x1D2F JUMPI PUSH2 0x1D2F PUSH2 0x34E7 JUMP JUMPDEST PUSH1 0x20 MUL PUSH1 0x20 ADD ADD MLOAD PUSH2 0x219D JUMP JUMPDEST PUSH1 0x1 ADD PUSH2 0x1CF7 JUMP JUMPDEST PUSH0 DUP1 PUSH2 0x1D4F DUP4 PUSH2 0x1EBA JUMP JUMPDEST SWAP1 POP DUP4 DUP2 LT ISZERO PUSH2 0x17E2 JUMPI PUSH1 0x40 MLOAD PUSH4 0x1BE9B01 PUSH1 0xE7 SHL DUP2 MSTORE PUSH1 0x4 ADD PUSH1 0x40 MLOAD DUP1 SWAP2 SUB SWAP1 REVERT JUMPDEST PUSH0 DUP6 ISZERO PUSH2 0xD34 JUMPI PUSH0 PUSH2 0x1D85 DUP6 DUP6 DUP6 PUSH2 0x2271 JUMP JUMPDEST SWAP1 POP PUSH0 DUP2 GT DUP1 ISZERO PUSH2 0x1D9E JUMPI POP PUSH8 0xDE0B6B3A7640000 DUP2 GT ISZERO JUMPDEST ISZERO PUSH2 0x1E54 JUMPI PUSH0 DUP4 PUSH1 0x1 DUP2 GT ISZERO PUSH2 0x1DB6 JUMPI PUSH2 0x1DB6 PUSH2 0x342D JUMP JUMPDEST SUB PUSH2 0x1E08 JUMPI PUSH2 0x1DC7 PUSH2 0x2710 DUP3 PUSH2 0x35D1 JUMP JUMPDEST DUP7 PUSH2 0x1DE3 DUP4 PUSH2 0x1DDE DUP2 PUSH8 0xDE0B6B3A7640000 PUSH2 0x3522 JUMP JUMPDEST PUSH2 0x22DB JUMP JUMPDEST PUSH2 0x1DED SWAP1 DUP11 PUSH2 0x35D1 JUMP JUMPDEST PUSH2 0x1DF7 SWAP2 SWAP1 PUSH2 0x35D1 JUMP JUMPDEST PUSH2 0x1E01 SWAP2 SWAP1 PUSH2 0x35E8 JUMP JUMPDEST SWAP2 POP PUSH2 0x1E54 JUMP JUMPDEST PUSH2 0x1E1C PUSH8 0xDE0B6B3A7640000 PUSH2 0x2710 PUSH2 0x35D1 JUMP JUMPDEST DUP7 PUSH2 0x1E33 DUP4 PUSH2 0x1DDE DUP2 PUSH8 0xDE0B6B3A7640000 PUSH2 0x3522 JUMP JUMPDEST PUSH2 0x1E3D SWAP1 DUP11 PUSH2 0x35D1 JUMP JUMPDEST PUSH2 0x1E47 SWAP2 SWAP1 PUSH2 0x35D1 JUMP JUMPDEST PUSH2 0x1E51 SWAP2 SWAP1 PUSH2 0x35E8 JUMP JUMPDEST SWAP2 POP JUMPDEST POP SWAP6 SWAP5 POP POP POP POP POP JUMP JUMPDEST DUP1 ISZERO PUSH2 0x1CED JUMPI PUSH2 0x1E70 DUP5 DUP5 DUP5 DUP5 PUSH2 0x1CCA JUMP JUMPDEST PUSH1 0x40 DUP1 MLOAD DUP4 DUP2 MSTORE PUSH1 0x20 DUP2 ADD DUP4 SWAP1 MSTORE PUSH1 0x1 PUSH1 0x1 PUSH1 0xA0 SHL SUB DUP6 AND SWAP2 PUSH32 0xACFFCC86834D0F1A64B0D5A675798DEED6FF0BCFC2231EDD3480E7288DBA7FF4 SWAP2 ADD PUSH1 0x40 MLOAD DUP1 SWAP2 SUB SWAP1 LOG2 POP POP POP POP JUMP JUMPDEST PUSH0 DUP2 PUSH0 SUB PUSH2 0x1F49 JUMPI PUSH1 0x40 MLOAD PUSH4 0x70A08231 PUSH1 0xE0 SHL DUP2 MSTORE ADDRESS PUSH1 0x4 DUP3 ADD MSTORE PUSH1 0x1 PUSH1 0x1 PUSH1 0xA0 SHL SUB PUSH32 0x0 AND SWAP1 PUSH4 0x70A08231 SWAP1 PUSH1 0x24 ADD JUMPDEST PUSH1 0x20 PUSH1 0x40 MLOAD DUP1 DUP4 SUB DUP2 DUP7 GAS STATICCALL ISZERO DUP1 ISZERO PUSH2 0x1F25 JUMPI RETURNDATASIZE PUSH0 DUP1 RETURNDATACOPY RETURNDATASIZE PUSH0 REVERT JUMPDEST POP POP POP POP PUSH1 0x40 MLOAD RETURNDATASIZE PUSH1 0x1F NOT PUSH1 0x1F DUP3 ADD AND DUP3 ADD DUP1 PUSH1 0x40 MSTORE POP DUP2 ADD SWAP1 PUSH2 0x846 SWAP2 SWAP1 PUSH2 0x3607 JUMP JUMPDEST PUSH1 0x40 MLOAD PUSH3 0x7EEAC7 PUSH1 0xE1 SHL DUP2 MSTORE ADDRESS PUSH1 0x4 DUP3 ADD MSTORE PUSH1 0x24 DUP2 ADD DUP4 SWAP1 MSTORE PUSH1 0x1 PUSH1 0x1 PUSH1 0xA0 SHL SUB PUSH32 0x0 AND SWAP1 PUSH3 0xFDD58E SWAP1 PUSH1 0x44 ADD PUSH2 0x1F0A JUMP JUMPDEST PUSH0 DUP1 PUSH2 0x1FA6 DUP6 DUP6 PUSH2 0x22F0 JUMP JUMPDEST DUP1 MLOAD SWAP1 PUSH1 0x20 ADD KECCAK256 SWAP1 POP PUSH0 PUSH1 0xFF PUSH1 0xF8 SHL DUP7 DUP6 DUP5 PUSH1 0x40 MLOAD PUSH1 0x20 ADD PUSH2 0x1FCB SWAP5 SWAP4 SWAP3 SWAP2 SWAP1 PUSH2 0x3598 JUMP JUMPDEST PUSH1 0x40 DUP1 MLOAD DUP1 DUP4 SUB PUSH1 0x1F NOT ADD DUP2 MSTORE SWAP2 SWAP1 MSTORE DUP1 MLOAD PUSH1 0x20 SWAP1 SWAP2 ADD KECCAK256 SWAP7 SWAP6 POP POP POP POP POP POP JUMP JUMPDEST PUSH1 0x60 PUSH0 PUSH2 0x1FF9 DUP4 PUSH2 0x2405 JUMP JUMPDEST PUSH1 0x40 DUP1 MLOAD PUSH1 0x20 DUP1 DUP3 MSTORE DUP2 DUP4 ADD SWAP1 SWAP3 MSTORE SWAP2 SWAP3 POP PUSH0 SWAP2 SWAP1 PUSH1 0x20 DUP3 ADD DUP2 DUP1 CALLDATASIZE DUP4 CALLDATACOPY POP POP POP SWAP2 DUP3 MSTORE POP PUSH1 0x20 DUP2 ADD SWAP3 SWAP1 SWAP3 MSTORE POP SWAP1 JUMP JUMPDEST PUSH0 DUP4 PUSH1 0x1 PUSH1 0x1 PUSH1 0xA0 SHL SUB AND PUSH2 0x203F DUP5 DUP5 PUSH2 0x242C JUMP JUMPDEST PUSH1 0x1 PUSH1 0x1 PUSH1 0xA0 SHL SUB AND EQ SWAP5 SWAP4 POP POP POP POP JUMP JUMPDEST PUSH1 0x1 PUSH1 0x1 PUSH1 0xA0 SHL SUB DUP2 AND ISZERO DUP1 ISZERO SWAP1 PUSH2 0x2072 JUMPI POP PUSH1 0x1 PUSH1 0x1 PUSH1 0xA0 SHL SUB DUP2 AND CALLER EQ ISZERO JUMPDEST ISZERO PUSH2 0x998 JUMPI PUSH1 0x40 MLOAD PUSH4 0x5211A079 PUSH1 0xE0 SHL DUP2 MSTORE PUSH1 0x4 ADD PUSH1 0x40 MLOAD DUP1 SWAP2 SUB SWAP1 REVERT JUMPDEST PUSH0 DUP3 PUSH0 SUB PUSH2 0x209F JUMPI POP PUSH0 PUSH2 0x17E2 JUMP JUMPDEST DUP3 PUSH2 0x20AA DUP4 DUP7 PUSH2 0x35D1 JUMP JUMPDEST PUSH2 0x17DF SWAP2 SWAP1 PUSH2 0x35E8 JUMP JUMPDEST PUSH0 DUP4 DUP2 MSTORE PUSH1 0xA PUSH1 0x20 MSTORE PUSH1 0x40 SWAP1 KECCAK256 PUSH1 0x1 DUP2 ADD SLOAD SWAP1 DUP2 ISZERO PUSH2 0x20D3 JUMPI DUP2 PUSH2 0x20D9 JUMP JUMPDEST DUP4 PUSH1 0xA0 ADD MLOAD JUMPDEST SWAP2 POP DUP2 DUP4 GT ISZERO PUSH2 0x20FC JUMPI PUSH1 0x40 MLOAD PUSH4 0x7166356B PUSH1 0xE1 SHL DUP2 MSTORE PUSH1 0x4 ADD PUSH1 0x40 MLOAD DUP1 SWAP2 SUB SWAP1 REVERT JUMPDEST PUSH2 0x2106 DUP4 DUP4 PUSH2 0x3522 JUMP JUMPDEST SWAP2 POP DUP2 PUSH0 SUB PUSH2 0x211B JUMPI DUP1 SLOAD PUSH1 0xFF NOT AND PUSH1 0x1 OR DUP2 SSTORE JUMPDEST PUSH1 0x1 ADD DUP2 SWAP1 SSTORE SWAP4 SWAP3 POP POP POP JUMP JUMPDEST PUSH32 0x0 ADDRESS PUSH1 0x1 PUSH1 0x1 PUSH1 0xA0 SHL SUB DUP6 AND SUB PUSH2 0x2164 JUMPI PUSH2 0x1CDC DUP2 DUP5 DUP5 PUSH2 0x2454 JUMP JUMPDEST PUSH2 0x1CED DUP2 DUP6 DUP6 DUP6 PUSH2 0x245F JUMP JUMPDEST PUSH2 0x1CED PUSH32 0x0 DUP6 DUP6 DUP6 DUP6 PUSH2 0x246B JUMP JUMPDEST PUSH0 PUSH2 0x21A8 DUP5 DUP5 PUSH2 0x24EB JUMP JUMPDEST SWAP1 POP PUSH2 0x21B5 DUP5 DUP5 DUP4 PUSH2 0x2584 JUMP JUMPDEST DUP2 PUSH0 DUP1 PUSH2 0x21C2 DUP7 DUP5 PUSH2 0x1C4A JUMP JUMPDEST PUSH2 0x120 DUP9 ADD MLOAD SWAP2 SWAP4 POP SWAP2 POP PUSH0 SWAP1 PUSH2 0x21D9 SWAP1 DUP3 PUSH2 0x1864 JUMP JUMPDEST SWAP1 POP PUSH0 DUP1 PUSH2 0x21E6 DUP10 PUSH2 0x1C96 JUMP JUMPDEST SWAP2 POP SWAP2 POP PUSH2 0x21FD DUP7 DUP7 DUP12 PUSH1 0x20 ADD MLOAD DUP6 DUP6 DUP13 DUP10 PUSH2 0x25FD JUMP JUMPDEST PUSH1 0x20 DUP1 DUP12 ADD MLOAD DUP11 DUP3 ADD MLOAD PUSH1 0x40 DUP1 MLOAD DUP7 DUP2 MSTORE SWAP4 DUP5 ADD DUP6 SWAP1 MSTORE DUP4 ADD DUP10 SWAP1 MSTORE PUSH1 0x60 DUP4 ADD DUP9 SWAP1 MSTORE PUSH1 0x80 DUP4 ADD DUP7 SWAP1 MSTORE PUSH1 0x1 PUSH1 0x1 PUSH1 0xA0 SHL SUB SWAP2 DUP3 AND SWAP3 SWAP2 AND SWAP1 DUP7 SWAP1 PUSH32 0xD0A08E8C493F9C94F29311604C9DE1B4E8C8D4C06BD0C789AF57F2D65BFEC0F6 SWAP1 PUSH1 0xA0 ADD PUSH1 0x40 MLOAD DUP1 SWAP2 SUB SWAP1 LOG4 POP POP POP POP POP POP POP POP POP POP JUMP JUMPDEST PUSH0 DUP1 DUP3 PUSH1 0x1 DUP2 GT ISZERO PUSH2 0x2285 JUMPI PUSH2 0x2285 PUSH2 0x342D JUMP JUMPDEST SUB PUSH2 0x22BB JUMPI DUP3 PUSH0 SUB PUSH2 0x2297 JUMPI PUSH0 PUSH2 0x22B4 JUMP JUMPDEST DUP3 PUSH2 0x22AA PUSH8 0xDE0B6B3A7640000 DUP7 PUSH2 0x35D1 JUMP JUMPDEST PUSH2 0x22B4 SWAP2 SWAP1 PUSH2 0x35E8 JUMP JUMPDEST SWAP1 POP PUSH2 0x17E2 JUMP JUMPDEST DUP4 PUSH0 SUB PUSH2 0x22C8 JUMPI PUSH0 PUSH2 0x17DF JUMP JUMPDEST DUP4 PUSH2 0x20AA PUSH8 0xDE0B6B3A7640000 DUP6 PUSH2 0x35D1 JUMP JUMPDEST PUSH0 DUP2 DUP4 LT PUSH2 0x22E9 JUMPI DUP2 PUSH2 0x17E2 JUMP JUMPDEST POP SWAP1 SWAP2 SWAP1 POP JUMP JUMPDEST PUSH1 0x40 DUP1 MLOAD PUSH0 DUP1 DUP3 MSTORE PUSH1 0x20 DUP3 ADD SWAP1 SWAP3 MSTORE PUSH1 0x60 SWAP2 SWAP1 PUSH2 0x2310 SWAP1 PUSH1 0x44 DUP2 ADD PUSH2 0x361E JUMP JUMPDEST PUSH1 0x40 DUP1 MLOAD PUSH1 0x1F NOT DUP2 DUP5 SUB ADD DUP2 MSTORE SWAP2 DUP2 MSTORE PUSH1 0x20 DUP1 DUP4 ADD DUP1 MLOAD PUSH1 0x1 PUSH1 0x1 PUSH1 0xE0 SHL SUB AND PUSH4 0x52E831DD PUSH1 0xE0 SHL OR SWAP1 MSTORE DUP2 MLOAD PUSH1 0x63 DUP1 DUP3 MSTORE PUSH1 0xA0 DUP3 ADD SWAP1 SWAP4 MSTORE SWAP3 SWAP4 POP PUSH0 SWAP3 SWAP2 SWAP1 DUP3 ADD DUP2 DUP1 CALLDATASIZE DUP4 CALLDATACOPY ADD SWAP1 POP POP SWAP1 POP PUSH32 0x3D3D606380380380913D393D73BEBEBEBEBEBEBEBEBEBEBEBEBEBEBEBEBEBEBE PUSH1 0x20 DUP3 ADD MSTORE PUSH1 0x1 PUSH1 0x60 SHL DUP6 MUL PUSH1 0x2D DUP3 ADD MSTORE PUSH32 0x5AF4602A57600080FD5B602D8060366000396000F3363D3D373D3D3D363D73BE PUSH1 0x41 DUP3 ADD MSTORE PUSH1 0x1 PUSH1 0x60 SHL DUP5 MUL PUSH1 0x60 DUP3 ADD MSTORE PUSH15 0x5AF43D82803E903D91602B57FD5BF3 PUSH1 0x88 SHL PUSH1 0x74 DUP3 ADD MSTORE DUP1 DUP3 PUSH1 0x40 MLOAD PUSH1 0x20 ADD PUSH2 0x23EC SWAP3 SWAP2 SWAP1 PUSH2 0x3584 JUMP JUMPDEST PUSH1 0x40 MLOAD PUSH1 0x20 DUP2 DUP4 SUB SUB DUP2 MSTORE SWAP1 PUSH1 0x40 MSTORE SWAP3 POP POP POP SWAP3 SWAP2 POP POP JUMP JUMPDEST PUSH0 PUSH1 0xFF DUP3 AND PUSH1 0x1F DUP2 GT ISZERO PUSH2 0x846 JUMPI PUSH1 0x40 MLOAD PUSH4 0x2CD44AC3 PUSH1 0xE2 SHL DUP2 MSTORE PUSH1 0x4 ADD PUSH1 0x40 MLOAD DUP1 SWAP2 SUB SWAP1 REVERT JUMPDEST PUSH0 DUP1 PUSH0 DUP1 PUSH2 0x243A DUP7 DUP7 PUSH2 0x2664 JUMP JUMPDEST SWAP3 POP SWAP3 POP SWAP3 POP PUSH2 0x244A DUP3 DUP3 PUSH2 0x26AD JUMP JUMPDEST POP SWAP1 SWAP5 SWAP4 POP POP POP POP JUMP JUMPDEST PUSH2 0xAD4 DUP4 DUP4 DUP4 PUSH2 0x2765 JUMP JUMPDEST PUSH2 0x1CED DUP5 DUP5 DUP5 DUP5 PUSH2 0x27E2 JUMP JUMPDEST PUSH1 0x40 MLOAD PUSH4 0x79212195 PUSH1 0xE1 SHL DUP2 MSTORE PUSH1 0x1 PUSH1 0x1 PUSH1 0xA0 SHL SUB DUP6 DUP2 AND PUSH1 0x4 DUP4 ADD MSTORE DUP5 DUP2 AND PUSH1 0x24 DUP4 ADD MSTORE PUSH1 0x44 DUP3 ADD DUP5 SWAP1 MSTORE PUSH1 0x64 DUP3 ADD DUP4 SWAP1 MSTORE PUSH1 0xA0 PUSH1 0x84 DUP4 ADD MSTORE PUSH0 PUSH1 0xA4 DUP4 ADD MSTORE DUP7 AND SWAP1 PUSH4 0xF242432A SWAP1 PUSH1 0xC4 ADD PUSH0 PUSH1 0x40 MLOAD DUP1 DUP4 SUB DUP2 PUSH0 DUP8 DUP1 EXTCODESIZE ISZERO DUP1 ISZERO PUSH2 0x24CE JUMPI PUSH0 DUP1 REVERT JUMPDEST POP GAS CALL ISZERO DUP1 ISZERO PUSH2 0x24E0 JUMPI RETURNDATASIZE PUSH0 DUP1 RETURNDATACOPY RETURNDATASIZE PUSH0 REVERT JUMPDEST POP POP POP POP POP POP POP POP POP JUMP JUMPDEST PUSH0 DUP1 DUP4 PUSH2 0x140 ADD MLOAD PUSH1 0x1 DUP2 GT ISZERO PUSH2 0x2504 JUMPI PUSH2 0x2504 PUSH2 0x342D JUMP JUMPDEST EQ DUP1 ISZERO PUSH2 0x2526 JUMPI POP PUSH0 DUP3 PUSH2 0x140 ADD MLOAD PUSH1 0x1 DUP2 GT ISZERO PUSH2 0x2524 JUMPI PUSH2 0x2524 PUSH2 0x342D JUMP JUMPDEST EQ JUMPDEST ISZERO PUSH2 0x2533 JUMPI POP PUSH1 0x1 PUSH2 0x846 JUMP JUMPDEST PUSH1 0x1 DUP4 PUSH2 0x140 ADD MLOAD PUSH1 0x1 DUP2 GT ISZERO PUSH2 0x254C JUMPI PUSH2 0x254C PUSH2 0x342D JUMP JUMPDEST EQ DUP1 ISZERO PUSH2 0x256F JUMPI POP PUSH1 0x1 DUP3 PUSH2 0x140 ADD MLOAD PUSH1 0x1 DUP2 GT ISZERO PUSH2 0x256D JUMPI PUSH2 0x256D PUSH2 0x342D JUMP JUMPDEST EQ JUMPDEST ISZERO PUSH2 0x257C JUMPI POP PUSH1 0x2 PUSH2 0x846 JUMP JUMPDEST POP PUSH0 SWAP3 SWAP2 POP POP JUMP JUMPDEST PUSH2 0x258E DUP4 DUP4 PUSH2 0x2873 JUMP JUMPDEST PUSH2 0x25AB JUMPI PUSH1 0x40 MLOAD PUSH4 0x3FCD37A3 PUSH1 0xE1 SHL DUP2 MSTORE PUSH1 0x4 ADD PUSH1 0x40 MLOAD DUP1 SWAP2 SUB SWAP1 REVERT JUMPDEST PUSH0 DUP2 PUSH1 0x2 DUP2 GT ISZERO PUSH2 0x25BE JUMPI PUSH2 0x25BE PUSH2 0x342D JUMP JUMPDEST SUB PUSH2 0x25EB JUMPI DUP2 PUSH1 0x80 ADD MLOAD DUP4 PUSH1 0x80 ADD MLOAD EQ PUSH2 0xAD4 JUMPI PUSH1 0x40 MLOAD PUSH4 0xA0B94465 PUSH1 0xE0 SHL DUP2 MSTORE PUSH1 0x4 ADD PUSH1 0x40 MLOAD DUP1 SWAP2 SUB SWAP1 REVERT JUMPDEST PUSH2 0xAD4 DUP4 PUSH1 0x80 ADD MLOAD DUP4 PUSH1 0x80 ADD MLOAD PUSH2 0xDD2 JUMP JUMPDEST PUSH2 0x2609 DUP6 ADDRESS DUP7 DUP11 PUSH2 0x1CCA JUMP JUMPDEST PUSH2 0x2616 DUP8 DUP8 DUP7 DUP7 DUP7 PUSH2 0x28BB JUMP JUMPDEST DUP6 PUSH2 0x2620 DUP5 PUSH2 0x1EBA JUMP JUMPDEST LT ISZERO PUSH2 0x263F JUMPI PUSH1 0x40 MLOAD PUSH4 0x1BE9B01 PUSH1 0xE7 SHL DUP2 MSTORE PUSH1 0x4 ADD PUSH1 0x40 MLOAD DUP1 SWAP2 SUB SWAP1 REVERT JUMPDEST PUSH2 0x264F ADDRESS DUP7 DUP6 PUSH2 0x16A0 DUP6 DUP12 PUSH2 0x3522 JUMP JUMPDEST PUSH2 0x265B ADDRESS CALLER DUP6 DUP5 PUSH2 0x1E5E JUMP JUMPDEST POP POP POP POP POP POP POP JUMP JUMPDEST PUSH0 DUP1 PUSH0 DUP4 MLOAD PUSH1 0x41 SUB PUSH2 0x269B JUMPI PUSH1 0x20 DUP5 ADD MLOAD PUSH1 0x40 DUP6 ADD MLOAD PUSH1 0x60 DUP7 ADD MLOAD PUSH0 BYTE PUSH2 0x268D DUP9 DUP3 DUP6 DUP6 PUSH2 0x2940 JUMP JUMPDEST SWAP6 POP SWAP6 POP SWAP6 POP POP POP POP PUSH2 0x26A6 JUMP JUMPDEST POP POP DUP2 MLOAD PUSH0 SWAP2 POP PUSH1 0x2 SWAP1 JUMPDEST SWAP3 POP SWAP3 POP SWAP3 JUMP JUMPDEST PUSH0 DUP3 PUSH1 0x3 DUP2 GT ISZERO PUSH2 0x26C0 JUMPI PUSH2 0x26C0 PUSH2 0x342D JUMP JUMPDEST SUB PUSH2 0x26C9 JUMPI POP POP JUMP JUMPDEST PUSH1 0x1 DUP3 PUSH1 0x3 DUP2 GT ISZERO PUSH2 0x26DD JUMPI PUSH2 0x26DD PUSH2 0x342D JUMP JUMPDEST SUB PUSH2 0x26FB JUMPI PUSH1 0x40 MLOAD PUSH4 0xF645EEDF PUSH1 0xE0 SHL DUP2 MSTORE PUSH1 0x4 ADD PUSH1 0x40 MLOAD DUP1 SWAP2 SUB SWAP1 REVERT JUMPDEST PUSH1 0x2 DUP3 PUSH1 0x3 DUP2 GT ISZERO PUSH2 0x270F JUMPI PUSH2 0x270F PUSH2 0x342D JUMP JUMPDEST SUB PUSH2 0x2730 JUMPI PUSH1 0x40 MLOAD PUSH4 0xFCE698F7 PUSH1 0xE0 SHL DUP2 MSTORE PUSH1 0x4 DUP2 ADD DUP3 SWAP1 MSTORE PUSH1 0x24 ADD PUSH2 0xD5E JUMP JUMPDEST PUSH1 0x3 DUP3 PUSH1 0x3 DUP2 GT ISZERO PUSH2 0x2744 JUMPI PUSH2 0x2744 PUSH2 0x342D JUMP JUMPDEST SUB PUSH2 0xA95 JUMPI PUSH1 0x40 MLOAD PUSH4 0x35E2F383 PUSH1 0xE2 SHL DUP2 MSTORE PUSH1 0x4 DUP2 ADD DUP3 SWAP1 MSTORE PUSH1 0x24 ADD PUSH2 0xD5E JUMP JUMPDEST PUSH0 PUSH1 0x40 MLOAD PUSH4 0xA9059CBB PUSH1 0xE0 SHL DUP2 MSTORE PUSH1 0x1 PUSH1 0x1 PUSH1 0xA0 SHL SUB DUP5 AND PUSH1 0x4 DUP3 ADD MSTORE DUP3 PUSH1 0x24 DUP3 ADD MSTORE PUSH1 0x20 PUSH0 PUSH1 0x44 DUP4 PUSH0 DUP10 GAS CALL RETURNDATASIZE ISZERO PUSH1 0x1F RETURNDATASIZE GT PUSH1 0x1 PUSH0 MLOAD EQ AND OR AND SWAP2 POP POP DUP1 PUSH2 0x1CED JUMPI PUSH1 0x40 MLOAD PUSH3 0x461BCD PUSH1 0xE5 SHL DUP2 MSTORE PUSH1 0x20 PUSH1 0x4 DUP3 ADD MSTORE PUSH1 0xF PUSH1 0x24 DUP3 ADD MSTORE PUSH15 0x1514905394D1915497D19052531151 PUSH1 0x8A SHL PUSH1 0x44 DUP3 ADD MSTORE PUSH1 0x64 ADD PUSH2 0xD5E JUMP JUMPDEST PUSH0 PUSH1 0x40 MLOAD PUSH4 0x23B872DD PUSH1 0xE0 SHL DUP2 MSTORE PUSH1 0x1 PUSH1 0x1 PUSH1 0xA0 SHL SUB DUP6 AND PUSH1 0x4 DUP3 ADD MSTORE PUSH1 0x1 PUSH1 0x1 PUSH1 0xA0 SHL SUB DUP5 AND PUSH1 0x24 DUP3 ADD MSTORE DUP3 PUSH1 0x44 DUP3 ADD MSTORE PUSH1 0x20 PUSH0 PUSH1 0x64 DUP4 PUSH0 DUP11 GAS CALL RETURNDATASIZE ISZERO PUSH1 0x1F RETURNDATASIZE GT PUSH1 0x1 PUSH0 MLOAD EQ AND OR AND SWAP2 POP POP DUP1 PUSH2 0x1572 JUMPI PUSH1 0x40 MLOAD PUSH3 0x461BCD PUSH1 0xE5 SHL DUP2 MSTORE PUSH1 0x20 PUSH1 0x4 DUP3 ADD MSTORE PUSH1 0x14 PUSH1 0x24 DUP3 ADD MSTORE PUSH20 0x1514905394D1915497D19493D357D19052531151 PUSH1 0x62 SHL PUSH1 0x44 DUP3 ADD MSTORE PUSH1 0x64 ADD PUSH2 0xD5E JUMP JUMPDEST PUSH0 DUP3 PUSH1 0xC0 ADD MLOAD PUSH0 EQ DUP1 PUSH2 0x2888 JUMPI POP PUSH1 0xC0 DUP3 ADD MLOAD ISZERO JUMPDEST ISZERO PUSH2 0x2895 JUMPI POP PUSH1 0x1 PUSH2 0x846 JUMP JUMPDEST PUSH2 0x17E2 PUSH2 0x28A1 DUP5 PUSH2 0x2A08 JUMP JUMPDEST PUSH2 0x28AA DUP5 PUSH2 0x2A08 JUMP JUMPDEST DUP6 PUSH2 0x140 ADD MLOAD DUP6 PUSH2 0x140 ADD MLOAD PUSH2 0x2A21 JUMP JUMPDEST PUSH0 DUP2 PUSH1 0x2 DUP2 GT ISZERO PUSH2 0x28CE JUMPI PUSH2 0x28CE PUSH2 0x342D JUMP JUMPDEST EQ PUSH2 0x1572 JUMPI PUSH1 0x1 DUP2 PUSH1 0x2 DUP2 GT ISZERO PUSH2 0x28E7 JUMPI PUSH2 0x28E7 PUSH2 0x342D JUMP JUMPDEST SUB PUSH2 0x290C JUMPI PUSH0 DUP3 DUP2 MSTORE PUSH1 0x7 PUSH1 0x20 MSTORE PUSH1 0x40 SWAP1 KECCAK256 PUSH1 0x1 ADD SLOAD PUSH2 0x2907 SWAP1 DUP6 PUSH2 0x2AB8 JUMP JUMPDEST PUSH2 0x1572 JUMP JUMPDEST PUSH1 0x2 DUP2 PUSH1 0x2 DUP2 GT ISZERO PUSH2 0x2920 JUMPI PUSH2 0x2920 PUSH2 0x342D JUMP JUMPDEST SUB PUSH2 0x1572 JUMPI PUSH0 DUP4 DUP2 MSTORE PUSH1 0x7 PUSH1 0x20 MSTORE PUSH1 0x40 SWAP1 KECCAK256 PUSH1 0x1 ADD SLOAD PUSH2 0x2907 SWAP1 DUP7 PUSH2 0x2BBB JUMP JUMPDEST PUSH0 DUP1 DUP1 PUSH32 0x7FFFFFFFFFFFFFFFFFFFFFFFFFFFFFFF5D576E7357A4501DDFE92F46681B20A0 DUP5 GT ISZERO PUSH2 0x2979 JUMPI POP PUSH0 SWAP2 POP PUSH1 0x3 SWAP1 POP DUP3 PUSH2 0x29FE JUMP JUMPDEST PUSH1 0x40 DUP1 MLOAD PUSH0 DUP1 DUP3 MSTORE PUSH1 0x20 DUP3 ADD DUP1 DUP5 MSTORE DUP11 SWAP1 MSTORE PUSH1 0xFF DUP10 AND SWAP3 DUP3 ADD SWAP3 SWAP1 SWAP3 MSTORE PUSH1 0x60 DUP2 ADD DUP8 SWAP1 MSTORE PUSH1 0x80 DUP2 ADD DUP7 SWAP1 MSTORE PUSH1 0x1 SWAP1 PUSH1 0xA0 ADD PUSH1 0x20 PUSH1 0x40 MLOAD PUSH1 0x20 DUP2 SUB SWAP1 DUP1 DUP5 SUB SWAP1 DUP6 GAS STATICCALL ISZERO DUP1 ISZERO PUSH2 0x29CA JUMPI RETURNDATASIZE PUSH0 DUP1 RETURNDATACOPY RETURNDATASIZE PUSH0 REVERT JUMPDEST POP POP PUSH1 0x40 MLOAD PUSH1 0x1F NOT ADD MLOAD SWAP2 POP POP PUSH1 0x1 PUSH1 0x1 PUSH1 0xA0 SHL SUB DUP2 AND PUSH2 0x29F5 JUMPI POP PUSH0 SWAP3 POP PUSH1 0x1 SWAP2 POP DUP3 SWAP1 POP PUSH2 0x29FE JUMP JUMPDEST SWAP3 POP PUSH0 SWAP2 POP DUP2 SWAP1 POP JUMPDEST SWAP5 POP SWAP5 POP SWAP5 SWAP2 POP POP JUMP JUMPDEST PUSH0 PUSH2 0x846 DUP3 PUSH1 0xA0 ADD MLOAD DUP4 PUSH1 0xC0 ADD MLOAD DUP5 PUSH2 0x140 ADD MLOAD PUSH2 0x2271 JUMP JUMPDEST PUSH0 DUP1 DUP4 PUSH1 0x1 DUP2 GT ISZERO PUSH2 0x2A35 JUMPI PUSH2 0x2A35 PUSH2 0x342D JUMP JUMPDEST SUB PUSH2 0x2A78 JUMPI PUSH0 DUP3 PUSH1 0x1 DUP2 GT ISZERO PUSH2 0x2A4D JUMPI PUSH2 0x2A4D PUSH2 0x342D JUMP JUMPDEST SUB PUSH2 0x2A6E JUMPI PUSH8 0xDE0B6B3A7640000 PUSH2 0x2A65 DUP6 DUP8 PUSH2 0x350F JUMP JUMPDEST LT ISZERO SWAP1 POP PUSH2 0x1ABA JUMP JUMPDEST POP DUP3 DUP5 LT ISZERO PUSH2 0x1ABA JUMP JUMPDEST PUSH0 DUP3 PUSH1 0x1 DUP2 GT ISZERO PUSH2 0x2A8B JUMPI PUSH2 0x2A8B PUSH2 0x342D JUMP JUMPDEST SUB PUSH2 0x2A9A JUMPI POP DUP4 DUP4 LT ISZERO PUSH2 0x1ABA JUMP JUMPDEST PUSH8 0xDE0B6B3A7640000 PUSH2 0x2AAD DUP6 DUP8 PUSH2 0x350F JUMP JUMPDEST GT ISZERO SWAP6 SWAP5 POP POP POP POP POP JUMP JUMPDEST PUSH1 0x40 DUP1 MLOAD PUSH1 0x2 DUP1 DUP3 MSTORE PUSH1 0x60 DUP3 ADD DUP4 MSTORE PUSH0 SWAP3 PUSH1 0x20 DUP4 ADD SWAP1 DUP1 CALLDATASIZE DUP4 CALLDATACOPY ADD SWAP1 POP POP SWAP1 POP PUSH1 0x1 DUP2 PUSH0 DUP2 MLOAD DUP2 LT PUSH2 0x2AEC JUMPI PUSH2 0x2AEC PUSH2 0x34E7 JUMP JUMPDEST PUSH1 0x20 MUL PUSH1 0x20 ADD ADD DUP2 DUP2 MSTORE POP POP PUSH1 0x2 DUP2 PUSH1 0x1 DUP2 MLOAD DUP2 LT PUSH2 0x2B0D JUMPI PUSH2 0x2B0D PUSH2 0x34E7 JUMP JUMPDEST PUSH1 0x20 SWAP1 DUP2 MUL SWAP2 SWAP1 SWAP2 ADD ADD MSTORE PUSH32 0x0 PUSH1 0x1 PUSH1 0x1 PUSH1 0xA0 SHL SUB AND PUSH4 0x72CE4275 PUSH32 0x0 JUMPDEST PUSH1 0x40 MLOAD PUSH1 0x1 PUSH1 0x1 PUSH1 0xE0 SHL SUB NOT PUSH1 0xE0 DUP5 SWAP1 SHL AND DUP2 MSTORE PUSH2 0x2B92 SWAP2 SWAP1 PUSH0 SWAP1 DUP9 SWAP1 DUP8 SWAP1 DUP10 SWAP1 PUSH1 0x4 ADD PUSH2 0x3630 JUMP JUMPDEST PUSH0 PUSH1 0x40 MLOAD DUP1 DUP4 SUB DUP2 PUSH0 DUP8 DUP1 EXTCODESIZE ISZERO DUP1 ISZERO PUSH2 0x2BA9 JUMPI PUSH0 DUP1 REVERT JUMPDEST POP GAS CALL ISZERO DUP1 ISZERO PUSH2 0x265B JUMPI RETURNDATASIZE PUSH0 DUP1 RETURNDATACOPY RETURNDATASIZE PUSH0 REVERT JUMPDEST PUSH1 0x40 DUP1 MLOAD PUSH1 0x2 DUP1 DUP3 MSTORE PUSH1 0x60 DUP3 ADD DUP4 MSTORE PUSH0 SWAP3 PUSH1 0x20 DUP4 ADD SWAP1 DUP1 CALLDATASIZE DUP4 CALLDATACOPY ADD SWAP1 POP POP SWAP1 POP PUSH1 0x1 DUP2 PUSH0 DUP2 MLOAD DUP2 LT PUSH2 0x2BEF JUMPI PUSH2 0x2BEF PUSH2 0x34E7 JUMP JUMPDEST PUSH1 0x20 MUL PUSH1 0x20 ADD ADD DUP2 DUP2 MSTORE POP POP PUSH1 0x2 DUP2 PUSH1 0x1 DUP2 MLOAD DUP2 LT PUSH2 0x2C10 JUMPI PUSH2 0x2C10 PUSH2 0x34E7 JUMP JUMPDEST PUSH1 0x20 SWAP1 DUP2 MUL SWAP2 SWAP1 SWAP2 ADD ADD MSTORE PUSH32 0x0 PUSH1 0x1 PUSH1 0x1 PUSH1 0xA0 SHL SUB AND PUSH4 0x9E7212AD PUSH32 0x0 PUSH2 0x2B69 JUMP JUMPDEST PUSH0 PUSH1 0x20 DUP3 DUP5 SUB SLT ISZERO PUSH2 0x2C80 JUMPI PUSH0 DUP1 REVERT JUMPDEST DUP2 CALLDATALOAD PUSH1 0x1 PUSH1 0x1 PUSH1 0xE0 SHL SUB NOT DUP2 AND DUP2 EQ PUSH2 0x17E2 JUMPI PUSH0 DUP1 REVERT JUMPDEST PUSH1 0x1 PUSH1 0x1 PUSH1 0xA0 SHL SUB DUP2 AND DUP2 EQ PUSH2 0x998 JUMPI PUSH0 DUP1 REVERT JUMPDEST DUP1 CALLDATALOAD PUSH2 0x2CB6 DUP2 PUSH2 0x2C97 JUMP JUMPDEST SWAP2 SWAP1 POP JUMP JUMPDEST PUSH0 DUP1 PUSH1 0x40 DUP4 DUP6 SUB SLT ISZERO PUSH2 0x2CCC JUMPI PUSH0 DUP1 REVERT JUMPDEST DUP3 CALLDATALOAD PUSH2 0x2CD7 DUP2 PUSH2 0x2C97 JUMP JUMPDEST SWAP5 PUSH1 0x20 SWAP4 SWAP1 SWAP4 ADD CALLDATALOAD SWAP4 POP POP POP JUMP JUMPDEST PUSH0 PUSH1 0x20 DUP3 DUP5 SUB SLT ISZERO PUSH2 0x2CF5 JUMPI PUSH0 DUP1 REVERT JUMPDEST DUP2 CALLDATALOAD PUSH2 0x17E2 DUP2 PUSH2 0x2C97 JUMP JUMPDEST PUSH0 PUSH1 0x20 DUP3 DUP5 SUB SLT ISZERO PUSH2 0x2D10 JUMPI PUSH0 DUP1 REVERT JUMPDEST POP CALLDATALOAD SWAP2 SWAP1 POP JUMP JUMPDEST PUSH4 0x4E487B71 PUSH1 0xE0 SHL PUSH0 MSTORE PUSH1 0x41 PUSH1 0x4 MSTORE PUSH1 0x24 PUSH0 REVERT JUMPDEST PUSH1 0x40 MLOAD PUSH2 0x1A0 DUP2 ADD PUSH1 0x1 PUSH1 0x1 PUSH1 0x40 SHL SUB DUP2 GT DUP3 DUP3 LT OR ISZERO PUSH2 0x2D4E JUMPI PUSH2 0x2D4E PUSH2 0x2D17 JUMP JUMPDEST PUSH1 0x40 MSTORE SWAP1 JUMP JUMPDEST PUSH1 0x40 MLOAD PUSH1 0x1F DUP3 ADD PUSH1 0x1F NOT AND DUP2 ADD PUSH1 0x1 PUSH1 0x1 PUSH1 0x40 SHL SUB DUP2 GT DUP3 DUP3 LT OR ISZERO PUSH2 0x2D7C JUMPI PUSH2 0x2D7C PUSH2 0x2D17 JUMP JUMPDEST PUSH1 0x40 MSTORE SWAP2 SWAP1 POP JUMP JUMPDEST DUP1 CALLDATALOAD PUSH1 0x2 DUP2 LT PUSH2 0x2CB6 JUMPI PUSH0 DUP1 REVERT JUMPDEST DUP1 CALLDATALOAD PUSH1 0x3 DUP2 LT PUSH2 0x2CB6 JUMPI PUSH0 DUP1 REVERT JUMPDEST PUSH0 DUP3 PUSH1 0x1F DUP4 ADD SLT PUSH2 0x2DAF JUMPI PUSH0 DUP1 REVERT JUMPDEST DUP2 CALLDATALOAD PUSH1 0x1 PUSH1 0x1 PUSH1 0x40 SHL SUB DUP2 GT ISZERO PUSH2 0x2DC8 JUMPI PUSH2 0x2DC8 PUSH2 0x2D17 JUMP JUMPDEST PUSH2 0x2DDB PUSH1 0x1F DUP3 ADD PUSH1 0x1F NOT AND PUSH1 0x20 ADD PUSH2 0x2D54 JUMP JUMPDEST DUP2 DUP2 MSTORE DUP5 PUSH1 0x20 DUP4 DUP7 ADD ADD GT ISZERO PUSH2 0x2DEF JUMPI PUSH0 DUP1 REVERT JUMPDEST DUP2 PUSH1 0x20 DUP6 ADD PUSH1 0x20 DUP4 ADD CALLDATACOPY PUSH0 SWAP2 DUP2 ADD PUSH1 0x20 ADD SWAP2 SWAP1 SWAP2 MSTORE SWAP4 SWAP3 POP POP POP JUMP JUMPDEST PUSH0 PUSH2 0x1A0 DUP3 DUP5 SUB SLT ISZERO PUSH2 0x2E1C JUMPI PUSH0 DUP1 REVERT JUMPDEST PUSH2 0x2E24 PUSH2 0x2D2B JUMP JUMPDEST DUP3 CALLDATALOAD DUP2 MSTORE SWAP1 POP PUSH2 0x2E36 PUSH1 0x20 DUP4 ADD PUSH2 0x2CAB JUMP JUMPDEST PUSH1 0x20 DUP3 ADD MSTORE PUSH2 0x2E47 PUSH1 0x40 DUP4 ADD PUSH2 0x2CAB JUMP JUMPDEST PUSH1 0x40 DUP3 ADD MSTORE PUSH2 0x2E58 PUSH1 0x60 DUP4 ADD PUSH2 0x2CAB JUMP JUMPDEST PUSH1 0x60 DUP3 ADD MSTORE PUSH1 0x80 DUP3 DUP2 ADD CALLDATALOAD SWAP1 DUP3 ADD MSTORE PUSH1 0xA0 DUP1 DUP4 ADD CALLDATALOAD SWAP1 DUP3 ADD MSTORE PUSH1 0xC0 DUP1 DUP4 ADD CALLDATALOAD SWAP1 DUP3 ADD MSTORE PUSH1 0xE0 DUP1 DUP4 ADD CALLDATALOAD SWAP1 DUP3 ADD MSTORE PUSH2 0x100 DUP1 DUP4 ADD CALLDATALOAD SWAP1 DUP3 ADD MSTORE PUSH2 0x120 DUP1 DUP4 ADD CALLDATALOAD SWAP1 DUP3 ADD MSTORE PUSH2 0x2EA8 PUSH2 0x140 DUP4 ADD PUSH2 0x2D84 JUMP JUMPDEST PUSH2 0x140 DUP3 ADD MSTORE PUSH2 0x2EBB PUSH2 0x160 DUP4 ADD PUSH2 0x2D92 JUMP JUMPDEST PUSH2 0x160 DUP3 ADD MSTORE PUSH2 0x180 DUP3 ADD CALLDATALOAD PUSH1 0x1 PUSH1 0x1 PUSH1 0x40 SHL SUB DUP2 GT ISZERO PUSH2 0x2EDA JUMPI PUSH0 DUP1 REVERT JUMPDEST PUSH2 0x2EE6 DUP5 DUP3 DUP6 ADD PUSH2 0x2DA0 JUMP JUMPDEST PUSH2 0x180 DUP4 ADD MSTORE POP SWAP3 SWAP2 POP POP JUMP JUMPDEST PUSH0 PUSH1 0x20 DUP3 DUP5 SUB SLT ISZERO PUSH2 0x2F03 JUMPI PUSH0 DUP1 REVERT JUMPDEST DUP2 CALLDATALOAD PUSH1 0x1 PUSH1 0x1 PUSH1 0x40 SHL SUB DUP2 GT ISZERO PUSH2 0x2F18 JUMPI PUSH0 DUP1 REVERT JUMPDEST PUSH2 0x1ABA DUP5 DUP3 DUP6 ADD PUSH2 0x2E0B JUMP JUMPDEST PUSH0 DUP1 PUSH0 PUSH1 0x60 DUP5 DUP7 SUB SLT ISZERO PUSH2 0x2F36 JUMPI PUSH0 DUP1 REVERT JUMPDEST POP POP DUP2 CALLDATALOAD SWAP4 PUSH1 0x20 DUP4 ADD CALLDATALOAD SWAP4 POP PUSH1 0x40 SWAP1 SWAP3 ADD CALLDATALOAD SWAP2 SWAP1 POP JUMP JUMPDEST PUSH0 DUP2 MLOAD DUP1 DUP5 MSTORE DUP1 PUSH1 0x20 DUP5 ADD PUSH1 0x20 DUP7 ADD MCOPY PUSH0 PUSH1 0x20 DUP3 DUP7 ADD ADD MSTORE PUSH1 0x20 PUSH1 0x1F NOT PUSH1 0x1F DUP4 ADD AND DUP6 ADD ADD SWAP2 POP POP SWAP3 SWAP2 POP POP JUMP JUMPDEST PUSH0 DUP2 MLOAD DUP1 DUP5 MSTORE PUSH1 0x20 DUP5 ADD SWAP4 POP PUSH1 0x20 DUP4 ADD PUSH0 JUMPDEST DUP3 DUP2 LT ISZERO PUSH2 0x2FAB JUMPI DUP2 MLOAD DUP7 MSTORE PUSH1 0x20 SWAP6 DUP7 ADD SWAP6 SWAP1 SWAP2 ADD SWAP1 PUSH1 0x1 ADD PUSH2 0x2F8D JUMP JUMPDEST POP SWAP4 SWAP5 SWAP4 POP POP POP POP JUMP JUMPDEST PUSH1 0xFF PUSH1 0xF8 SHL DUP9 AND DUP2 MSTORE PUSH1 0xE0 PUSH1 0x20 DUP3 ADD MSTORE PUSH0 PUSH2 0x2FD3 PUSH1 0xE0 DUP4 ADD DUP10 PUSH2 0x2F4D JUMP JUMPDEST DUP3 DUP2 SUB PUSH1 0x40 DUP5 ADD MSTORE PUSH2 0x2FE5 DUP2 DUP10 PUSH2 0x2F4D JUMP JUMPDEST PUSH1 0x60 DUP5 ADD DUP9 SWAP1 MSTORE PUSH1 0x1 PUSH1 0x1 PUSH1 0xA0 SHL SUB DUP8 AND PUSH1 0x80 DUP6 ADD MSTORE PUSH1 0xA0 DUP5 ADD DUP7 SWAP1 MSTORE DUP4 DUP2 SUB PUSH1 0xC0 DUP6 ADD MSTORE SWAP1 POP PUSH2 0x3016 DUP2 DUP6 PUSH2 0x2F7B JUMP JUMPDEST SWAP11 SWAP10 POP POP POP POP POP POP POP POP POP POP JUMP JUMPDEST PUSH0 PUSH1 0x1 PUSH1 0x1 PUSH1 0x40 SHL SUB DUP3 GT ISZERO PUSH2 0x303C JUMPI PUSH2 0x303C PUSH2 0x2D17 JUMP JUMPDEST POP PUSH1 0x5 SHL PUSH1 0x20 ADD SWAP1 JUMP JUMPDEST PUSH0 DUP3 PUSH1 0x1F DUP4 ADD SLT PUSH2 0x3055 JUMPI PUSH0 DUP1 REVERT JUMPDEST DUP2 CALLDATALOAD PUSH2 0x3068 PUSH2 0x3063 DUP3 PUSH2 0x3024 JUMP JUMPDEST PUSH2 0x2D54 JUMP JUMPDEST DUP1 DUP3 DUP3 MSTORE PUSH1 0x20 DUP3 ADD SWAP2 POP PUSH1 0x20 DUP4 PUSH1 0x5 SHL DUP7 ADD ADD SWAP3 POP DUP6 DUP4 GT ISZERO PUSH2 0x3089 JUMPI PUSH0 DUP1 REVERT JUMPDEST PUSH1 0x20 DUP6 ADD JUMPDEST DUP4 DUP2 LT ISZERO PUSH2 0x1E54 JUMPI DUP1 CALLDATALOAD DUP4 MSTORE PUSH1 0x20 SWAP3 DUP4 ADD SWAP3 ADD PUSH2 0x308E JUMP JUMPDEST PUSH0 DUP1 PUSH0 DUP1 PUSH0 PUSH1 0xA0 DUP7 DUP9 SUB SLT ISZERO PUSH2 0x30BA JUMPI PUSH0 DUP1 REVERT JUMPDEST DUP6 CALLDATALOAD PUSH2 0x30C5 DUP2 PUSH2 0x2C97 JUMP JUMPDEST SWAP5 POP PUSH1 0x20 DUP7 ADD CALLDATALOAD PUSH2 0x30D5 DUP2 PUSH2 0x2C97 JUMP JUMPDEST SWAP4 POP PUSH1 0x40 DUP7 ADD CALLDATALOAD PUSH1 0x1 PUSH1 0x1 PUSH1 0x40 SHL SUB DUP2 GT ISZERO PUSH2 0x30EF JUMPI PUSH0 DUP1 REVERT JUMPDEST PUSH2 0x30FB DUP9 DUP3 DUP10 ADD PUSH2 0x3046 JUMP JUMPDEST SWAP4 POP POP PUSH1 0x60 DUP7 ADD CALLDATALOAD PUSH1 0x1 PUSH1 0x1 PUSH1 0x40 SHL SUB DUP2 GT ISZERO PUSH2 0x3116 JUMPI PUSH0 DUP1 REVERT JUMPDEST PUSH2 0x3122 DUP9 DUP3 DUP10 ADD PUSH2 0x3046 JUMP JUMPDEST SWAP3 POP POP PUSH1 0x80 DUP7 ADD CALLDATALOAD PUSH1 0x1 PUSH1 0x1 PUSH1 0x40 SHL SUB DUP2 GT ISZERO PUSH2 0x313D JUMPI PUSH0 DUP1 REVERT JUMPDEST PUSH2 0x3149 DUP9 DUP3 DUP10 ADD PUSH2 0x2DA0 JUMP JUMPDEST SWAP2 POP POP SWAP3 SWAP6 POP SWAP3 SWAP6 SWAP1 SWAP4 POP JUMP JUMPDEST PUSH0 DUP3 PUSH1 0x1F DUP4 ADD SLT PUSH2 0x3165 JUMPI PUSH0 DUP1 REVERT JUMPDEST DUP2 CALLDATALOAD PUSH2 0x3173 PUSH2 0x3063 DUP3 PUSH2 0x3024 JUMP JUMPDEST DUP1 DUP3 DUP3 MSTORE PUSH1 0x20 DUP3 ADD SWAP2 POP PUSH1 0x20 DUP4 PUSH1 0x5 SHL DUP7 ADD ADD SWAP3 POP DUP6 DUP4 GT ISZERO PUSH2 0x3194 JUMPI PUSH0 DUP1 REVERT JUMPDEST PUSH1 0x20 DUP6 ADD JUMPDEST DUP4 DUP2 LT ISZERO PUSH2 0x1E54 JUMPI DUP1 CALLDATALOAD PUSH1 0x1 PUSH1 0x1 PUSH1 0x40 SHL SUB DUP2 GT ISZERO PUSH2 0x31B6 JUMPI PUSH0 DUP1 REVERT JUMPDEST PUSH2 0x31C5 DUP9 PUSH1 0x20 DUP4 DUP11 ADD ADD PUSH2 0x2E0B JUMP JUMPDEST DUP5 MSTORE POP PUSH1 0x20 SWAP3 DUP4 ADD SWAP3 ADD PUSH2 0x3199 JUMP JUMPDEST PUSH0 DUP1 PUSH1 0x40 DUP4 DUP6 SUB SLT ISZERO PUSH2 0x31E5 JUMPI PUSH0 DUP1 REVERT JUMPDEST DUP3 CALLDATALOAD PUSH1 0x1 PUSH1 0x1 PUSH1 0x40 SHL SUB DUP2 GT ISZERO PUSH2 0x31FA JUMPI PUSH0 DUP1 REVERT JUMPDEST PUSH2 0x3206 DUP6 DUP3 DUP7 ADD PUSH2 0x3156 JUMP JUMPDEST SWAP3 POP POP PUSH1 0x20 DUP4 ADD CALLDATALOAD PUSH1 0x1 PUSH1 0x1 PUSH1 0x40 SHL SUB DUP2 GT ISZERO PUSH2 0x3221 JUMPI PUSH0 DUP1 REVERT JUMPDEST PUSH2 0x322D DUP6 DUP3 DUP7 ADD PUSH2 0x3046 JUMP JUMPDEST SWAP2 POP POP SWAP3 POP SWAP3 SWAP1 POP JUMP JUMPDEST PUSH0 DUP1 PUSH1 0x40 DUP4 DUP6 SUB SLT ISZERO PUSH2 0x3248 JUMPI PUSH0 DUP1 REVERT JUMPDEST POP POP DUP1 CALLDATALOAD SWAP3 PUSH1 0x20 SWAP1 SWAP2 ADD CALLDATALOAD SWAP2 POP JUMP JUMPDEST PUSH0 DUP1 PUSH1 0x40 DUP4 DUP6 SUB SLT ISZERO PUSH2 0x3268 JUMPI PUSH0 DUP1 REVERT JUMPDEST DUP3 CALLDATALOAD SWAP2 POP PUSH1 0x20 DUP4 ADD CALLDATALOAD PUSH1 0x1 PUSH1 0x1 PUSH1 0x40 SHL SUB DUP2 GT ISZERO PUSH2 0x3284 JUMPI PUSH0 DUP1 REVERT JUMPDEST PUSH2 0x322D DUP6 DUP3 DUP7 ADD PUSH2 0x2E0B JUMP JUMPDEST PUSH0 DUP1 PUSH0 DUP1 PUSH1 0x80 DUP6 DUP8 SUB SLT ISZERO PUSH2 0x32A3 JUMPI PUSH0 DUP1 REVERT JUMPDEST DUP5 CALLDATALOAD PUSH1 0x1 PUSH1 0x1 PUSH1 0x40 SHL SUB DUP2 GT ISZERO PUSH2 0x32B8 JUMPI PUSH0 DUP1 REVERT JUMPDEST PUSH2 0x32C4 DUP8 DUP3 DUP9 ADD PUSH2 0x2E0B JUMP JUMPDEST SWAP5 POP POP PUSH1 0x20 DUP6 ADD CALLDATALOAD PUSH1 0x1 PUSH1 0x1 PUSH1 0x40 SHL SUB DUP2 GT ISZERO PUSH2 0x32DF JUMPI PUSH0 DUP1 REVERT JUMPDEST PUSH2 0x32EB DUP8 DUP3 DUP9 ADD PUSH2 0x3156 JUMP JUMPDEST SWAP4 POP POP PUSH1 0x40 DUP6 ADD CALLDATALOAD SWAP2 POP PUSH1 0x60 DUP6 ADD CALLDATALOAD PUSH1 0x1 PUSH1 0x1 PUSH1 0x40 SHL SUB DUP2 GT ISZERO PUSH2 0x330D JUMPI PUSH0 DUP1 REVERT JUMPDEST PUSH2 0x3319 DUP8 DUP3 DUP9 ADD PUSH2 0x3046 JUMP JUMPDEST SWAP2 POP POP SWAP3 SWAP6 SWAP2 SWAP5 POP SWAP3 POP JUMP JUMPDEST PUSH0 DUP1 PUSH0 DUP1 PUSH0 PUSH1 0xA0 DUP7 DUP9 SUB SLT ISZERO PUSH2 0x3339 JUMPI PUSH0 DUP1 REVERT JUMPDEST DUP6 CALLDATALOAD PUSH2 0x3344 DUP2 PUSH2 0x2C97 JUMP JUMPDEST SWAP5 POP PUSH1 0x20 DUP7 ADD CALLDATALOAD PUSH2 0x3354 DUP2 PUSH2 0x2C97 JUMP JUMPDEST SWAP4 POP PUSH1 0x40 DUP7 ADD CALLDATALOAD SWAP3 POP PUSH1 0x60 DUP7 ADD CALLDATALOAD SWAP2 POP PUSH1 0x80 DUP7 ADD CALLDATALOAD PUSH1 0x1 PUSH1 0x1 PUSH1 0x40 SHL SUB DUP2 GT ISZERO PUSH2 0x313D JUMPI PUSH0 DUP1 REVERT JUMPDEST PUSH0 PUSH1 0x20 DUP3 DUP5 SUB SLT ISZERO PUSH2 0x338C JUMPI PUSH0 DUP1 REVERT JUMPDEST DUP2 CALLDATALOAD PUSH1 0x1 PUSH1 0x1 PUSH1 0x40 SHL SUB DUP2 GT ISZERO PUSH2 0x33A1 JUMPI PUSH0 DUP1 REVERT JUMPDEST PUSH2 0x1ABA DUP5 DUP3 DUP6 ADD PUSH2 0x3156 JUMP JUMPDEST PUSH0 DUP1 PUSH1 0x40 DUP4 DUP6 SUB SLT ISZERO PUSH2 0x33BE JUMPI PUSH0 DUP1 REVERT JUMPDEST DUP3 CALLDATALOAD PUSH1 0x1 PUSH1 0x1 PUSH1 0x40 SHL SUB DUP2 GT ISZERO PUSH2 0x33D3 JUMPI PUSH0 DUP1 REVERT JUMPDEST PUSH2 0x33DF DUP6 DUP3 DUP7 ADD PUSH2 0x2E0B JUMP JUMPDEST SWAP6 PUSH1 0x20 SWAP5 SWAP1 SWAP5 ADD CALLDATALOAD SWAP5 POP POP POP POP JUMP JUMPDEST PUSH0 PUSH1 0x20 DUP3 DUP5 SUB SLT ISZERO PUSH2 0x33FE JUMPI PUSH0 DUP1 REVERT JUMPDEST DUP2 MLOAD PUSH2 0x17E2 DUP2 PUSH2 0x2C97 JUMP JUMPDEST PUSH1 0x20 DUP1 DUP3 MSTORE PUSH1 0xA SWAP1 DUP3 ADD MSTORE PUSH10 0x5245454E5452414E4359 PUSH1 0xB0 SHL PUSH1 0x40 DUP3 ADD MSTORE PUSH1 0x60 ADD SWAP1 JUMP JUMPDEST PUSH4 0x4E487B71 PUSH1 0xE0 SHL PUSH0 MSTORE PUSH1 0x21 PUSH1 0x4 MSTORE PUSH1 0x24 PUSH0 REVERT JUMPDEST PUSH1 0x3 DUP2 LT PUSH2 0x3451 JUMPI PUSH2 0x3451 PUSH2 0x342D JUMP JUMPDEST SWAP1 MSTORE JUMP JUMPDEST DUP14 DUP2 MSTORE PUSH1 0x20 DUP2 ADD DUP14 SWAP1 MSTORE PUSH1 0x1 PUSH1 0x1 PUSH1 0xA0 SHL SUB DUP13 DUP2 AND PUSH1 0x40 DUP4 ADD MSTORE DUP12 DUP2 AND PUSH1 0x60 DUP4 ADD MSTORE DUP11 AND PUSH1 0x80 DUP3 ADD MSTORE PUSH1 0xA0 DUP2 ADD DUP10 SWAP1 MSTORE PUSH1 0xC0 DUP2 ADD DUP9 SWAP1 MSTORE PUSH1 0xE0 DUP2 ADD DUP8 SWAP1 MSTORE PUSH2 0x100 DUP2 ADD DUP7 SWAP1 MSTORE PUSH2 0x120 DUP2 ADD DUP6 SWAP1 MSTORE PUSH2 0x140 DUP2 ADD DUP5 SWAP1 MSTORE PUSH2 0x1A0 DUP2 ADD PUSH1 0x2 DUP5 LT PUSH2 0x34C0 JUMPI PUSH2 0x34C0 PUSH2 0x342D JUMP JUMPDEST DUP4 PUSH2 0x160 DUP4 ADD MSTORE PUSH2 0x34D5 PUSH2 0x180 DUP4 ADD DUP5 PUSH2 0x3441 JUMP JUMPDEST SWAP15 SWAP14 POP POP POP POP POP POP POP POP POP POP POP POP POP POP JUMP JUMPDEST PUSH4 0x4E487B71 PUSH1 0xE0 SHL PUSH0 MSTORE PUSH1 0x32 PUSH1 0x4 MSTORE PUSH1 0x24 PUSH0 REVERT JUMPDEST PUSH4 0x4E487B71 PUSH1 0xE0 SHL PUSH0 MSTORE PUSH1 0x11 PUSH1 0x4 MSTORE PUSH1 0x24 PUSH0 REVERT JUMPDEST DUP1 DUP3 ADD DUP1 DUP3 GT ISZERO PUSH2 0x846 JUMPI PUSH2 0x846 PUSH2 0x34FB JUMP JUMPDEST DUP2 DUP2 SUB DUP2 DUP2 GT ISZERO PUSH2 0x846 JUMPI PUSH2 0x846 PUSH2 0x34FB JUMP JUMPDEST PUSH1 0x1 DUP2 DUP2 SHR SWAP1 DUP3 AND DUP1 PUSH2 0x3549 JUMPI PUSH1 0x7F DUP3 AND SWAP2 POP JUMPDEST PUSH1 0x20 DUP3 LT DUP2 SUB PUSH2 0x3567 JUMPI PUSH4 0x4E487B71 PUSH1 0xE0 SHL PUSH0 MSTORE PUSH1 0x22 PUSH1 0x4 MSTORE PUSH1 0x24 PUSH0 REVERT JUMPDEST POP SWAP2 SWAP1 POP JUMP JUMPDEST PUSH0 DUP2 MLOAD DUP1 PUSH1 0x20 DUP5 ADD DUP6 MCOPY PUSH0 SWAP4 ADD SWAP3 DUP4 MSTORE POP SWAP1 SWAP2 SWAP1 POP JUMP JUMPDEST PUSH0 PUSH2 0x17DF PUSH2 0x3592 DUP4 DUP7 PUSH2 0x356D JUMP JUMPDEST DUP5 PUSH2 0x356D JUMP JUMPDEST PUSH1 0x1 PUSH1 0x1 PUSH1 0xF8 SHL SUB NOT SWAP5 SWAP1 SWAP5 AND DUP5 MSTORE PUSH1 0x60 SWAP3 SWAP1 SWAP3 SHL PUSH12 0xFFFFFFFFFFFFFFFFFFFFFFFF NOT AND PUSH1 0x1 DUP5 ADD MSTORE PUSH1 0x15 DUP4 ADD MSTORE PUSH1 0x35 DUP3 ADD MSTORE PUSH1 0x55 ADD SWAP1 JUMP JUMPDEST DUP1 DUP3 MUL DUP2 ISZERO DUP3 DUP3 DIV DUP5 EQ OR PUSH2 0x846 JUMPI PUSH2 0x846 PUSH2 0x34FB JUMP JUMPDEST PUSH0 DUP3 PUSH2 0x3602 JUMPI PUSH4 0x4E487B71 PUSH1 0xE0 SHL PUSH0 MSTORE PUSH1 0x12 PUSH1 0x4 MSTORE PUSH1 0x24 PUSH0 REVERT JUMPDEST POP DIV SWAP1 JUMP JUMPDEST PUSH0 PUSH1 0x20 DUP3 DUP5 SUB SLT ISZERO PUSH2 0x3617 JUMPI PUSH0 DUP1 REVERT JUMPDEST POP MLOAD SWAP2 SWAP1 POP JUMP JUMPDEST PUSH1 0x20 DUP2 MSTORE PUSH0 PUSH2 0x17E2 PUSH1 0x20 DUP4 ADD DUP5 PUSH2 0x2F4D JUMP JUMPDEST PUSH1 0x1 DUP1 PUSH1 0xA0 SHL SUB DUP7 AND DUP2 MSTORE DUP5 PUSH1 0x20 DUP3 ADD MSTORE DUP4 PUSH1 0x40 DUP3 ADD MSTORE PUSH1 0xA0 PUSH1 0x60 DUP3 ADD MSTORE PUSH0 PUSH2 0x365C PUSH1 0xA0 DUP4 ADD DUP6 PUSH2 0x2F7B JUMP JUMPDEST SWAP1 POP DUP3 PUSH1 0x80 DUP4 ADD MSTORE SWAP7 SWAP6 POP POP POP POP POP POP JUMP INVALID PUSH1 0x80 PUSH1 0x40 MSTORE CALLVALUE DUP1 ISZERO PUSH2 0x10 JUMPI PUSH1 0x0 DUP1 REVERT JUMPDEST POP PUSH1 0x40 MLOAD PUSH2 0x171 CODESIZE SUB DUP1 PUSH2 0x171 DUP4 CODECOPY DUP2 ADD PUSH1 0x40 DUP2 SWAP1 MSTORE PUSH2 0x2F SWAP2 PUSH2 0xB9 JUMP JUMPDEST PUSH1 0x1 PUSH1 0x1 PUSH1 0xA0 SHL SUB DUP2 AND PUSH2 0x94 JUMPI PUSH1 0x40 MLOAD PUSH3 0x461BCD PUSH1 0xE5 SHL DUP2 MSTORE PUSH1 0x20 PUSH1 0x4 DUP3 ADD MSTORE PUSH1 0x22 PUSH1 0x24 DUP3 ADD MSTORE PUSH32 0x496E76616C69642073696E676C65746F6E20616464726573732070726F766964 PUSH1 0x44 DUP3 ADD MSTORE PUSH2 0x1959 PUSH1 0xF2 SHL PUSH1 0x64 DUP3 ADD MSTORE PUSH1 0x84 ADD PUSH1 0x40 MLOAD DUP1 SWAP2 SUB SWAP1 REVERT JUMPDEST PUSH1 0x0 DUP1 SLOAD PUSH1 0x1 PUSH1 0x1 PUSH1 0xA0 SHL SUB NOT AND PUSH1 0x1 PUSH1 0x1 PUSH1 0xA0 SHL SUB SWAP3 SWAP1 SWAP3 AND SWAP2 SWAP1 SWAP2 OR SWAP1 SSTORE PUSH2 0xE7 JUMP JUMPDEST PUSH1 0x0 PUSH1 0x20 DUP3 DUP5 SUB SLT ISZERO PUSH2 0xCA JUMPI DUP1 DUP2 REVERT JUMPDEST DUP2 MLOAD PUSH1 0x1 PUSH1 0x1 PUSH1 0xA0 SHL SUB DUP2 AND DUP2 EQ PUSH2 0xE0 JUMPI DUP2 DUP3 REVERT JUMPDEST SWAP4 SWAP3 POP POP POP JUMP JUMPDEST PUSH1 0x7C DUP1 PUSH2 0xF5 PUSH1 0x0 CODECOPY PUSH1 0x0 RETURN INVALID PUSH1 0x80 PUSH1 0x40 MSTORE PUSH1 0x0 DUP1 SLOAD PUSH1 0x1 PUSH1 0x1 PUSH1 0xA0 SHL SUB AND DUP2 CALLDATALOAD PUSH4 0x530CA437 PUSH1 0xE1 SHL EQ ISZERO PUSH1 0x28 JUMPI DUP1 DUP3 MSTORE PUSH1 0x20 DUP3 RETURN JUMPDEST CALLDATASIZE DUP3 DUP4 CALLDATACOPY DUP2 DUP3 CALLDATASIZE DUP5 DUP5 GAS DELEGATECALL SWAP1 POP RETURNDATASIZE DUP3 DUP4 RETURNDATACOPY DUP1 PUSH1 0x41 JUMPI RETURNDATASIZE DUP3 REVERT JUMPDEST POP RETURNDATASIZE DUP2 RETURN INVALID LOG2 PUSH5 0x6970667358 0x22 SLT KECCAK256 ISZERO SWAP4 DUP15 EXTCODESIZE CALLCODE 0xC4 SWAP16 TSTORE CREATE2 0xC1 0xB7 0xF9 JUMP SWAP16 0xA8 TLOAD 0xC5 0xD6 RETURN SMOD 0x4B 0xB2 PC LOG2 0xDC 0xC PUSH31 0x299BC9E33664736F6C63430008040033A2646970667358221220D401396792 0xB5 ISZERO 0xBC OR 0xC2 PUSH19 0x8A1A88C0B8F067BC9544B8856400DC68A671C5 SWAP13 0xBB PUSH5 0x736F6C6343 STOP ADDMOD BYTE STOP CALLER DUP12 PUSH20 0xC3C69BB8FE3D512ECC4CF759CC79239F7B179B0F STATICCALL 0xCA 0xA9 0xA7 TSTORE MSTORE 0x2B CODECOPY BLOCKHASH 0xF "
		},
		"gasEstimates": {
			"creation": {
				"codeDepositCost": "2871400",
				"executionCost": "infinite",
				"totalCost": "infinite"
			},
			"external": {
				"addAdmin(address)": "26262",
				"addOperator(address)": "26363",
				"admins(address)": "2556",
				"cancelOrder((uint256,address,address,address,uint256,uint256,uint256,uint256,uint256,uint256,uint8,uint8,bytes))": "infinite",
				"cancelOrders((uint256,address,address,address,uint256,uint256,uint256,uint256,uint256,uint256,uint8,uint8,bytes)[])": "infinite",
				"domainSeparator()": "infinite",
				"eip712Domain()": "infinite",
				"fillOrder((uint256,address,address,address,uint256,uint256,uint256,uint256,uint256,uint256,uint8,uint8,bytes),uint256)": "infinite",
				"fillOrders((uint256,address,address,address,uint256,uint256,uint256,uint256,uint256,uint256,uint8,uint8,bytes)[],uint256[])": "infinite",
				"getCollateral()": "infinite",
				"getComplement(uint256)": "4736",
				"getConditionId(uint256)": "2508",
				"getCtf()": "infinite",
				"getMaxFeeRate()": "347",
				"getOrderStatus(bytes32)": "4856",
				"getPolyProxyFactoryImplementation()": "infinite",
				"getPolyProxyWalletAddress(address)": "infinite",
				"getProxyFactory()": "2419",
				"getSafeAddress(address)": "infinite",
				"getSafeFactory()": "2398",
				"getSafeFactoryImplementation()": "infinite",
				"hashOrder((uint256,address,address,address,uint256,uint256,uint256,uint256,uint256,uint256,uint8,uint8,bytes))": "infinite",
				"incrementNonce()": "24657",
				"isAdmin(address)": "2603",
				"isOperator(address)": "2662",
				"isValidNonce(address,uint256)": "2625",
				"matchOrders((uint256,address,address,address,uint256,uint256,uint256,uint256,uint256,uint256,uint8,uint8,bytes),(uint256,address,address,address,uint256,uint256,uint256,uint256,uint256,uint256,uint8,uint8,bytes)[],uint256,uint256[])": "infinite",
				"nonces(address)": "2600",
				"onERC1155BatchReceived(address,address,uint256[],uint256[],bytes)": "infinite",
				"onERC1155Received(address,address,uint256,uint256,bytes)": "infinite",
				"operators(address)": "2667",
				"orderStatus(bytes32)": "4685",
				"parentCollectionId()": "261",
				"pauseTrading()": "27847",
				"paused()": "2410",
				"proxyFactory()": "2469",
				"registerToken(uint256,uint256,bytes32)": "99602",
				"registry(uint256)": "4642",
				"removeAdmin(address)": "9153",
				"removeOperator(address)": "9174",
				"renounceAdminRole()": "9045",
				"renounceOperatorRole()": "9083",
				"safeFactory()": "2471",
				"setProxyFactory(address)": "infinite",
				"setSafeFactory(address)": "infinite",
				"supportsInterface(bytes4)": "470",
				"unpauseTrading()": "27840",
				"validateComplement(uint256,uint256)": "4811",
				"validateOrder((uint256,address,address,address,uint256,uint256,uint256,uint256,uint256,uint256,uint8,uint8,bytes))": "infinite",
				"validateOrderSignature(bytes32,(uint256,address,address,address,uint256,uint256,uint256,uint256,uint256,uint256,uint8,uint8,bytes))": "infinite",
				"validateTokenId(uint256)": "2560"
			}
		},
		"methodIdentifiers": {
			"addAdmin(address)": "70480275",
			"addOperator(address)": "9870d7fe",
			"admins(address)": "429b62e5",
			"cancelOrder((uint256,address,address,address,uint256,uint256,uint256,uint256,uint256,uint256,uint8,uint8,bytes))": "a6dfcf86",
			"cancelOrders((uint256,address,address,address,uint256,uint256,uint256,uint256,uint256,uint256,uint8,uint8,bytes)[])": "fa950b48",
			"domainSeparator()": "f698da25",
			"eip712Domain()": "84b0196e",
			"fillOrder((uint256,address,address,address,uint256,uint256,uint256,uint256,uint256,uint256,uint8,uint8,bytes),uint256)": "fe729aaf",
			"fillOrders((uint256,address,address,address,uint256,uint256,uint256,uint256,uint256,uint256,uint8,uint8,bytes)[],uint256[])": "d798eff6",
			"getCollateral()": "5c1548fb",
			"getComplement(uint256)": "a10f3dce",
			"getConditionId(uint256)": "d7fb272f",
			"getCtf()": "3b521d78",
			"getMaxFeeRate()": "4a2a11f5",
			"getOrderStatus(bytes32)": "46423aa7",
			"getPolyProxyFactoryImplementation()": "06b9d691",
			"getPolyProxyWalletAddress(address)": "edef7d8e",
			"getProxyFactory()": "b28c51c0",
			"getSafeAddress(address)": "a287bdf1",
			"getSafeFactory()": "75d7370a",
			"getSafeFactoryImplementation()": "e03ac3d0",
			"hashOrder((uint256,address,address,address,uint256,uint256,uint256,uint256,uint256,uint256,uint8,uint8,bytes))": "e50e4f97",
			"incrementNonce()": "627cdcb9",
			"isAdmin(address)": "24d7806c",
			"isOperator(address)": "6d70f7ae",
			"isValidNonce(address,uint256)": "0647ee20",
			"matchOrders((uint256,address,address,address,uint256,uint256,uint256,uint256,uint256,uint256,uint8,uint8,bytes),(uint256,address,address,address,uint256,uint256,uint256,uint256,uint256,uint256,uint8,uint8,bytes)[],uint256,uint256[])": "e60f0c05",
			"nonces(address)": "7ecebe00",
			"onERC1155BatchReceived(address,address,uint256[],uint256[],bytes)": "bc197c81",
			"onERC1155Received(address,address,uint256,uint256,bytes)": "f23a6e61",
			"operators(address)": "13e7c9d8",
			"orderStatus(bytes32)": "2dff692d",
			"parentCollectionId()": "44bea37e",
			"pauseTrading()": "1031e36e",
			"paused()": "5c975abb",
			"proxyFactory()": "c10f1a75",
			"registerToken(uint256,uint256,bytes32)": "68c7450f",
			"registry(uint256)": "5893253c",
			"removeAdmin(address)": "1785f53c",
			"removeOperator(address)": "ac8a584a",
			"renounceAdminRole()": "83b8a5ae",
			"renounceOperatorRole()": "3d6d3598",
			"safeFactory()": "131e7e1c",
			"setProxyFactory(address)": "fbddd751",
			"setSafeFactory(address)": "4544f055",
			"supportsInterface(bytes4)": "01ffc9a7",
			"unpauseTrading()": "456068d2",
			"validateComplement(uint256,uint256)": "d82da838",
			"validateOrder((uint256,address,address,address,uint256,uint256,uint256,uint256,uint256,uint256,uint8,uint8,bytes))": "654f0ce4",
			"validateOrderSignature(bytes32,(uint256,address,address,address,uint256,uint256,uint256,uint256,uint256,uint256,uint8,uint8,bytes))": "e2eec405",
			"validateTokenId(uint256)": "34600901"
		}
	},
	"abi": [
		{
			"inputs": [
				{
					"internalType": "address",
					"name": "_collateral",
					"type": "address"
				},
				{
					"internalType": "address",
					"name": "_ctf",
					"type": "address"
				},
				{
					"internalType": "address",
					"name": "_proxyFactory",
					"type": "address"
				},
				{
					"internalType": "address",
					"name": "_safeFactory",
					"type": "address"
				}
			],
			"stateMutability": "nonpayable",
			"type": "constructor"
		},
		{
			"inputs": [],
			"name": "AlreadyRegistered",
			"type": "error"
		},
		{
			"inputs": [],
			"name": "ECDSAInvalidSignature",
			"type": "error"
		},
		{
			"inputs": [
				{
					"internalType": "uint256",
					"name": "length",
					"type": "uint256"
				}
			],
			"name": "ECDSAInvalidSignatureLength",
			"type": "error"
		},
		{
			"inputs": [
				{
					"internalType": "bytes32",
					"name": "s",
					"type": "bytes32"
				}
			],
			"name": "ECDSAInvalidSignatureS",
			"type": "error"
		},
		{
			"inputs": [],
			"name": "FeeTooHigh",
			"type": "error"
		},
		{
			"inputs": [],
			"name": "InvalidComplement",
			"type": "error"
		},
		{
			"inputs": [],
			"name": "InvalidNonce",
			"type": "error"
		},
		{
			"inputs": [],
			"name": "InvalidShortString",
			"type": "error"
		},
		{
			"inputs": [],
			"name": "InvalidSignature",
			"type": "error"
		},
		{
			"inputs": [],
			"name": "InvalidTokenId",
			"type": "error"
		},
		{
			"inputs": [],
			"name": "MakingGtRemaining",
			"type": "error"
		},
		{
			"inputs": [],
			"name": "MismatchedTokenIds",
			"type": "error"
		},
		{
			"inputs": [],
			"name": "NotAdmin",
			"type": "error"
		},
		{
			"inputs": [],
			"name": "NotCrossing",
			"type": "error"
		},
		{
			"inputs": [],
			"name": "NotOperator",
			"type": "error"
		},
		{
			"inputs": [],
			"name": "NotOwner",
			"type": "error"
		},
		{
			"inputs": [],
			"name": "NotTaker",
			"type": "error"
		},
		{
			"inputs": [],
			"name": "OrderExpired",
			"type": "error"
		},
		{
			"inputs": [],
			"name": "OrderFilledOrCancelled",
			"type": "error"
		},
		{
			"inputs": [],
			"name": "Paused",
			"type": "error"
		},
		{
			"inputs": [
				{
					"internalType": "string",
					"name": "str",
					"type": "string"
				}
			],
			"name": "StringTooLong",
			"type": "error"
		},
		{
			"inputs": [],
			"name": "TooLittleTokensReceived",
			"type": "error"
		},
		{
			"anonymous": false,
			"inputs": [],
			"name": "EIP712DomainChanged",
			"type": "event"
		},
		{
			"anonymous": false,
			"inputs": [
				{
					"indexed": true,
					"internalType": "address",
					"name": "receiver",
					"type": "address"
				},
				{
					"indexed": false,
					"internalType": "uint256",
					"name": "tokenId",
					"type": "uint256"
				},
				{
					"indexed": false,
					"internalType": "uint256",
					"name": "amount",
					"type": "uint256"
				}
			],
			"name": "FeeCharged",
			"type": "event"
		},
		{
			"anonymous": false,
			"inputs": [
				{
					"indexed": true,
					"internalType": "address",
					"name": "newAdminAddress",
					"type": "address"
				},
				{
					"indexed": true,
					"internalType": "address",
					"name": "admin",
					"type": "address"
				}
			],
			"name": "NewAdmin",
			"type": "event"
		},
		{
			"anonymous": false,
			"inputs": [
				{
					"indexed": true,
					"internalType": "address",
					"name": "newOperatorAddress",
					"type": "address"
				},
				{
					"indexed": true,
					"internalType": "address",
					"name": "admin",
					"type": "address"
				}
			],
			"name": "NewOperator",
			"type": "event"
		},
		{
			"anonymous": false,
			"inputs": [
				{
					"indexed": true,
					"internalType": "bytes32",
					"name": "orderHash",
					"type": "bytes32"
				}
			],
			"name": "OrderCancelled",
			"type": "event"
		},
		{
			"anonymous": false,
			"inputs": [
				{
					"indexed": true,
					"internalType": "bytes32",
					"name": "orderHash",
					"type": "bytes32"
				},
				{
					"indexed": true,
					"internalType": "address",
					"name": "maker",
					"type": "address"
				},
				{
					"indexed": true,
					"internalType": "address",
					"name": "taker",
					"type": "address"
				},
				{
					"indexed": false,
					"internalType": "uint256",
					"name": "makerAssetId",
					"type": "uint256"
				},
				{
					"indexed": false,
					"internalType": "uint256",
					"name": "takerAssetId",
					"type": "uint256"
				},
				{
					"indexed": false,
					"internalType": "uint256",
					"name": "makerAmountFilled",
					"type": "uint256"
				},
				{
					"indexed": false,
					"internalType": "uint256",
					"name": "takerAmountFilled",
					"type": "uint256"
				},
				{
					"indexed": false,
					"internalType": "uint256",
					"name": "fee",
					"type": "uint256"
				}
			],
			"name": "OrderFilled",
			"type": "event"
		},
		{
			"anonymous": false,
			"inputs": [
				{
					"indexed": true,
					"internalType": "bytes32",
					"name": "takerOrderHash",
					"type": "bytes32"
				},
				{
					"indexed": true,
					"internalType": "address",
					"name": "takerOrderMaker",
					"type": "address"
				},
				{
					"indexed": false,
					"internalType": "uint256",
					"name": "makerAssetId",
					"type": "uint256"
				},
				{
					"indexed": false,
					"internalType": "uint256",
					"name": "takerAssetId",
					"type": "uint256"
				},
				{
					"indexed": false,
					"internalType": "uint256",
					"name": "makerAmountFilled",
					"type": "uint256"
				},
				{
					"indexed": false,
					"internalType": "uint256",
					"name": "takerAmountFilled",
					"type": "uint256"
				}
			],
			"name": "OrdersMatched",
			"type": "event"
		},
		{
			"anonymous": false,
			"inputs": [
				{
					"indexed": true,
					"internalType": "address",
					"name": "oldProxyFactory",
					"type": "address"
				},
				{
					"indexed": true,
					"internalType": "address",
					"name": "newProxyFactory",
					"type": "address"
				}
			],
			"name": "ProxyFactoryUpdated",
			"type": "event"
		},
		{
			"anonymous": false,
			"inputs": [
				{
					"indexed": true,
					"internalType": "address",
					"name": "removedAdmin",
					"type": "address"
				},
				{
					"indexed": true,
					"internalType": "address",
					"name": "admin",
					"type": "address"
				}
			],
			"name": "RemovedAdmin",
			"type": "event"
		},
		{
			"anonymous": false,
			"inputs": [
				{
					"indexed": true,
					"internalType": "address",
					"name": "removedOperator",
					"type": "address"
				},
				{
					"indexed": true,
					"internalType": "address",
					"name": "admin",
					"type": "address"
				}
			],
			"name": "RemovedOperator",
			"type": "event"
		},
		{
			"anonymous": false,
			"inputs": [
				{
					"indexed": true,
					"internalType": "address",
					"name": "oldSafeFactory",
					"type": "address"
				},
				{
					"indexed": true,
					"internalType": "address",
					"name": "newSafeFactory",
					"type": "address"
				}
			],
			"name": "SafeFactoryUpdated",
			"type": "event"
		},
		{
			"anonymous": false,
			"inputs": [
				{
					"indexed": true,
					"internalType": "uint256",
					"name": "token0",
					"type": "uint256"
				},
				{
					"indexed": true,
					"internalType": "uint256",
					"name": "token1",
					"type": "uint256"
				},
				{
					"indexed": true,
					"internalType": "bytes32",
					"name": "conditionId",
					"type": "bytes32"
				}
			],
			"name": "TokenRegistered",
			"type": "event"
		},
		{
			"anonymous": false,
			"inputs": [
				{
					"indexed": true,
					"internalType": "address",
					"name": "pauser",
					"type": "address"
				}
			],
			"name": "TradingPaused",
			"type": "event"
		},
		{
			"anonymous": false,
			"inputs": [
				{
					"indexed": true,
					"internalType": "address",
					"name": "pauser",
					"type": "address"
				}
			],
			"name": "TradingUnpaused",
			"type": "event"
		},
		{
			"inputs": [
				{
					"internalType": "address",
					"name": "admin_",
					"type": "address"
				}
			],
			"name": "addAdmin",
			"outputs": [],
			"stateMutability": "nonpayable",
			"type": "function"
		},
		{
			"inputs": [
				{
					"internalType": "address",
					"name": "operator_",
					"type": "address"
				}
			],
			"name": "addOperator",
			"outputs": [],
			"stateMutability": "nonpayable",
			"type": "function"
		},
		{
			"inputs": [
				{
					"internalType": "address",
					"name": "",
					"type": "address"
				}
			],
			"name": "admins",
			"outputs": [
				{
					"internalType": "uint256",
					"name": "",
					"type": "uint256"
				}
			],
			"stateMutability": "view",
			"type": "function"
		},
		{
			"inputs": [
				{
					"components": [
						{
							"internalType": "uint256",
							"name": "salt",
							"type": "uint256"
						},
						{
							"internalType": "address",
							"name": "maker",
							"type": "address"
						},
						{
							"internalType": "address",
							"name": "signer",
							"type": "address"
						},
						{
							"internalType": "address",
							"name": "taker",
							"type": "address"
						},
						{
							"internalType": "uint256",
							"name": "tokenId",
							"type": "uint256"
						},
						{
							"internalType": "uint256",
							"name": "makerAmount",
							"type": "uint256"
						},
						{
							"internalType": "uint256",
							"name": "takerAmount",
							"type": "uint256"
						},
						{
							"internalType": "uint256",
							"name": "expiration",
							"type": "uint256"
						},
						{
							"internalType": "uint256",
							"name": "nonce",
							"type": "uint256"
						},
						{
							"internalType": "uint256",
							"name": "feeRateBps",
							"type": "uint256"
						},
						{
							"internalType": "enum Side",
							"name": "side",
							"type": "uint8"
						},
						{
							"internalType": "enum SignatureType",
							"name": "signatureType",
							"type": "uint8"
						},
						{
							"internalType": "bytes",
							"name": "signature",
							"type": "bytes"
						}
					],
					"internalType": "struct Order",
					"name": "order",
					"type": "tuple"
				}
			],
			"name": "cancelOrder",
			"outputs": [],
			"stateMutability": "nonpayable",
			"type": "function"
		},
		{
			"inputs": [
				{
					"components": [
						{
							"internalType": "uint256",
							"name": "salt",
							"type": "uint256"
						},
						{
							"internalType": "address",
							"name": "maker",
							"type": "address"
						},
						{
							"internalType": "address",
							"name": "signer",
							"type": "address"
						},
						{
							"internalType": "address",
							"name": "taker",
							"type": "address"
						},
						{
							"internalType": "uint256",
							"name": "tokenId",
							"type": "uint256"
						},
						{
							"internalType": "uint256",
							"name": "makerAmount",
							"type": "uint256"
						},
						{
							"internalType": "uint256",
							"name": "takerAmount",
							"type": "uint256"
						},
						{
							"internalType": "uint256",
							"name": "expiration",
							"type": "uint256"
						},
						{
							"internalType": "uint256",
							"name": "nonce",
							"type": "uint256"
						},
						{
							"internalType": "uint256",
							"name": "feeRateBps",
							"type": "uint256"
						},
						{
							"internalType": "enum Side",
							"name": "side",
							"type": "uint8"
						},
						{
							"internalType": "enum SignatureType",
							"name": "signatureType",
							"type": "uint8"
						},
						{
							"internalType": "bytes",
							"name": "signature",
							"type": "bytes"
						}
					],
					"internalType": "struct Order[]",
					"name": "orders",
					"type": "tuple[]"
				}
			],
			"name": "cancelOrders",
			"outputs": [],
			"stateMutability": "nonpayable",
			"type": "function"
		},
		{
			"inputs": [],
			"name": "domainSeparator",
			"outputs": [
				{
					"internalType": "bytes32",
					"name": "",
					"type": "bytes32"
				}
			],
			"stateMutability": "view",
			"type": "function"
		},
		{
			"inputs": [],
			"name": "eip712Domain",
			"outputs": [
				{
					"internalType": "bytes1",
					"name": "fields",
					"type": "bytes1"
				},
				{
					"internalType": "string",
					"name": "name",
					"type": "string"
				},
				{
					"internalType": "string",
					"name": "version",
					"type": "string"
				},
				{
					"internalType": "uint256",
					"name": "chainId",
					"type": "uint256"
				},
				{
					"internalType": "address",
					"name": "verifyingContract",
					"type": "address"
				},
				{
					"internalType": "bytes32",
					"name": "salt",
					"type": "bytes32"
				},
				{
					"internalType": "uint256[]",
					"name": "extensions",
					"type": "uint256[]"
				}
			],
			"stateMutability": "view",
			"type": "function"
		},
		{
			"inputs": [
				{
					"components": [
						{
							"internalType": "uint256",
							"name": "salt",
							"type": "uint256"
						},
						{
							"internalType": "address",
							"name": "maker",
							"type": "address"
						},
						{
							"internalType": "address",
							"name": "signer",
							"type": "address"
						},
						{
							"internalType": "address",
							"name": "taker",
							"type": "address"
						},
						{
							"internalType": "uint256",
							"name": "tokenId",
							"type": "uint256"
						},
						{
							"internalType": "uint256",
							"name": "makerAmount",
							"type": "uint256"
						},
						{
							"internalType": "uint256",
							"name": "takerAmount",
							"type": "uint256"
						},
						{
							"internalType": "uint256",
							"name": "expiration",
							"type": "uint256"
						},
						{
							"internalType": "uint256",
							"name": "nonce",
							"type": "uint256"
						},
						{
							"internalType": "uint256",
							"name": "feeRateBps",
							"type": "uint256"
						},
						{
							"internalType": "enum Side",
							"name": "side",
							"type": "uint8"
						},
						{
							"internalType": "enum SignatureType",
							"name": "signatureType",
							"type": "uint8"
						},
						{
							"internalType": "bytes",
							"name": "signature",
							"type": "bytes"
						}
					],
					"internalType": "struct Order",
					"name": "order",
					"type": "tuple"
				},
				{
					"internalType": "uint256",
					"name": "fillAmount",
					"type": "uint256"
				}
			],
			"name": "fillOrder",
			"outputs": [],
			"stateMutability": "nonpayable",
			"type": "function"
		},
		{
			"inputs": [
				{
					"components": [
						{
							"internalType": "uint256",
							"name": "salt",
							"type": "uint256"
						},
						{
							"internalType": "address",
							"name": "maker",
							"type": "address"
						},
						{
							"internalType": "address",
							"name": "signer",
							"type": "address"
						},
						{
							"internalType": "address",
							"name": "taker",
							"type": "address"
						},
						{
							"internalType": "uint256",
							"name": "tokenId",
							"type": "uint256"
						},
						{
							"internalType": "uint256",
							"name": "makerAmount",
							"type": "uint256"
						},
						{
							"internalType": "uint256",
							"name": "takerAmount",
							"type": "uint256"
						},
						{
							"internalType": "uint256",
							"name": "expiration",
							"type": "uint256"
						},
						{
							"internalType": "uint256",
							"name": "nonce",
							"type": "uint256"
						},
						{
							"internalType": "uint256",
							"name": "feeRateBps",
							"type": "uint256"
						},
						{
							"internalType": "enum Side",
							"name": "side",
							"type": "uint8"
						},
						{
							"internalType": "enum SignatureType",
							"name": "signatureType",
							"type": "uint8"
						},
						{
							"internalType": "bytes",
							"name": "signature",
							"type": "bytes"
						}
					],
					"internalType": "struct Order[]",
					"name": "orders",
					"type": "tuple[]"
				},
				{
					"internalType": "uint256[]",
					"name": "fillAmounts",
					"type": "uint256[]"
				}
			],
			"name": "fillOrders",
			"outputs": [],
			"stateMutability": "nonpayable",
			"type": "function"
		},
		{
			"inputs": [],
			"name": "getCollateral",
			"outputs": [
				{
					"internalType": "address",
					"name": "",
					"type": "address"
				}
			],
			"stateMutability": "view",
			"type": "function"
		},
		{
			"inputs": [
				{
					"internalType": "uint256",
					"name": "token",
					"type": "uint256"
				}
			],
			"name": "getComplement",
			"outputs": [
				{
					"internalType": "uint256",
					"name": "",
					"type": "uint256"
				}
			],
			"stateMutability": "view",
			"type": "function"
		},
		{
			"inputs": [
				{
					"internalType": "uint256",
					"name": "token",
					"type": "uint256"
				}
			],
			"name": "getConditionId",
			"outputs": [
				{
					"internalType": "bytes32",
					"name": "",
					"type": "bytes32"
				}
			],
			"stateMutability": "view",
			"type": "function"
		},
		{
			"inputs": [],
			"name": "getCtf",
			"outputs": [
				{
					"internalType": "address",
					"name": "",
					"type": "address"
				}
			],
			"stateMutability": "view",
			"type": "function"
		},
		{
			"inputs": [],
			"name": "getMaxFeeRate",
			"outputs": [
				{
					"internalType": "uint256",
					"name": "",
					"type": "uint256"
				}
			],
			"stateMutability": "pure",
			"type": "function"
		},
		{
			"inputs": [
				{
					"internalType": "bytes32",
					"name": "orderHash",
					"type": "bytes32"
				}
			],
			"name": "getOrderStatus",
			"outputs": [
				{
					"components": [
						{
							"internalType": "bool",
							"name": "isFilledOrCancelled",
							"type": "bool"
						},
						{
							"internalType": "uint256",
							"name": "remaining",
							"type": "uint256"
						}
					],
					"internalType": "struct OrderStatus",
					"name": "",
					"type": "tuple"
				}
			],
			"stateMutability": "view",
			"type": "function"
		},
		{
			"inputs": [],
			"name": "getPolyProxyFactoryImplementation",
			"outputs": [
				{
					"internalType": "address",
					"name": "",
					"type": "address"
				}
			],
			"stateMutability": "view",
			"type": "function"
		},
		{
			"inputs": [
				{
					"internalType": "address",
					"name": "_addr",
					"type": "address"
				}
			],
			"name": "getPolyProxyWalletAddress",
			"outputs": [
				{
					"internalType": "address",
					"name": "",
					"type": "address"
				}
			],
			"stateMutability": "view",
			"type": "function"
		},
		{
			"inputs": [],
			"name": "getProxyFactory",
			"outputs": [
				{
					"internalType": "address",
					"name": "",
					"type": "address"
				}
			],
			"stateMutability": "view",
			"type": "function"
		},
		{
			"inputs": [
				{
					"internalType": "address",
					"name": "_addr",
					"type": "address"
				}
			],
			"name": "getSafeAddress",
			"outputs": [
				{
					"internalType": "address",
					"name": "",
					"type": "address"
				}
			],
			"stateMutability": "view",
			"type": "function"
		},
		{
			"inputs": [],
			"name": "getSafeFactory",
			"outputs": [
				{
					"internalType": "address",
					"name": "",
					"type": "address"
				}
			],
			"stateMutability": "view",
			"type": "function"
		},
		{
			"inputs": [],
			"name": "getSafeFactoryImplementation",
			"outputs": [
				{
					"internalType": "address",
					"name": "",
					"type": "address"
				}
			],
			"stateMutability": "view",
			"type": "function"
		},
		{
			"inputs": [
				{
					"components": [
						{
							"internalType": "uint256",
							"name": "salt",
							"type": "uint256"
						},
						{
							"internalType": "address",
							"name": "maker",
							"type": "address"
						},
						{
							"internalType": "address",
							"name": "signer",
							"type": "address"
						},
						{
							"internalType": "address",
							"name": "taker",
							"type": "address"
						},
						{
							"internalType": "uint256",
							"name": "tokenId",
							"type": "uint256"
						},
						{
							"internalType": "uint256",
							"name": "makerAmount",
							"type": "uint256"
						},
						{
							"internalType": "uint256",
							"name": "takerAmount",
							"type": "uint256"
						},
						{
							"internalType": "uint256",
							"name": "expiration",
							"type": "uint256"
						},
						{
							"internalType": "uint256",
							"name": "nonce",
							"type": "uint256"
						},
						{
							"internalType": "uint256",
							"name": "feeRateBps",
							"type": "uint256"
						},
						{
							"internalType": "enum Side",
							"name": "side",
							"type": "uint8"
						},
						{
							"internalType": "enum SignatureType",
							"name": "signatureType",
							"type": "uint8"
						},
						{
							"internalType": "bytes",
							"name": "signature",
							"type": "bytes"
						}
					],
					"internalType": "struct Order",
					"name": "order",
					"type": "tuple"
				}
			],
			"name": "hashOrder",
			"outputs": [
				{
					"internalType": "bytes32",
					"name": "",
					"type": "bytes32"
				}
			],
			"stateMutability": "view",
			"type": "function"
		},
		{
			"inputs": [],
			"name": "incrementNonce",
			"outputs": [],
			"stateMutability": "nonpayable",
			"type": "function"
		},
		{
			"inputs": [
				{
					"internalType": "address",
					"name": "usr",
					"type": "address"
				}
			],
			"name": "isAdmin",
			"outputs": [
				{
					"internalType": "bool",
					"name": "",
					"type": "bool"
				}
			],
			"stateMutability": "view",
			"type": "function"
		},
		{
			"inputs": [
				{
					"internalType": "address",
					"name": "usr",
					"type": "address"
				}
			],
			"name": "isOperator",
			"outputs": [
				{
					"internalType": "bool",
					"name": "",
					"type": "bool"
				}
			],
			"stateMutability": "view",
			"type": "function"
		},
		{
			"inputs": [
				{
					"internalType": "address",
					"name": "usr",
					"type": "address"
				},
				{
					"internalType": "uint256",
					"name": "nonce",
					"type": "uint256"
				}
			],
			"name": "isValidNonce",
			"outputs": [
				{
					"internalType": "bool",
					"name": "",
					"type": "bool"
				}
			],
			"stateMutability": "view",
			"type": "function"
		},
		{
			"inputs": [
				{
					"components": [
						{
							"internalType": "uint256",
							"name": "salt",
							"type": "uint256"
						},
						{
							"internalType": "address",
							"name": "maker",
							"type": "address"
						},
						{
							"internalType": "address",
							"name": "signer",
							"type": "address"
						},
						{
							"internalType": "address",
							"name": "taker",
							"type": "address"
						},
						{
							"internalType": "uint256",
							"name": "tokenId",
							"type": "uint256"
						},
						{
							"internalType": "uint256",
							"name": "makerAmount",
							"type": "uint256"
						},
						{
							"internalType": "uint256",
							"name": "takerAmount",
							"type": "uint256"
						},
						{
							"internalType": "uint256",
							"name": "expiration",
							"type": "uint256"
						},
						{
							"internalType": "uint256",
							"name": "nonce",
							"type": "uint256"
						},
						{
							"internalType": "uint256",
							"name": "feeRateBps",
							"type": "uint256"
						},
						{
							"internalType": "enum Side",
							"name": "side",
							"type": "uint8"
						},
						{
							"internalType": "enum SignatureType",
							"name": "signatureType",
							"type": "uint8"
						},
						{
							"internalType": "bytes",
							"name": "signature",
							"type": "bytes"
						}
					],
					"internalType": "struct Order",
					"name": "takerOrder",
					"type": "tuple"
				},
				{
					"components": [
						{
							"internalType": "uint256",
							"name": "salt",
							"type": "uint256"
						},
						{
							"internalType": "address",
							"name": "maker",
							"type": "address"
						},
						{
							"internalType": "address",
							"name": "signer",
							"type": "address"
						},
						{
							"internalType": "address",
							"name": "taker",
							"type": "address"
						},
						{
							"internalType": "uint256",
							"name": "tokenId",
							"type": "uint256"
						},
						{
							"internalType": "uint256",
							"name": "makerAmount",
							"type": "uint256"
						},
						{
							"internalType": "uint256",
							"name": "takerAmount",
							"type": "uint256"
						},
						{
							"internalType": "uint256",
							"name": "expiration",
							"type": "uint256"
						},
						{
							"internalType": "uint256",
							"name": "nonce",
							"type": "uint256"
						},
						{
							"internalType": "uint256",
							"name": "feeRateBps",
							"type": "uint256"
						},
						{
							"internalType": "enum Side",
							"name": "side",
							"type": "uint8"
						},
						{
							"internalType": "enum SignatureType",
							"name": "signatureType",
							"type": "uint8"
						},
						{
							"internalType": "bytes",
							"name": "signature",
							"type": "bytes"
						}
					],
					"internalType": "struct Order[]",
					"name": "makerOrders",
					"type": "tuple[]"
				},
				{
					"internalType": "uint256",
					"name": "takerFillAmount",
					"type": "uint256"
				},
				{
					"internalType": "uint256[]",
					"name": "makerFillAmounts",
					"type": "uint256[]"
				}
			],
			"name": "matchOrders",
			"outputs": [],
			"stateMutability": "nonpayable",
			"type": "function"
		},
		{
			"inputs": [
				{
					"internalType": "address",
					"name": "",
					"type": "address"
				}
			],
			"name": "nonces",
			"outputs": [
				{
					"internalType": "uint256",
					"name": "",
					"type": "uint256"
				}
			],
			"stateMutability": "view",
			"type": "function"
		},
		{
			"inputs": [
				{
					"internalType": "address",
					"name": "",
					"type": "address"
				},
				{
					"internalType": "address",
					"name": "",
					"type": "address"
				},
				{
					"internalType": "uint256[]",
					"name": "",
					"type": "uint256[]"
				},
				{
					"internalType": "uint256[]",
					"name": "",
					"type": "uint256[]"
				},
				{
					"internalType": "bytes",
					"name": "",
					"type": "bytes"
				}
			],
			"name": "onERC1155BatchReceived",
			"outputs": [
				{
					"internalType": "bytes4",
					"name": "",
					"type": "bytes4"
				}
			],
			"stateMutability": "nonpayable",
			"type": "function"
		},
		{
			"inputs": [
				{
					"internalType": "address",
					"name": "",
					"type": "address"
				},
				{
					"internalType": "address",
					"name": "",
					"type": "address"
				},
				{
					"internalType": "uint256",
					"name": "",
					"type": "uint256"
				},
				{
					"internalType": "uint256",
					"name": "",
					"type": "uint256"
				},
				{
					"internalType": "bytes",
					"name": "",
					"type": "bytes"
				}
			],
			"name": "onERC1155Received",
			"outputs": [
				{
					"internalType": "bytes4",
					"name": "",
					"type": "bytes4"
				}
			],
			"stateMutability": "nonpayable",
			"type": "function"
		},
		{
			"inputs": [
				{
					"internalType": "address",
					"name": "",
					"type": "address"
				}
			],
			"name": "operators",
			"outputs": [
				{
					"internalType": "uint256",
					"name": "",
					"type": "uint256"
				}
			],
			"stateMutability": "view",
			"type": "function"
		},
		{
			"inputs": [
				{
					"internalType": "bytes32",
					"name": "",
					"type": "bytes32"
				}
			],
			"name": "orderStatus",
			"outputs": [
				{
					"internalType": "bool",
					"name": "isFilledOrCancelled",
					"type": "bool"
				},
				{
					"internalType": "uint256",
					"name": "remaining",
					"type": "uint256"
				}
			],
			"stateMutability": "view",
			"type": "function"
		},
		{
			"inputs": [],
			"name": "parentCollectionId",
			"outputs": [
				{
					"internalType": "bytes32",
					"name": "",
					"type": "bytes32"
				}
			],
			"stateMutability": "view",
			"type": "function"
		},
		{
			"inputs": [],
			"name": "pauseTrading",
			"outputs": [],
			"stateMutability": "nonpayable",
			"type": "function"
		},
		{
			"inputs": [],
			"name": "paused",
			"outputs": [
				{
					"internalType": "bool",
					"name": "",
					"type": "bool"
				}
			],
			"stateMutability": "view",
			"type": "function"
		},
		{
			"inputs": [],
			"name": "proxyFactory",
			"outputs": [
				{
					"internalType": "address",
					"name": "",
					"type": "address"
				}
			],
			"stateMutability": "view",
			"type": "function"
		},
		{
			"inputs": [
				{
					"internalType": "uint256",
					"name": "token",
					"type": "uint256"
				},
				{
					"internalType": "uint256",
					"name": "complement",
					"type": "uint256"
				},
				{
					"internalType": "bytes32",
					"name": "conditionId",
					"type": "bytes32"
				}
			],
			"name": "registerToken",
			"outputs": [],
			"stateMutability": "nonpayable",
			"type": "function"
		},
		{
			"inputs": [
				{
					"internalType": "uint256",
					"name": "",
					"type": "uint256"
				}
			],
			"name": "registry",
			"outputs": [
				{
					"internalType": "uint256",
					"name": "complement",
					"type": "uint256"
				},
				{
					"internalType": "bytes32",
					"name": "conditionId",
					"type": "bytes32"
				}
			],
			"stateMutability": "view",
			"type": "function"
		},
		{
			"inputs": [
				{
					"internalType": "address",
					"name": "admin",
					"type": "address"
				}
			],
			"name": "removeAdmin",
			"outputs": [],
			"stateMutability": "nonpayable",
			"type": "function"
		},
		{
			"inputs": [
				{
					"internalType": "address",
					"name": "operator",
					"type": "address"
				}
			],
			"name": "removeOperator",
			"outputs": [],
			"stateMutability": "nonpayable",
			"type": "function"
		},
		{
			"inputs": [],
			"name": "renounceAdminRole",
			"outputs": [],
			"stateMutability": "nonpayable",
			"type": "function"
		},
		{
			"inputs": [],
			"name": "renounceOperatorRole",
			"outputs": [],
			"stateMutability": "nonpayable",
			"type": "function"
		},
		{
			"inputs": [],
			"name": "safeFactory",
			"outputs": [
				{
					"internalType": "address",
					"name": "",
					"type": "address"
				}
			],
			"stateMutability": "view",
			"type": "function"
		},
		{
			"inputs": [
				{
					"internalType": "address",
					"name": "_newProxyFactory",
					"type": "address"
				}
			],
			"name": "setProxyFactory",
			"outputs": [],
			"stateMutability": "nonpayable",
			"type": "function"
		},
		{
			"inputs": [
				{
					"internalType": "address",
					"name": "_newSafeFactory",
					"type": "address"
				}
			],
			"name": "setSafeFactory",
			"outputs": [],
			"stateMutability": "nonpayable",
			"type": "function"
		},
		{
			"inputs": [
				{
					"internalType": "bytes4",
					"name": "interfaceId",
					"type": "bytes4"
				}
			],
			"name": "supportsInterface",
			"outputs": [
				{
					"internalType": "bool",
					"name": "",
					"type": "bool"
				}
			],
			"stateMutability": "view",
			"type": "function"
		},
		{
			"inputs": [],
			"name": "unpauseTrading",
			"outputs": [],
			"stateMutability": "nonpayable",
			"type": "function"
		},
		{
			"inputs": [
				{
					"internalType": "uint256",
					"name": "token",
					"type": "uint256"
				},
				{
					"internalType": "uint256",
					"name": "complement",
					"type": "uint256"
				}
			],
			"name": "validateComplement",
			"outputs": [],
			"stateMutability": "view",
			"type": "function"
		},
		{
			"inputs": [
				{
					"components": [
						{
							"internalType": "uint256",
							"name": "salt",
							"type": "uint256"
						},
						{
							"internalType": "address",
							"name": "maker",
							"type": "address"
						},
						{
							"internalType": "address",
							"name": "signer",
							"type": "address"
						},
						{
							"internalType": "address",
							"name": "taker",
							"type": "address"
						},
						{
							"internalType": "uint256",
							"name": "tokenId",
							"type": "uint256"
						},
						{
							"internalType": "uint256",
							"name": "makerAmount",
							"type": "uint256"
						},
						{
							"internalType": "uint256",
							"name": "takerAmount",
							"type": "uint256"
						},
						{
							"internalType": "uint256",
							"name": "expiration",
							"type": "uint256"
						},
						{
							"internalType": "uint256",
							"name": "nonce",
							"type": "uint256"
						},
						{
							"internalType": "uint256",
							"name": "feeRateBps",
							"type": "uint256"
						},
						{
							"internalType": "enum Side",
							"name": "side",
							"type": "uint8"
						},
						{
							"internalType": "enum SignatureType",
							"name": "signatureType",
							"type": "uint8"
						},
						{
							"internalType": "bytes",
							"name": "signature",
							"type": "bytes"
						}
					],
					"internalType": "struct Order",
					"name": "order",
					"type": "tuple"
				}
			],
			"name": "validateOrder",
			"outputs": [],
			"stateMutability": "view",
			"type": "function"
		},
		{
			"inputs": [
				{
					"internalType": "bytes32",
					"name": "orderHash",
					"type": "bytes32"
				},
				{
					"components": [
						{
							"internalType": "uint256",
							"name": "salt",
							"type": "uint256"
						},
						{
							"internalType": "address",
							"name": "maker",
							"type": "address"
						},
						{
							"internalType": "address",
							"name": "signer",
							"type": "address"
						},
						{
							"internalType": "address",
							"name": "taker",
							"type": "address"
						},
						{
							"internalType": "uint256",
							"name": "tokenId",
							"type": "uint256"
						},
						{
							"internalType": "uint256",
							"name": "makerAmount",
							"type": "uint256"
						},
						{
							"internalType": "uint256",
							"name": "takerAmount",
							"type": "uint256"
						},
						{
							"internalType": "uint256",
							"name": "expiration",
							"type": "uint256"
						},
						{
							"internalType": "uint256",
							"name": "nonce",
							"type": "uint256"
						},
						{
							"internalType": "uint256",
							"name": "feeRateBps",
							"type": "uint256"
						},
						{
							"internalType": "enum Side",
							"name": "side",
							"type": "uint8"
						},
						{
							"internalType": "enum SignatureType",
							"name": "signatureType",
							"type": "uint8"
						},
						{
							"internalType": "bytes",
							"name": "signature",
							"type": "bytes"
						}
					],
					"internalType": "struct Order",
					"name": "order",
					"type": "tuple"
				}
			],
			"name": "validateOrderSignature",
			"outputs": [],
			"stateMutability": "view",
			"type": "function"
		},
		{
			"inputs": [
				{
					"internalType": "uint256",
					"name": "tokenId",
					"type": "uint256"
				}
			],
			"name": "validateTokenId",
			"outputs": [],
			"stateMutability": "view",
			"type": "function"
		}
	]
}